:020000040800F2
:1000000028090020010100082B24000865210008B0
:1000100029240008410A00080933000800000000F4
:10002000000000000000000000000000B1260008F1
:10003000D50A0008000000003D260008712B0008CA
:100040001B0100081B0100081B0100081B01000820
:100050001B0100081B0100081B0100081B01000810
:100060001B0100081B0100081B0100081B01000800
:100070001B010008450A00081B010008510A00087E
:100080001B0100081B0100081B0100081B010008E0
:100090001B0100081B0100081B0100081B010008D0
:1000A0001B0100081B0100081B0100081B010008C0
:1000B000D52B0008E12B0008ED2B00081B010008E0
:1000C0001B0100081B0100081B0100081B010008A0
:1000D0001B010008193200081B010008313200081A
:1000E0001B0100081B0100081B010008DFF80CD0F1
:1000F00000F040FC00480047854500082809002022
:100100000648804706480047FEE7FEE7FEE7FEE7B1
:10011000FEE7FEE7FEE7FEE7FEE7FEE7D32B00087B
:10012000ED000008202A04DB203A21FA02F0002129
:10013000704721FA02F3D040C2F1200291400843F7
:100140001946704740EA01039B0703D009E008C93C
:10015000121F08C0042AFAD203E011F8013B00F88C
:10016000013B521EF9D27047D2B201E000F8012BD8
:10017000491EFBD270470022F6E710B513460A4627
:1001800004461946FFF7F0FF204610BDF0B480EAA0
:100190000102D40F4200B2EB410F02D202460846E0
:1001A00011464A0042D0C30DDDB2C1F3C752AD1AA9
:1001B000202D35DAC1F3160141F4000204B1524298
:1001C000C5F1200602FA06F12A411044B3EBD05FD4
:1001D00023D0C4B1012DA0EBC35009DCF0BC4FF01B
:1001E000004202EAC352DBB200F5000000F097BA09
:1001F000400000F1807000EBC350A0F1807040EA35
:10020000D170490009E0490841EAC071A0EBC35030
:1002100000F50000400800EBC350F0BC00F076BAD7
:100220006142012202EB4101001BF6E7F0BC70477E
:1002300081F00041AAE780F00040A7E780EA0102D0
:1002400010B502F00043400022D04A001FD0010E3A
:1002500001EB1261C0F35600C2F3560240F40000F5
:1002600042F40002A0FB022000047F39140400D0F5
:10027000401C50EA124001D44000491EC2B20C0694
:1002800004EBD010401C4008802A02D003E000207C
:1002900010BD20F00100002900DA0020184310BD35
:1002A00030B480EA010202F0004530F0004221F053
:1002B000004013D090B1C30DD40DC2F31601C0F3AA
:1002C0001600E41A41F4000140F400027D3491422A
:1002D00001D3641C00E04900002C02DA30BC00208D
:1002E00070474FF400000023914201D3891A034361
:1002F00040084FEA4101F7D151B1914202D14FF08C
:10030000004105E002D24FF0010101E06FF0010170
:1003100003EBC450284430BC00F0F8B92DE9FE4F7F
:10032000804681EA0300C00F0C46009021F0004196
:1003300023F00045B8EB0200A94105D24046214612
:1003400090461C460B46024623F00040104347D01F
:10035000270DC7F30A00C3F30A510290401A019017
:1003600040286BDAC3F3130040F4801B00989246D8
:1003700020B10023D2EB030A63EB0B0B0198594623
:10038000C0F14002504600F0A0F906460D46504626
:100390005946019A00F0A8F910EB080061410024C9
:1003A00087EA115284EAE7731A4340D0009A62B395
:1003B000019A012A4FEA075215DC001B61EB02018A
:1003C0004FF0004202EA0752CDE90042001C41F51D
:1003D000801132462B4600F0DFF903B0BDE8F08F04
:1003E00040462146F9E7001B61EB0201001C41F584
:1003F000801300185B412018A2F5001747EB03019A
:1004000040EAD570B6196D4111E06D084FEA360625
:1004100045EAC0754FEA0752001B61EB0201001C60
:1004200041F5801149084FEA300000195141324628
:100430002B4603B0BDE8F04F00F09FB900980122B1
:1004400040000023D0EB020263EBE07300982146EA
:100450004FEAE074B8EB000061EB0401E9E783F0D8
:1004600000435BE781F0004158E72DE9FE4F81EA48
:10047000030404F0004421F0004100944FF0000B0D
:1004800023F0004350EA01045ED052EA03045BD03B
:10049000C3F30A54C1F30A552C44A4F2F334019473
:1004A000A0FB0254C1F3130141F48011C3F3130301
:1004B00043F4801301FB024400FB034E840A970AB5
:1004C00044EA815447EA8357A4FB076802958D0AE2
:1004D00005FB07854FEA932C04FB0C542705029D6E
:1004E0004FEA065847EA1637B5EB08056EEB070CDE
:1004F000870E920E47EA811742EA8312A7FB020198
:10050000B6EB0B0164EB00042B0D43EA0C335E18D1
:1005100044EB1C50DA465146E7FB0201C5F31304D5
:100520004FEA0B3343EA14534FEA0432019C43EA87
:100530000603A4F10C040294009CCDE900B400F081
:100540002BF903B0BDE8F08F00200146F9E7C10F99
:1005500080EAE0700844CA079623002100F0DFB863
:100560000EB5C10F80EAE0700844CA07002140F2CE
:1005700033438DE80E000A460B4600F00DF903B038
:1005800000BD00F0004220F00040C10DC0F3160095
:1005900040F400007F2901DA00207047962903DC2F
:1005A000C1F19601C84001E096398840002AF4D094
:1005B0004042704700F0004230F000400AD0C10DC8
:1005C00001F56071C0F3160042EA0151C20840070C
:1005D0001143704700200146704701F0004330B4DA
:1005E00021F0004150EA010206D00A0DA2F5607226
:1005F000C1F31301002A02DC30BC00207047440F15
:1006000044EAC104C100E01830BC00EBC25000F065
:100610007DB80000002801DBC0F10040002901DBAB
:10062000C1F1004181427047002801DBC0F1004068
:10063000002901DBC1F100418842704730B50B460B
:10064000014600202022012409E021FA02F59D4202
:1006500005D303FA02F5491B04FA02F52844151ED6
:10066000A2F10102F1DC30BD2DE9F05F054600206A
:1006700092469B4688460646814640241BE0284613
:10068000414647462246FFF74DFD53465A46C01A9B
:10069000914110D311461846224600F016F82D1A43
:1006A00067EB01084F4622460120002100F00DF8BB
:1006B00017EB00094E41201EA4F10104DFDC48467F
:1006C00031462A464346BDE8F09F202A04DB203A03
:1006D00000FA02F1002070479140C2F1200320FA95
:1006E00003F3194390407047202A06DBCB17203ACA
:1006F00041FA02F043EAE07306E041FA02F3D04027
:10070000C2F1200291400843194670470029A8BF52
:100710007047401C490008BF20F00100704710B42A
:10072000B0FA80FC00FA0CF050EA010404BF10BCDF
:10073000704749B1CCF1200421FA04F411FA0CF10C
:1007400018BF012121430843A3EB0C01CB1D4FEA45
:1007500000614FEA102042BF002010BC704700EB40
:10076000C35010440029A4BF10BC7047401C49006E
:1007700008BF20F0010010BC704710B5141E73F1C3
:10078000000408DA401C41F1000192185B411A4351
:1007900001D120F0010010BD2DE9F04D92469B469D
:1007A00011B1B1FA81F202E0B0FA80F22032904643
:1007B000FFF78BFF04460F4640EA0A0041EA0B01AF
:1007C00053465A46084313D0114653EA010019D044
:1007D000C8F140025046FFF7A5FC05460E465046BC
:1007E00059464246FFF771FF084305D0012004E057
:1007F00020463946BDE8F08D0020054346EAE07604
:100800002C4337430A986305E40AA0EB0800002252
:10081000FD0A44EA47540A3002D500200146E9E7C0
:10082000010510196941DDE9084500196941BDE874
:10083000F04DA2E72DE9F04D81EA030404F0004BEE
:1008400021F0004514464FF0000A23F0004150EA21
:10085000050220D054EA01021DD0C5F30A57024612
:10086000C5F31303C1F31300C1F30A5640F4801516
:1008700043F48013A7EB0608101BD64608F2FD3898
:1008800073EB050002D308F1010801E092185B4107
:10089000B8F1000F03DA00200146BDE8F08D00201A
:1008A0004FF48011064684460EE0171B73EB0507D4
:1008B00005D3121B63EB050306434CEA010C490800
:1008C0004FEA300092185B4150EA0107EDD152EA3D
:1008D000030012D082EA040083EA0501084305D030
:1008E000101BAB4106D20122002306E000224FF08C
:1008F000004302E06FF0010253101AEB06004CEBCC
:10090000085110EB0A0041EB0B01BDE8F04DFFF779
:1009100034BFC1F30A52C1F3130140F2FF3341F473
:1009200080119A4202DA00200146704740F23343B8
:100930009A42A2F2334202DC5242FFF7F3BBFFF7C6
:10094000C4BE000030B5041E71F1000404DB4FF09A
:100950000044404264EB0101141E73F1000405DB06
:100960001C464FF00043524263EB0403994208BF18
:10097000904230BD064C074D06E0E06840F00103B0
:1009800094E8070098471034AC42F6D3FFF7B2FB67
:10099000D4460008F446000870B58C1810F8015BC6
:1009A00015F0070301D110F8013B2A1106D110F808
:1009B000012B03E010F8016B01F8016B5B1EF9D10C
:1009C0002B0705D40023521E0DD401F8013BFAE792
:1009D00010F8013BCB1A921C03E013F8015B01F8FD
:1009E000015B521EF9D5A142D8D3002070BD000092
:1009F00038B5044601680F48814209D10868C043F0
:100A0000C00605D40868486800900B4802F01CFC3A
:100A10000A49206888420CD10168C943C90608D434
:100A2000016840680090BDE838400348483002F053
:100A30000BBC38BD003801400C04002000480040C9
:100A4000FEE70000014800F0B7B80000E004002015
:100A5000014800F0B1B800009C04002030B590F8C7
:100A600040500124AC40C56B6C600468636043680F
:100A7000102B036803D099600068C26030BD9A6093
:100A80000068C16030BD000010B5044600680E4922
:100A9000884208D1C16841F01001C16032220B497F
:100AA000204601F001FB0A49206888420BD1C16849
:100AB00041F01001C160054920463222BDE81040D6
:100AC000643101F0F1BA10BD003801404403002048
:100AD00000480040704772B6FEE710B590F821104C
:100AE0000022022905D00421816380F82020012002
:100AF00010BD01680B6823F00E030B6001680B68E2
:100B000023F001030B6090F84030C46B012101FA1F
:100B100003F3636080F8211080F82020104610BD98
:100B200010B590F821100024022903D0042181631C
:100B300001243DE001680A6822F00E020A600168A3
:100B40000A6822F001020A601A4A0168914201D142
:100B5000012121E0174A1432914201D110211BE0FA
:100B6000144A2832914201D1891515E0114A3C32CC
:100B7000914201D189140FE00E4A5032914202D1C4
:100B80004FF4803108E00B4A6432914202D14FF4B5
:100B9000801101E04FF08071064A083A516001214E
:100BA00080F82110002180F82010416B01B18847A6
:100BB000204610BD080002402DE9F05FC16B0C68B3
:100BC00001680B68D0F840C0042202FA0CF2494DCB
:100BD000DFF824A1494E4A4FDFF828B1DFF828E1B9
:100BE00022422CD05A072AD50A68920603D40A68F2
:100BF00022F004020A600168A94201D1042219E02E
:100C0000514501D1402215E0B14202D14FF480623A
:100C100010E0B94202D14FF480420BE0594502D1B5
:100C20004FF4802206E0714502D14FF4800201E0CA
:100C30004FF080622F4908394A60C16A3BE04FF0AB
:100C4000020808FA0CF818EA040F4FF000094FF0F8
:100C5000010235D05FEA837832D50B689B0605D454
:100C60000B6823F00A030B6080F821200168A94279
:100C700001D1022219E0514501D1202215E0B142F3
:100C800002D14FF4007210E0B94202D14FF4005289
:100C90000BE0594502D14FF4003206E0714502D114
:100CA0004FF4001201E04FF00072124908394A6017
:100CB00080F82090816A00291AD0BDE8F05F0847CB
:100CC000082505FA0CF5254212D01B0710D50B6834
:100CD00023F00E030B6090F84010C36B02FA01F191
:100CE0005960826380F8212080F82090016BE2E750
:100CF000BDE8F09F080002401C00024030000240A6
:100D000044000240580002406C00024030B528B355
:100D100008C8134914221944B1FBF2F18900C163D8
:100D200010498163022141771A6843F6F0718A43C2
:100D3000D0E900142143D0E902452C432143046942
:100D400021434469214384692143114319600021EF
:100D50004163012242770177084630BD012030BD52
:100D6000F8FFFDBF0000024070B5044690F8200077
:100D7000002501280CD0012084F8200094F821607F
:100D80000020012E06D084F820000225284670BDE0
:100D9000022070BD022684F82160A06320680668E6
:100DA00026F0010606602046FFF758FEE06A00289C
:100DB0002068016802D041F00E0106E021F0040134
:100DC00001602068016841F00A0101602068016843
:100DD00041F001010160D9E770B5044600F004F963
:100DE0000546601C02D004480078044400F0FCF87A
:100DF000401BA042FAD370BD480100202DE9F84FF6
:100E0000DFF8B8910024A9F1040B23460F2709F15C
:100E1000040AABF1040EC9E00125A5402A40AA420C
:100E20007DD1674ED1F804C0ACEB0608B44532D092
:100E300014DCBCF1030F3AD009DCBCF1000F2AD05E
:100E4000BCF1010F1CD0BCF1020F31D11DE0BCF18F
:100E5000110F17D0BCF1120F2AD119E0B8F5881F75
:100E600019D006DCB8F5803F15D0B8F5801F1FD12A
:100E700011E0B8F5001F0ED0B8F5041F18D10AE034
:100E8000CB6815E0CB681B1D12E0CB6808330FE080
:100E9000CB680C330CE08B682BB1012B4FF00803AF
:100EA00003D0456104E0042302E0056100E0002373
:100EB000FF2A01D8064601E000F104064FEA840546
:100EC00001D9A5F12005D6F8008007FA05FC28EA2B
:100ED0000C0803FA05F548EA0508C6F800804D68D5
:100EE000ED0062D5374DAE6946F00106AE61AD69E1
:100EF00024F0030605F001050095334D06EB050CC3
:100F0000DCF80850A607360F07FA06F825EA0805A8
:100F1000DFF8B880404503D14FF0000817E044E007
:100F2000DFF8AC80404502D14FF001080FE0DFF858
:100F3000A480404502D14FF0020808E0DFF8988015
:100F4000404502D14FF0030801E04FF0040808FAD1
:100F500006F848EA0508CCF808804D68D9F8006022
:100F6000ED024D4601D5164300E096432E604D68D4
:100F7000DAF80060AD02554601D5164300E096430D
:100F80002E604D68DBF80060AD035D4601D5164369
:100F900000E096432E604D68DEF80060ED03754674
:100FA00001D5164300E096432E60641C0D682A4666
:100FB000E5407FF431AFBDE8F88F00000804014040
:100FC0000000111000100240000001400008014024
:100FD000000C014000100140001401400AB1016101
:100FE00070470904FBE70000014880687047000073
:100FF00048010020024881680278114481607047EE
:1010000048010020074810B5016841F01001016057
:10101000032000F075F80F2000F006F800F024F827
:10102000002010BD0020024070B50D4D04464FF465
:101030007A712878B1FBF0F00A490968B1FBF0F049
:1010400000F0DCFA48B9102C07D200222146501ECD
:1010500000F036F800206C6070BD012070BD00000B
:1010600048010020540100200C4808B5816941F076
:1010700001018161816901F001010091C16941F0C3
:101080008051C161C06900F08050009004484168FF
:1010900021F0E06141F00071416008BD00100240A4
:1010A00000000140002809DB00F01F0201219140EF
:1010B0004009800000F1E020C0F8001170470000F6
:1010C000F0B40E4B1B680C46C3F30223C3F10705B3
:1010D000042D00D90425191D072901D2002300E0A1
:1010E000DB1E012606FA05F1491E214099409E406B
:1010F000761E16403143F0BC02F06EB90CED00E0F4
:10110000064900F0070208684FF6FF03184040EA5E
:101110000220034A10430860704700000CED00E015
:101120000000FA052DE9F0470F46050061D0434E57
:10113000306800F00700B84209D2306820F007009C
:1011400038433060306800F00700B84251D1286859
:101150003B4C810712D5400703D5606840F4E0603E
:1011600060602878000703D5606840F460506060D4
:101170006068A96820F0F000084360602878C00724
:1011800028D06868012810D02168022810D089076B
:1011900000292EDA616821F0030101436160FFF745
:1011A00023FF804641F288390DE021688903EFE78B
:1011B0008901EDE7FFF718FFA0EB0801494502D9C7
:1011C0000320BDE8F0876068696800F00C00B0EBB0
:1011D000810FEFD1306800F00700B8420BD93068BA
:1011E00020F0070038433060306800F00700B84254
:1011F00001D00120E5E72878400705D56068E96857
:1012000020F4E060084360602878000706D5606835
:10121000296920F4605040EAC100606000F038F8AD
:101220006168084AC1F30311515CC840064908606F
:1012300006480068FFF7F8FE0020C2E700200240E1
:1012400000100240BA460008540100204C01002062
:101250000448054900684968044AC1F30221515C09
:10126000C84070475401002000100240CA460008E0
:101270000448054900684968044AC1F3C221515C29
:10128000C84070475401002000100240CA460008C0
:101290000E4A51680E4801F00C03042B11D0082BA4
:1012A0000FD10C48C1F38343C903C05C0AD5516810
:1012B000084AC1F34041921E515C054A5043B0FBBD
:1012C000F1F07047044948437047000000100240A5
:1012D00000127A00AA46000800093D002DE9F84FE7
:1012E000040070D02078C04DC00749D06868C0F3B2
:1012F0008100012807D06868C0F38100022809D165
:101300006868C00306D52868800339D5606800285E
:10131000E7D035E06068B0F5803F0BD010B1B0F594
:10132000A02F11D0286820F480302860286820F48D
:10133000802002E0286840F480302860606890B126
:10134000FFF752FE06460AE0286840F48020286035
:10135000F0E700BFFFF748FE801B642873D82868B9
:101360008003F7D50CE0FFF73FFE064605E000BF1F
:10137000FFF73AFE801B6428F0D828688003F7D472
:1013800020789A4E80074FF001094FF0000839D5B8
:10139000686810F00C0F07D06868C0F3810002285D
:1013A00009D16868C00306D42868800714D520696D
:1013B000012808D110E02069B0B1C6F80090FFF70D
:1013C00013FE074605E00AE1FFF70EFEC01B0228E8
:1013D000C4D828688007F7D52868616920F0F8002C
:1013E00040EAC10028600DE0C6F80080FFF7FCFD70
:1013F000074604E0FFF7F8FDC01B022823D8286841
:101400008007F7D4207800072CD57948A169D9B195
:10141000C0F80090FFF7E8FD074604E0FFF7E4FDA1
:10142000C01B02280FD8686A8007F7D571484FF4AF
:10143000FA510068B0FBF1F0009000BF0098411E27
:101440000091FAD20EE080E0C0F80080FFF7CCFDFA
:10145000074604E0FFF7C8FDC01B022875D8686A7C
:101460008007F7D42078400760D5E8690027C000DE
:1014700008D4E86940F08050E861E869012700F08D
:10148000805000905C480168C90513D40168834608
:1014900041F480710160FFF7A7FD824606E000BFBE
:1014A000FFF7A2FDA0EB0A0064284ED8DBF800008D
:1014B000C005F5D5E06801280AD008B1052813D089
:1014C000286A20F001002862286A20F0040002E067
:1014D000286A40F001002862E06841F2883B98B138
:1014E000FFF782FD82460BE0286A40F00400286284
:1014F000EEE700BFFFF778FDA0EB0A0159455AD887
:10150000286A8007F6D50CE0FFF76EFD824605E0FD
:10151000FFF76AFDA0EB0A0159454CD8286A8007FD
:10152000F6D41FB1E86920F08050E861E06988B323
:101530006968C1F38101022944D00228C6F860809D
:1015400004D0FFF751FD044638E034E0FFF74CFDCE
:10155000074604E0FFF748FDC01B02282BD8286887
:101560008001F7D4206AB0F5803F05D16868A16892
:1015700020F4003008436860D4E908010843696832
:1015800021F4741108436860C6F86090FFF72CFDE1
:10159000044606E025E000BFFFF726FD001B0228F9
:1015A00009D828688001F7D51BE000BFFFF71CFDB4
:1015B000001B022802D90320BDE8F88F28688001AB
:1015C000F4D40EE00128F7D06868226A00F4803174
:1015D000914204D1616A00F47010884201D0012068
:1015E000EAE70020E8E70000001002400000424265
:1015F00080044242540100200070004010B5401E9B
:10160000B0F1807F01D3012010BD4FF0E024606174
:101610000F21601701F0E0FE0020A061072020618B
:10162000002010BD7047704770B590F83C20012A2B
:1016300026D0012480F83C40022280F83D20036837
:101640005A689D6822F070060A6832435A600D4B52
:1016500002689A4208D0B2F1804F05D00A4B9A42F4
:1016600002D00A4B9A4204D1496825F080031943FD
:10167000916080F83D40002180F83C10084670BD24
:10168000022070BD002C0140000400400008004012
:1016900010B5040003D094F83D0010B107E001201C
:1016A00010BD002084F83C00204600F01FF8022006
:1016B00084F83D00211D206801F09EFA012084F885
:1016C000460084F83E0084F83F0084F8400084F827
:1016D000410084F8420084F8430084F8440084F810
:1016E000450084F83D00002010BD000008B50068EA
:1016F0000B49884212D10B48C16941F00401C16114
:10170000C069002200F00400009011461E20FFF77F
:10171000D7FCBDE808401E20FFF7C4BC08BD000090
:10172000000800400010024070B5044690F83C00EC
:101730000025012817D0012684F83C60022084F897
:101740003D002068826822F0770222F47F428260A6
:101750000868502838D00DDC20284FD005DC90B325
:10176000102811D14AE0022070BD302846D0402810
:101770000AD13BE060282FD070280DD0B0F5805FF3
:1017800003D0B0F5005F12D0012584F83D60002041
:1017900084F83C00284670BDCB68D1E9012120685F
:1017A00001F06DFA2068816841F0770109E0CB68AB
:1017B000D1E90121206801F062FA2068816841F4D2
:1017C00080418160E1E719E0CA684968206801F05A
:1017D0000BFB5021206806E0CA684968206801F0C8
:1017E00014FB6021206801F054FACEE7CA6849680A
:1017F000206801F0F9FA40212068F4E722680146E8
:101800001046F0E7704770B50446006801694FF074
:101810000005C943890715D4C168C943890711D494
:10182000E91E016101202077206880698007204639
:1018300002D0FFF7E7FF04E000F0CAF8204600F00E
:101840008BF9257720680169C943490717D4C16816
:10185000C943490713D46FF00401016102202077C6
:101860002068806910F4407F204602D0FFF7CAFF4D
:1018700004E000F0ADF8204600F06EF9257720680E
:101880000169C943090716D4C168C943090712D4BD
:101890006FF008010161042020772068C06980078B
:1018A000204602D0FFF7AEFF04E000F091F820469A
:1018B00000F052F9257720680169C943C90617D499
:1018C000C168C943C90613D46FF010010161082033
:1018D00020772068C06910F4407F204602D0FFF7CF
:1018E00091FF04E000F074F8204600F035F9257708
:1018F00020680169C943C90708D1C168C943C9073C
:1019000004D1891E0161204600F076F92068016942
:10191000C943090609D4C168C943090605D46FF053
:10192000800101612046FFF77DFE20680169C943FF
:10193000490609D4C168C943490605D46FF040017E
:101940000161204600F06EF920680169C9438906EB
:101950000BD4C168C943890607D46FF02001016127
:101960002046BDE87040FFF75EBE70BD10B586B082
:101970000021009101910291039103681149022213
:101980001148B3F1804F13D0104CA3420ED18B6994
:1019900043F004038B61896901F004010491C021C3
:1019A000CDE9001269460392FFF728FA06B010BD90
:1019B0008B6943F004038B61896901F00401049190
:1019C0000121EDE700100240000801400004004042
:1019D000704770B5044690F83C0000260D4601287B
:1019E0000FD0012084F83C006AB1042A1DD0082AD7
:1019F0002FD00C2A3FD00126002084F83C0030462E
:101A000070BD022070BD206801F04CF9206881692A
:101A100041F0080181612068816921F00401816140
:101A2000206881692A69114311E0206801F062F998
:101A30002068816941F4006181612068816921F435
:101A400080618161206881692A6941EA022181619E
:101A5000D2E7206801F07AF92068C16941F00801F5
:101A6000C1612068C16921F00401C1612068C169B8
:101A70002A69114311E0206801F094F92068C169D6
:101A800041F40061C1612068C16921F48061C161D4
:101A90002068C1692A6941EA0221C161ACE710B539
:101AA000040003D094F83D0010B107E0012010BD00
:101AB000002084F83C00204600F01EF8022084F844
:101AC0003D00211D206801F097F8012084F84600B0
:101AD00084F83E0084F83F0084F8400084F8410018
:101AE00084F8420084F8430084F8440084F84500F8
:101AF00084F83D00002010BD08B501681448B1F11C
:101B0000804F14D0134A914220D1C16941F00201A3
:101B1000C161C069002200F00200009011461D2042
:101B2000FFF7CEFA1D20BDE80840FFF7BBBAC16938
:101B300041F00101C161C069002200F00100009084
:101B400011461C20FFF7BCFA1C20ECE708BD000082
:101B500000100240000400407047000010B5044629
:101B6000022249B104290ED0082913D094F841006B
:101B7000012816D0012010BD94F83E000128F9D1AB
:101B800084F83E200FE094F83F000128F2D184F859
:101B90003F2008E094F840000128EBD184F8402071
:101BA00001E084F841200122206801F05BF80F4930
:101BB0002068884203D1426C42F4004242642068AB
:101BC000884208D0B0F1804F05D00949884202D040
:101BD0000849884204D1816801F00701062903D031
:101BE000016841F001010160002010BD002C01409E
:101BF000000400400008004010B5044606A001F0B3
:101C0000DBFB064920680968884204D1BDE8104022
:101C100003A001F0D1BB10BD32000000FC02002087
:101C2000310000007047704710B5044600684069F5
:101C300094F84110C0F3C010212911D180B120685F
:101C4000143050E8001F21F0800140E80012002A03
:101C5000F5D1A06B08B1FEF740FF204601F08DF9E9
:101C60002068406994F84210C0F38010222911D1F5
:101C700080B12068143050E8001F21F0400140E896
:101C80000012002AF5D1E06B08B1FEF726FF2046CE
:101C900001F04CF9002010BD70470000F8B5016854
:101CA00004460868CA684B6910F00F0F4FF0000532
:101CB00059D003F0010602F49077374365D0C1078D
:101CC00005D0D10503D5616C41F001016164410784
:101CD00005D5D90703D0616C41F002016164810729
:101CE00005D5D90703D0616C41F004016164010797
:101CF00007D502F02001314303D0616C41F00801A7
:101D00006164616C00293AD0800604D5900602D542
:101D1000204601F040F920684069616CC0F38010F2
:101D2000090700D460B3204601F000F9206840693B
:101D3000400621D52068143050E8001F21F04001F2
:101D400040E80012002AF5D1E06BA8B16D4941636B
:101D5000E06BFEF7E5FE002811D0E06B416B01B0AF
:101D6000BDE8F040084783060FD593060DD5204601
:101D7000BDE8F84001F00FB92046FFF78DFFF8BD30
:101D80002046FFF789FF6564F8BD266B2023012EEE
:101D90007CD1C6067AD5D60678D508684868009002
:101DA00048694FF00206400640D5E16B086840687C
:101DB0000004000CE8D0A28D8242E5D9E085886954
:101DC00020282DD020680C3050E8001F21F48071AD
:101DD00040E80012002AF5D12068143050E8001FB6
:101DE00021F0010140E80012002AF5D120681430EA
:101DF00050E8001F21F0400140E80012002AF5D110
:101E000084F84230256320680C3050E8001F21F030
:101E1000100140E80012002AF5D1E06BFEF75DFEEC
:101E20006663A08DE18D401A81B22AE0A08DE18D1C
:101E3000401A81B2E08D0028A6D00029A4D02268E3
:101E40000C3252E8000F20F4907042E80007002F97
:101E5000F5D12068143050E8002F22F0010240E84C
:101E60000027002FF5D184F84230256320680C301C
:101E700050E8002F22F0100240E80023002BF5D19B
:101E800066632046FFF7CFFEF8BDFFE705062BD5BA
:101E9000150629D594F841002128F5D1A068B0F5A0
:101EA000805F01D12069B0B1206A411C21622168A4
:101EB00000784860E08C401E0004000CE084E3D110
:101EC0002068C16821F08001C1602068C16841F0CC
:101ED0004001C160D8E7206A0088C0F3080048606C
:101EE000206A801C2062E5E74006CDD55006CBD5A0
:101EF000CA68204622F04002CA6084F8413000F0EF
:101F000030F9C1E72F2E000870B5040004D094F812
:101F10004100002510B106E0012070BD84F840505A
:101F2000204600F023F8242084F841002068C1688E
:101F300021F40051C160204601F08EF8206801694B
:101F400021F4904101612068416921F02A01416139
:101F50002068C16841F40051C1606564202084F8A4
:101F6000410084F842006563002070BD2DE9F04116
:101F700086B00024009401940294039406460368FA
:101F80004348DFF808C10221032205158027634575
:101F900039D1836943F480438361836903F48043C7
:101FA0000493836943F0040383618069DFF8E4806C
:101FB00000F0040004900802CDE900010392694694
:101FC0004046FEF71BFFCDE90054694640460294A7
:101FD000FEF714FF314D3048C5E90004C5E902475A
:101FE0002C616C61AC612846EC61FEF78FFE08B194
:101FF000FEF771FDF5630022114625206E62FFF7A2
:102000005FF825203DE0DFF898C063453BD1C36908
:1020100043F48023C361C36903F480230493836979
:1020200043F0080383618069CDE9005100F00800A6
:10203000CDE903201B4D69462846FEF7DFFEE81474
:10204000CDE90004694628460294FEF7D7FE134DF9
:10205000114844352838C5E90004C5E902472C6118
:102060006C61AC612846EC61FEF750FE08B1FEF7EA
:1020700032FDF5630022114627206E62FFF720F83B
:102080002720FFF70FF806B0BDE8F08100380140C7
:102090000010024000080140580002409C0400204B
:1020A00000480040000C014090F84230202B01D045
:1020B0000220704721B11AB10023036301F028B850
:1020C00001207047704770472DE9F843044690F8A7
:1020D00041001F4616460D46202802D00220BDE8CA
:1020E000F8837DB176B100206064212084F841003E
:1020F000FEF77AFFA6848046E684A068B0F5805F8C
:1021000002D003E00120EAE7206910B12E46002545
:102110000EE000260CE08021204601F041F8A0B935
:10212000AEB116F8010B21684860E08C401EE084D7
:10213000E08C43464FF0000200970028EBD14FF0AF
:102140004001204601F02CF830B10320C7E735F8F4
:10215000020BC0F30800E6E7202084F841000020CD
:10216000BDE77047FEE7000070B5064600200D464B
:102170005FF0020405EB840151F8041C45F82410BB
:10218000FEF704F8641E14F0FF04F3D10146304654
:102190002E60FDF7FBFFBDE870400149FEF780B8F7
:1021A000000040400D4808B5416941F0010141611E
:1021B0004069002200F00100009011460D20FEF75A
:1021C0007FFF0D20FEF76EFF002211460F20FEF765
:1021D00077FFBDE808400F20FEF764BF0010024003
:1021E00030B585B0002418480094019402940394FB
:1021F000816941F020018161816901F02001049130
:10220000816941F004018161816901F00401049157
:10221000816941F00801816180690C4D00F008007E
:10222000049000221E212846FEF7D8FE1E200090B2
:102230000120CDE901040220039069462846FEF7FB
:10224000DDFD05B030BD0000001002400008014077
:1022500010B58AB0002407941C2168460894FDF745
:102260008AFF17484FF0804101604721C0E90114FF
:1022700040F21F31C0E903148461FFF710FC08B17C
:10228000FEF729FC079407A90D480894FFF7CCF93D
:1022900008B1FEF720FC602000904FF44870CDE9B3
:1022A00001040022694606480494FFF792FB08B136
:1022B000FEF711FC0248FFF759FB0AB010BD000001
:1022C0006C02002010B58AB0002407941C216846D7
:1022D0000894FDF750FF1D481B4901604721C0E9E4
:1022E000011444F61F61C0E903148461FFF7D7FBB2
:1022F00008B1FEF7F0FB079407A914480894FFF70C
:1023000093F908B1FEF7E7FB6020009040F2BF6050
:10231000CDE90104002269460C480494FFF759FBFB
:1023200008B1FEF7D8FB40F2544001900422694600
:102330000648FFF74EFB08B1FEF7CDFB0348FFF759
:1023400015FB0AB010BD000000040040B4020020DC
:1023500010B586B0002417480094019402940394A9
:10236000049413490594016040F2CF21C0E901149F
:1023700042F21071C0E903148461FFF789F908B1D2
:10238000FEF7A9FB4FF48050009069460948FFF71B
:10239000CBF908B1FEF79FFB049404A90548059406
:1023A000FFF742F9002801D0FEF795FB06B010BDFB
:1023B00000080040FC0200200C4810B50A490160EA
:1023C0004FF461214160002181600C22C160C0E9AD
:1023D00004128161C161FFF797FD002803D0BDE8B9
:1023E0001040FEF778BB10BD003801400C040020FF
:1023F0000C4810B50A4901604FF4E13141600021F9
:1024000081600C22C160C0E904128161C161FFF7E3
:102410007BFD002803D0BDE81040FEF75CBB10BD7B
:102420000048004054040020FEE7FEE710B51849BC
:102430000020184AC860C1E905020861164B0B600C
:10244000C861164B4B60164B8B6048314FF07F5381
:10245000C860C1E9050208610B60C861114B4B609F
:10246000114B8B602439114CC860C1E90502086129
:102470008C604FF07E53C861C1E900304831C860BC
:10248000C1E9050208618C60C861C1E9003010BD76
:10249000DC01002000007A440000C0BF0AD723BC42
:1024A000CDCC4CBE0AD7233CCDCC4C3ECDCCCC3E83
:1024B0002DE9F04F484EDFF8248195B0454632684B
:1024C0004748D8F8001000F0BBF8A860726845488B
:1024D000696800F0B5F8E860B2684348A96800F0A0
:1024E00033FF424C6060F2684148E96800F02CFF1D
:1024F0000746404D6068FEF75DF84FF066394A4682
:102500003D4BFDF70BFFFEF768F806466060384666
:10251000FEF750F84A46394BFDF700FFFEF75DF82D
:10252000014668603648374B0022864201DD606014
:1025300002E09E4200D36260814201DD686002E0F9
:10254000994200D36A60606802F066F8686802F039
:1025500085F86868FEF72EF8834611916068FEF7EB
:1025600029F80E9089464446D8F80C00FEF722F868
:1025700082468846A068FEF71DF8174D06460F46AE
:10258000E868FEF717F8CDE90801A868FEF712F829
:10259000CDE906016068FEF70DF8CDE90401206879
:1025A000FEF708F8CDE902016868FEF703F800902D
:1025B0000C462868FDF7FEFFCDE90CA80194CDE993
:1025C0000A67CDE90F9B02460B460FA000F0F4FE10
:1025D00015B0BDE8F08F0000AC010020BC01002068
:1025E0000002002048020020DC0100203801002009
:1025F000240200204001002066663E4066E63B4023
:102600000000B44200008080252E32662C252E3238
:10261000662C252E32662C252E32662C252E32660F
:102620002C252E32662C252E32662C252E32662C39
:10263000252E31662C252E31660D0A0070470000CC
:102640002DE9F0410B460446C0681749884204DA78
:102650001649884201D80020E06011461846FDF76F
:10266000E7FD0546E06029466069FDF78FFD606182
:10267000074628462169FDF7DBFDA168FDF7DEFD71
:10268000064639466068FDF7D9FD074629462068A9
:10269000FDF7D4FD3946FDF779FD3146FDF776FDAE
:1026A0002561E061BDE8F0819A99193F9A9919BFB7
:1026B000704700002DE9F05FFE48DFF8FCA3FF49FA
:1026C00090F803C04FF0010EFD4BDFF8F893DFF8F0
:1026D000F8B3FE4AFE480668F518F64BB718DC68F2
:1026E000D0E902324068641CBCF10A0F39D2DFE83D
:1026F0000CF0050A133A7CC4FEFDBAFCF548C1E9AA
:1027000000A0F5A004E0F5480860F5484860F5A091
:10271000BDE8F05F00F050BEF34EB54218D2484518
:1027200016DA584514DD4FF07C50834210DA4FF032
:102730003F45AB420CD282420ADAAA4208D2DD48B7
:10274000322CC46004D380F804E00022C26005E0AB
:10275000D848007900287DD0012802D1DD48C1E9A0
:1027600000A0BDE8F09FE04EB54217D2484515DA0B
:10277000584513DD4FF07C55AB420FDA4FF03F4622
:10278000B3420BD2AA4209DAB24207D2C94D1E2C7B
:10279000EC6003D385F805E00024EC60D34CA7423D
:1027A0001AD2D34CA04217DAD24CA04214DD4FF01B
:1027B0007C50834210DA4FF03F44A3420CD2824255
:1027C0000ADAA24208D2BB48C268521CC2601E2A62
:1027D00002D30222427144E0B6484079002839D041
:1027E0000128BBD002283ED0BBE7BF4FBD4217D265
:1027F000484515DA584513DD4FF07C55AB420FDAEA
:102800004FF03F47BB420BD2AA4209DABA4207D285
:10281000A84D322CEC6003D385F806E00024EC6070
:10282000B54C3444B4F5001F1ED2B44CA0421BDC9E
:10283000B34CA04218DD4FF07C54A34214DA4FF0A1
:102840003F40834210D2A2420EDA82420CD2994813
:10285000C26800E048E0521CC2600A2A04D3022287
:1028600082710022C26072E092488079E0B3012850
:10287000B8D1A4480860A44876E1DFF86CC2654589
:1028800017D2484515DA584513DD4FF07C55AB4259
:102890000FDA4FF03F4843450BD2AA4209DA4245CE
:1028A00007D2844D1E2CEC6003D385F807E000248A
:1028B000EC60964C3444644520D2954CA0421DDA1D
:1028C000944CA0421ADD4FF07C54A34216DA4FF02C
:1028D0003F45AB4212D2A24210DAAA420ED2754C48
:1028E000E5686D1CE56003E035E032E19BE03AE02D
:1028F0001E2D03D30225E5710025E5607B4CA74220
:102900001AD27B4CA04217DA7A4CA04214DD4FF069
:102910007C50834210DA4FF03F44A3420CD28242F3
:102920000ADAA24208D26348C268521CC2601E2A58
:1029300002D30322C27194E75E48C07958B10128DE
:102940000DD002283FF403AF03287FF44DAF724847
:102950000860724808E172480860724804E15F4804
:1029600008605F4800E1534C524D04F12008207884
:10297000083504F138072A5C4FF07F5A58F82200D6
:10298000086057F822204A605146FDF7FFFBDFF848
:1029900040913146FDF748FEBFF426AF2078295C10
:1029A00058F821005146FDF743FC4E46D9F8001077
:1029B000FDF730FEF0D220784FF07E584146285C7B
:1029C00057F82000FDF7E2FB7168FDF72DFEE3D21A
:1029D00020784146285C57F82000FDF729FC7168F3
:1029E000FDF718FED8D2B0684FF07C518842BFF690
:1029F000FBAE4FF03F429042CED2F0688842F6DA0A
:102A00009042C9D2E068401CE060322806D32078AA
:102A1000042803D2401C20700020E06020780428A5
:102A200093D1092093E0234C224F04F1C005627832
:102A300050374FF07F5857F82200086055F8222091
:102A40004A604146FDF7A2FBDFF884903146FDF76E
:102A5000EBFDA1D26078414657F820004746FDF7CC
:102A6000E7FB4E46D9F80010FDF7D4FD94D260780C
:102A7000394655F82000FDF789FB7168FDF7D4FD54
:102A80008AD26078394655F82000FDF7D1FB71688D
:102A9000FDF7C0FD8ED22448B2688242A7DA2349EE
:102AA0008A4287D2F2688242A1DA8A428FD2E068F3
:102AB000401C3DE000000020295CAB41BC0100202F
:102AC0005B8FB6BEE17ABE41E17AAE41D6A35CBE71
:102AD000AC010020295C024230000000AE474541B5
:102AE0003333224231000000FFFF1F00FFFF0F00C1
:102AF000295C064252B8FC4199993BBE6666F0419A
:102B00006666D0416666D4416666E04151B8CABE89
:102B10003333264233331E429A99F5418FC22642FF
:102B2000A4705941E17AB64100002040000020C065
:102B3000E060052806D360781C2803D2401C607032
:102B40000020E06060781C287FF44EAE0820E07022
:102B500007E60648054AC078183252F820200A6075
:102B6000024A303252F820004860FAE5080000209E
:102B7000FEF740BA30B58FB028216846FDF7FBFA62
:102B800014210AA8FDF7F7FA01210804CDE9001085
:102B90000024029402250491CDE907504FF4E0107F
:102BA00009906846FEF79AFB08B172B6FEE70F205F
:102BB000CDE90A054FF48060CDE90C4002210AA856
:102BC0000E94FEF7AFFA002801D072B6FEE70FB000
:102BD00030BD70470148FEF716BE00006C020020B1
:102BE0000148FEF710BE0000B40200200148FEF7C5
:102BF0000ABE0000FC020020F0B50268164B174C1C
:102C0000174D4FF08047984205D0B84203D0A042FC
:102C100001D0A84203D122F070064A68324398429C
:102C200005D0B84203D0A04201D0A84203D122F47B
:102C30004074CA6822434C6922F080022243026039
:102C40008A68C2620A688262984201D10969016396
:102C500001214161F0BD0000002C01400004004052
:102C60000008004010B501F01F030121046A9940DB
:102C70008C430462016A9A401143016210BD10B591
:102C8000846842EA032224F47F440A432243826098
:102C900010BD826822F070020A4342F00701816091
:102CA0007047000030B5036A026A22F00102026236
:102CB0004268846924F073050C682C4323F00205F4
:102CC0008B682B430A4DA8420BD123F00805CB6833
:102CD00022F440722B434D6923F0040315438A69A3
:102CE0002A434260846149684163036230BD000049
:102CF000002C014030B5026A036A23F0100303621E
:102D0000436884690D6824F4E64444EA05248D6828
:102D100022F0200242EA05120B4DA8420ED1CD68E6
:102D200022F0800242EA05124D6923F4406343EA2F
:102D300085038D6922F0400243EA85034360846184
:102D400049688163026230BD002C014030B5036ADE
:102D5000026A22F4807202624268C46923F400733A
:102D600024F073050C682C438D6843EA05230C4D51
:102D7000A8420ED1CD6823F4006343EA05234D69D0
:102D800022F4405242EA05128D6923F4806342EA3C
:102D900005124260C4614968C163036230BD00002E
:102DA000002C014030B5046A026A22F480520262AB
:102DB0004268C3690D6823F4E64343EA05238D683E
:102DC00024F4005444EA0534064DA84204D14D6968
:102DD00022F4804242EA85124260C361496801647C
:102DE000046230BD002C014010B5036A046A24F06F
:102DF00001040462846924F0F00444EA021423F01C
:102E00000A020A438461026210BD10B5036A046AB3
:102E100024F010040462846923F0A00324F47044B5
:102E200044EA023243EA01118261016210BD10B529
:102E3000406A0021C185C184FEF72EFF10BD70B528
:102E4000446A2068406994F84110C0F3C01000251E
:102E5000212904D118B1E584204600F08EF82068BD
:102E6000406994F84210C0F38010222904D118B1AF
:102E7000E585204600F05AF8606C40F01000606470
:102E80002046FEF709FF70BD10B50146406A09688B
:102E900009684FF0000289062ED4C28501680C3102
:102EA00051E8003F23F4807341E80034002CF5D151
:102EB0000168143151E8003F23F0010341E8003478
:102EC000002CF5D10168143151E8003F23F0400394
:102ED00041E80034002CF5D1202180F84210016B2C
:102EE000012909D101680C3151E8003F23F010039A
:102EF00041E80034002CF5D14263016B012902D076
:102F0000FFF7E0F810BD818DFEF78DFE10BD10B506
:102F1000406A01214163016B012902D0FFF7D3F818
:102F200010BD818D4908FEF77EFE10BD01680C3191
:102F300051E8002F22F4907241E80023002BF5D1D4
:102F40000168143151E8002F22F0010241E800230A
:102F5000002BF5D1016B012909D101680C3151E831
:102F6000002F22F0100241E80023002BF5D1202190
:102F700080F8421000210163704701680C3151E86C
:102F8000002F22F0C00241E80023002BF5D12021C0
:102F900080F84110704708B590F84210222901D0FE
:102FA000022008BD82684FF480539A4201D1016922
:102FB00021B1816A9A421BD04AB10AE00268816A53
:102FC0005268C2F308020A80816A891C08E002691B
:102FD00072B10268526802F07F020A70816A491C6D
:102FE0008162C18D491E0904090CC18503D01BE013
:102FF00002685268F1E70168CA6822F02002CA60DC
:103000000168CA6822F48072CA6001684A6922F0C5
:1030100001024A61202180F8421000214163026BC5
:10302000012A03D0FFF74EF8002008BD01630168B4
:103030000C3151E8002F22F0100241E80023002B50
:10304000F5D101680A68D20602D50A68496800917C
:10305000818DFEF7E8FDE7E770B504460068016979
:10306000E26821F44051114301612169A0680843DD
:10307000616908432168CA6841F20C639A430243BC
:10308000CA6020684169A26921F44071114341611D
:103090001E492068884202D1FEF7EAF801E0FEF7F7
:1030A000D7F800EBC00101EB0012606864218000DA
:1030B000B2FBF0F3B3FBF1F36FF018067343B2FB0E
:1030C000F0F5B2FBF0F605EB8305322303EB0515B3
:1030D000B5FBF1F5B6FBF1F605F0F00505EB0615CD
:1030E000B2FBF0F6B2FBF0F0B0FBF1F06FF01802BB
:1030F000504306EB800003EB0010B0FBF1F02168B9
:1031000000F00F002844886070BD000000380140C6
:1031100038B581620446828500201346606422220D
:1031200084F84220E56B1B4AAA62E56B1A4AEA6200
:10313000E56B1A4A2A63E26B50630A462168E06B2A
:10314000091DFDF711FE20680168406800902069A4
:1031500048B120680C3050E8001F41F4807140E80D
:103160000012002AF5D12068143050E8001F41F009
:10317000010140E80012002AF5D12068143050E81F
:10318000001F41F0400140E80012002AF5D1002064
:1031900038BD0000892E00080F2F00083F2E0008C0
:1031A0002DE9F041984617460E460446069D27E055
:1031B000681C25D02DB1FDF717FFA0EB0800A84231
:1031C0001ED920680C3050E8001F21F4D07140E86F
:1031D0000012002AF5D12068143050E8001F21F0B9
:1031E000010140E80012002AF5D1202084F84100B6
:1031F00084F84200002084F840000320BDE8F081FC
:103200002068006836EA000004D00020B842CFD021
:103210000020F3E70120F9E710B50448FEF73EFD72
:10322000BDE810400148FDF7E3BB00000C0400209E
:1032300010B50448FEF732FDBDE810400148FDF727
:10324000D7BB00005404002070B504462A4900682A
:103250004E15884221D12046FEF7E6FC274800683B
:1032600040683346C0F13200C5B22A4624492046A0
:10327000FEF72AFF2249322201F13200FCF762FFF9
:103280001F48323000F022FD29461D48FCF773FF2D
:1032900032221B492046FEF707FF1A492068884260
:1032A00029D12046FEF7C0FC14484430006840682D
:1032B0001349C0F13200C5B2643133462A4601F1E8
:1032C0006400FEF701FF0E493222643101F1320041
:1032D000FCF738FF0A48963000F044FE08482946BB
:1032E0006430FCF748FF2046BDE8704004493222B4
:1032F0006431FEF7D9BE70BD003801409C04002047
:103300004403002000480040FEE7000070B5064678
:1033100000200D465FF0060405EB840151F8041C03
:1033200045F82410FCF732FF641E14F0FF04F3D1BB
:10333000014630462E60FCF729FFBDE87040014988
:10334000FCF7AEBF0000E0402DE9F0410B4604461B
:1033500011461846FCF76CFF1549E060884204DA14
:103360001449884201D80020E0600546294660697A
:10337000FCF70CFF6061074628462169FCF758FFFF
:10338000A168FCF75BFF064639466068FCF756FF0C
:10339000074629462068FCF751FF3946FCF7F6FE40
:1033A0003146FCF7F3FE2561E061BDE8F0810000E5
:1033B0009A99193F9A9919BF0FB4054B10B503A9F3
:1033C000044A029800F0EAF810BC5DF814FB000013
:1033D0006D450008580100200907090E002804DB8C
:1033E00000F1E02080F80014704700F00F0000F1B9
:1033F000E02080F8141D704702E008C8121F08C1C1
:10340000002AFAD170477047002001E001C1121F65
:10341000002AFBD1704700002DE9FF5F82B0002138
:10342000DDE90430020DDDF840B0034318D044F666
:103430001050A2F2FF3242431514119801281FD0F8
:10344000A5EB0B00401C5FEA000A4FF000064E4F50
:10345000DFF83891B046504615D5CAF1000413E0A4
:10346000119801244AA3012801D16FEA0B010298A7
:10347000119AC0E90031C0E9024206B0BDE8F09FF0
:10348000CBF10000DFE704460021404A491842EB37
:103490000450CDE9001012E0E00707D032463B4669
:1034A00040464946FCF7E1FF8046894632463B46A6
:1034B00010461946FCF7D9FF06460F466410002C4B
:1034C000EAD1DDE90401DDE90023BAF1000F06DAF3
:1034D000FCF7CBFF42464B46FCF7C7FF05E0FDF784
:1034E000A9F942464B46FDF7A5F904460E460022CF
:1034F000284BFDF727FA03D84FF0FF30014607E0CD
:103500000022254B20463146FCF708FFFDF701FA63
:10351000102409E0002C0ADB0A220023FDF7A4F89E
:10352000039B30321A55641E50EA0102F2D1641C2A
:10353000039AC4F111031444119A012A03D0012201
:1035400008430DD10AE0084304D000204FF0110BCE
:10355000119072E7A3EB0B056D1E0DE05B4504DDDA
:103560004FF0000205F1010504E003DA4FF000021C
:10357000A5F10105002AECD002981199C0E90231A9
:10358000C0E9004579E70000000014400000F03F6A
:10359000300000000000F0430000E03F2DE9FF4F45
:1035A00095B09B468946064600250FE2252877D12F
:1035B00000242746F84A0121059400E0044316F848
:1035C000013F203B01FA03F01042F7D130782A285E
:1035D00011D06FF02F033078A0F13002092A16D8ED
:1035E000059A44F0020402EB820203EB420210440B
:1035F000761C0590EFE759F8042B0592002A03DAB0
:10360000504244F40054059044F00204761C307893
:103610002E2816D116F8010F44F004042A280DD0E4
:103620006FF02F023078A0F13003092B09D807EB97
:10363000870302EB4303C718761CF3E759F8047BB2
:10364000761C30786C280FD006DC4C2817D0682800
:103650000DD06A2814D104E0742810D07A280FD134
:103660000DE044F400140AE044F4801401E044F452
:1036700040147278824202D104F58014761C761CC4
:10368000307866280BD013DC582877D009DC002866
:1036900075D04528F6D04628F4D047281AD19DE1A8
:1036A00018E0632835D0642879D0652812D195E1D7
:1036B000702873D008DC6728F1D069286FD06E2895
:1036C0000DD06F2806D1B5E073282CD0752875D0A1
:1036D000782874D05A46179990476D1C75E1C4F349
:1036E0000250022809D003280DD0D9F80010042870
:1036F0000DD00D6009F1040967E1D9F80010EA174F
:10370000C1E90052F6E7D9F800100D80F2E70D701C
:10371000F0E719F8041B8DF8001000208DF8010067
:10372000EA46012003E059F804AB4FF0FF3061078F
:103730004FF0000102D40DE008F101018846B942C2
:103740000FDA8045F8DB1AF808100029F4D108E0F8
:1037500008F1010188468142FADB1AF808100029B5
:10376000F6D105985B46A0EB080721463846179A24
:1037700000F094FA284400EB080507E04DE029E149
:103780000DE01AF8010B5A4617999047B8F1010855
:10379000F7D25B4621463846179A13E142E00A22E7
:1037A0000092C4F302524FF0000A022A08D059F8DE
:1037B00004CB032A4FEAEC710AD00DE029E02AE09D
:1037C00009F1070121F00702F2E802C1914609E080
:1037D0000FFA8CFC4FEAEC71042A03D14FFA8CFCEF
:1037E0004FEAEC71002907DA0A460021DCF1000CEF
:1037F00061EB02012D2202E0220504D52B228DF877
:103800000420012203E0E20701D02022F7E79046DE
:1038100059E00A2102E010220DE010214FF0000AC9
:1038200000910BE010224FF0000A44F00404082736
:10383000009203E008224FF0000A0092C4F3025203
:10384000022A05D059F804CB0021032A08D009E048
:1038500009F1070121F00702F2E802C1914605E0F3
:103860001FFA8CFC042A01D10CF0FF0C4FF0000869
:10387000220728D5702806D0009B83F0100353EA56
:103880000A0305D00EE040228DF80420012208E052
:103890005CEA010206D030228DF804208DF8050084
:1038A00002229046009B83F0080353EA0A030AD1E0
:1038B0005CEA010201D1620705D530228DF80420AF
:1038C0004FF001087F1E582804D034A003900EA8A2
:1038D00002900DE036A0F9E753466046009AFCF7E7
:1038E000C3FE84460398825C0298401E02900270D8
:1038F0005CEA0100F0D1029806A9081A00F1200A3A
:10390000600702D524F4803400E00127574502DD2A
:10391000A7EB0A0000E0002000EB0A0100900598E8
:103920004144401A0590E00306D45B462146179AAD
:10393000059800F0B3F90544002706E001A85A46AF
:10394000C05D179990476D1C7F1C4745F6DBE0036F
:103950000CD55B462146179A059800F09FF905445F
:1039600004E030205A46179990476D1C0099481E74
:1039700000900029F5DC08E0029802995A46007888
:10398000491C0291179990476D1CBAF10001AAF1E8
:10399000010AF1DC65E10000092801003031323311
:1039A000343536373839616263646566000000007B
:1039B0003031323334353637383941424344454665
:1039C0000000000000F058F90544761C307800280B
:1039D0007FF4ECAD19B02846BDE8F08F620700D443
:1039E000062709F1070222F0070CFCE80223E14652
:1039F00003F000485FEA080C02D00FF2702C0DE0D3
:103A00005FEA045C02D50FF2682C07E05FEAC47C31
:103A100002D00FF2602C01E0AFF2700C4FF0FF38D3
:103A200023F00043CDF850C065280CD006DC4528B3
:103A300009D046281DD047283DD13DE0662818D042
:103A400067287ED138E00021112F01DB112000E032
:103A5000781CCDE9000106A90EA8FFF7DDFCDDE921
:103A60000F010E9A03910021009207F1010A0491BF
:103A70004DE04FF000400097CDE9011006A90EA8D7
:103A8000FFF7CAFCDDE90F0203920E9B1199002299
:103A9000DDF80CA00093049211B9791C00EB010A27
:103AA000B7EB0A0004D4C0F1FF3007F1010A04901B
:103AB000AAEB0700019044E0012F00DA0127002162
:103AC000112F01DD112000E03846CDE9000106A9E3
:103AD0000EA8FFF7A1FCDDE90F010E9A039100216A
:103AE00004910092BA4621070CD40399514500DA9B
:103AF0008A46BAF1010F05DD009AAAF10101515C75
:103B0000302908D0B84202DA10F1040F06DA012198
:103B1000CDE9011015E0AAF10101E9E7002805DC73
:103B2000049901440491AAEB000102E0411C5145B3
:103B300000DD8A460499401A401C01904FF0004075
:103B40000290200704D40198504501DBCDF8048091
:103B500000208DF84F0002980DF14F07B0F1004F93
:103B600025D02B200E9002984FF0020800280CDA86
:103B7000404202902D200E9007E00A210298FCF7A7
:103B80005DFD3031029007F8011DB8F10001A8F188
:103B90000108F2DC02980028EFD1791E0E98087017
:103BA000307800F0200040F0450007F8020D12A820
:103BB000C01B00F107081498007800B1012000EB49
:103BC0000A01019801EBE07105984144401A401E3A
:103BD0000590E00306D45B462146179A059800F04D
:103BE0005DF805441498007818B15A461799904723
:103BF0006D1CE00324D55B462146179A059800F01A
:103C00004DF805441CE00498002807DBDDE90301BA
:103C1000884203DD0098405C179901E01799302035
:103C20005A469047049805F10105401C04900198FC
:103C3000401E019004D12E205A46179990476D1CC2
:103C4000BAF10001AAF1010ADDDC05E017F8010B69
:103C50005A46179990476D1CB8F10001A8F1010868
:103C6000F4DC5B462146179A0598ABE62D00000070
:103C70002B000000200000002DE9F0410446002543
:103C80001E461746880404D405E039462020B04774
:103C90006D1C641EF9D52846BDE8F0812DE9F04180
:103CA000044600251E469046C80301D5302700E093
:103CB0002027880404D505E041463846B0476D1CEE
:103CC000641EF9D52846BDE8F08100002DE9F84FC3
:103CD0000446FF23012298499848FEF7F5F9207819
:103CE000974FDFF86082DFF860924D287BD0542830
:103CF0007BD0582875D1954D954E286830606079F5
:103D00003038FCF724FC3946FCF798FA82462079D3
:103D10003038FCF71CFC4146FCF790FA0746A078C7
:103D20003038FCF714FC009060783038FCF70FFC5A
:103D3000CB464946FCF782FA0099FCF727FA394648
:103D4000FCF724FA5146FCF721FA7B4F8149BF1E4C
:103D50003861FEF709FA28603168FCF769FA78499A
:103D6000FCF79EFA7B49B8611831FFF7CFFAA860DB
:103D700068687060E07A3038FCF7E9FB7049FCF75E
:103D80005DFA8146A07A3038FCF7E1FB4146FCF74A
:103D900055FA8046207A3038FCF7D9FB8246E07924
:103DA0003038FCF7D4FB5946FCF748FA5146FCF78B
:103DB000EDF94146FCF7EAF94946FCF7E7F96549B0
:103DC00078610C31FEF7D0F968607168FCF730FA61
:103DD0005B49FCF765FA5F49F8613431FFF796FA01
:103DE000E860BDE8F88F57E0FFE760793038FCF70E
:103DF000AEFB3946FCF722FA064620793038FCF74C
:103E0000A6FB4146FCF71AFA0546A0783038FCF7C5
:103E10009EFB824660783038FCF799FB4946FCF7F8
:103E20000DFA5146FCF7B2F92946FCF7AFF93146D5
:103E3000FCF7ACF9484906460860E07A3038FCF7F0
:103E400086FB3946FCF7FAF90746A07A3038FCF7CA
:103E50007EFB4146FCF7F2F90546207A3038FCF744
:103E600076FB8046E0793038FCF771FB4946FCF779
:103E7000E5F94146FCF78AF92946FCF787F9394606
:103E8000FCF784F9354C2060304600F0C5FB206813
:103E9000BDE8F84F00F0E2BB60793038FCF757FB23
:103EA0003E463946FCF7CAF9074620793038FCF718
:103EB0004EFB4146FCF7C2F90546A0783038FCF7C6
:103EC00046FB824660783038FCF741FB4946FCF7F8
:103ED000B5F95146FCF75AF92946FCF757F9394626
:103EE000FCF754F91E4F3860E07A3038FCF72FFBAE
:103EF0003146FCF7A3F90646A07A3038FCF727FBD9
:103F00004146FCF79BF90546207A3038FCF71FFB49
:103F10008046E0793038FCF71AFB4946FCF78EF909
:103F20004146FCF733F92946FCF730F93146FCF7F6
:103F30002DF9786055E70000020000200C040020F5
:103F40000AD7233CCDCCCC3D00002041AC01002061
:103F5000CC0100205C01002038010020400100203D
:103F6000BC0100202DE9F05F04460178FE483129AC
:103F700001D10121C1702178322901D10221C17002
:103F80002178332901D10321C1702178342901D14D
:103F90000421C1702178352901D10521C170217812
:103FA000372901D10721C17022780021522A06D178
:103FB000C170017141718171C17101704170EA4A32
:103FC00023780832412B02D16378313B1370237878
:103FD000422B02D16378313B53702378432B02D1BB
:103FE0006378313B93702378442B05D16378313B60
:103FF000D3700622C270C1602078542859D16079EC
:104000003038FCF7A4FAD94F3946FCF717F90646C1
:1040100020793038FCF79BFADFF854834146FCF7EF
:104020000DF90546A0783038FCF791FA82466078A1
:104030003038FCF78CFADFF83C934946FCF7FEF881
:104040005146FCF7A3F82946FCF7A0F83146FCF7E7
:104050009DF8C94906460860E07A3038FCF777FADF
:104060003946FCF7EBF80746A07A3038FCF76FFAD0
:104070004146FCF7E3F80546207A3038FCF767FA4A
:104080008046E0793038FCF762FA4946FCF7D6F80A
:104090004146FCF77BF82946FCF778F83946FCF7EF
:1040A00075F8B64D2860304600F0B6FA286800F082
:1040B000D5FA2078DFF8C8B2B24DB34EB34FDFF86F
:1040C000D082502828D1607858287DD1A0785628F1
:1040D0007BD160793038FCF743FAAE4AAE4BFCF73F
:1040E000C4F98146E0788A463038FCF739FA4A4606
:1040F0005346FCF713F98246A07989463038FCF71D
:104100002FFAA64A5B46FCF7B0F952464B46FCF73D
:10411000A6F9FCF762FA28602078492828D160784F
:1041200058287CD1A07856287AD160793038FCF7AD
:1041300017FA984A984BFCF798F98146E0788A4636
:104140003038FCF70DFA4A465346FCF7E7F881464B
:10415000A0798A463038FCF703FA904A5B46FCF7B0
:1041600084F94A465346FCF77AF9FCF736FA686058
:10417000207844282BD1607858287DD1A078562803
:104180007BD160793038FCF7EBF9824A824BFCF73F
:104190006CF98246E07889463038FCF7E1F95246FE
:1041A0004B46FCF7BBF88146A0798A463038FCF7CD
:1041B000D7F97A4A5B46FCF758F94A465346FCF76A
:1041C0004EF9FCF70AFA01E004E093E0A8602078D9
:1041D00050282BD1607859287ED1A07856287CD1E0
:1041E000A0793038FCF7BCF96C4A6D4BFCF73DF90F
:1041F000824660798B463038FCF7B2F9654A664BE7
:10420000FCF733F90546E07889463038FCF7A8F921
:104210002A464B46FCF782F852465B4601E008E02E
:1042200097E0FCF77BF8FCF7D8F930602078492854
:104230002BD1607859287DD1A07856287BD1A079E0
:104240003038FCF78DF9554A554BFCF70EF981468D
:1042500060790D463038FCF783F94E4A4E4BFCF737
:1042600004F98246E0788B463038FCF779F95246FB
:104270005B46FCF753F801E00AE0B7E04A462B46FC
:10428000FCF74CF8FCF7A9F97060207844282BD192
:104290006078592866D1A078562864D1A079303842
:1042A000FCF75EF93D4A3E4BFCF7DFF88246607949
:1042B0000D463038FCF754F9364A374BFCF7D5F841
:1042C0008146E0788B463038FCF74AF94A465B462F
:1042D000FCF724F8524601E009E0B6E02B46FCF773
:1042E0001DF8FCF77AF9B060207850282BD160785F
:1042F00058287DD1A0784C287BD1A0793038FCF7A4
:104300002FF9264A264BFCF7B0F806466079894615
:104310003038FCF725F91F4A1F4BFCF7A6F88246F8
:10432000E0780D463038FCF71BF952462B46FBF778
:10433000F5FF01E00AE0B7E032464B46FBF7EEFF3F
:10434000FCF74BF938602078492849D16078582823
:104350007ED1A0784C284CD1A0793038FCF700F9F8
:104360000E4A1FE03FE0CFE0000000200AD7233CC8
:10437000CDCCCC3D00002041380100204001002080
:10438000E17A84BFDC01002024020020000200202A
:10439000480200209A9999999999B93F7B14AE47A0
:1043A000E17A843F6D4BFCF760F8054660790E4674
:1043B0003038FCF7D5F86A4A6A4BFCF756F8814664
:1043C000E0788A463038FCF7CBF84A465346FBF78C
:1043D000A5FF2A463346FBF7A1FFFCF7FEF87860FD
:1043E000207844282BD1607858287DD1A07801E02E
:1043F00028E07AE04C2878D1A0793038FCF7B0F882
:10440000594A564BFCF731F8824660790E463038EF
:10441000FCF7A6F8524A534BFCF727F80546E0781C
:1044200089463038FCF79CF82A464B46FBF776FF66
:1044300052463346FBF772FFFCF7CFF8B86020789E
:1044400050282BD1607859284FD1A0784C2800E013
:1044500027E04AD1A0793038FCF782F8424A3F4B36
:10446000FCF703F8814660790E463038FCF778F89F
:104470003B4A3C4BFBF7F9FF0746E0780D463038E6
:10448000FCF76EF83A462B46FBF748FF4A463346A0
:10449000FBF744FFFCF7A1F8C8F800002078492892
:1044A0002CD16078592856D1A0784C2853D1A079C6
:1044B0003038FCF755F82C4A284BFBF7D6FF064658
:1044C00060790F463038FCF74BF8254A254BFBF74F
:1044D000CCFF0546E07889463038FCF741F84B467A
:1044E0002A46FBF71BFF01E00BE034E032463B4677
:1044F000FBF714FFFCF771F8C8F804002078442893
:1045000029D16078592826D1A0784C2823D1A079C8
:104510003038FCF725F8144A104BFBF7A6FF064687
:1045200060790F463038FCF71BF80D4A0D4BFBF74E
:104530009CFF0546E07889463038FCF711F82A469A
:104540004B46FBF7EBFE32463B46FBF7E7FEFCF73C
:1045500044F8C8F80800BDE8F09F0000E17A843F05
:104560009A9999999999B93F7B14AE4713B54FF62B
:10457000FF73012269460248FDF7A6FD00981CBDA5
:1045800054040020FCF73EFDFEF7F4FAFDF728FE88
:10459000FDF708FEFDF7DCFEFDF70EFFFDF728FF37
:1045A000FDF756FEFDF78EFE00210E48FDF7D6FA08
:1045B00004210C48FDF7D2FA00F022F8FDF736FF8F
:1045C0004FF4FA742046FCF707FC0748FCF75CFA46
:1045D0000648FCF759FA2046FCF7FEFB00F008F805
:1045E000FCE70000B40200200C040020540400206A
:1045F00010B5FDF75DFFBDE81040FEF75BB80000A9
:104600000449002001F10802086010604860506011
:10461000704700003801002010B50A49FBF7B6FDCD
:104620000949FBF70BFE0949FBF73AFE0849FBF77E
:10463000ADFD08490860FBF7A4FF07490968486316
:1046400010BD00000000A0420000FA440000344306
:104650000000FA4330010020B402002010B50B49DD
:10466000FBF7E9FD0A49FBF791FD0A49FBF7E6FD77
:104670000949FBF715FE0949FBF788FD0849486021
:10468000FBF77FFF07490968886310BD0000B4424B
:104690000000A0410000FA44000087430000FA43F4
:1046A00030010020B40200200102020304050607C5
:1046B00008090A0B0C0D0E0F10100000000000007E
:1046C00000000102030406070809000000000102BF
:1046D00003040000F4460008000000205C01000014
:1046E000980900086C4700085C010020CC07000016
:1046F0000834000821021D311830A4705941AE471A
:104700004541A470FD419A99F541295CAB4166662B
:10471000D441E17AB64133332242F628BC418FC2FC
:104720002642295C02426666E0283A59241CAE47BC
:10473000CD085ADB081AAB043E894152B876080905
:104740004620299029881C52B8D4041AE2181E0267
:1047500042EC51138C5A1A082B02421809462029A0
:0C476000E80118320182105324F400001C
:04000005080000ED02
:00000001FF
