:020000040800F2
:10000000F0090020A90100081F270008E9240008C2
:100010001D270008750E0008BD2E00080000000016
:10002000000000000000000000000000232700087E
:10003000BB0E00080000000021270008252700084B
:10004000C3010008C3010008C3010008C301000880
:10005000C3010008C3010008C3010008C301000870
:10006000C3010008C3010008C3010008C301000860
:10007000C3010008790E0008C3010008850E0008BE
:10008000C3010008C3010008C3010008C301000840
:10009000C3010008C3010008C3010008C301000830
:1000A000C3010008C3010008C3010008C301000820
:1000B000C3010008C301000885270008C301000828
:1000C000C3010008C3010008C3010008C301000800
:1000D000C3010008B12D0008C3010008C92D0008A4
:1000E000C3010008C3010008C301000800F002F8C2
:1000F00000F04AF80AA090E8000C82448344AAF178
:100100000107DA4501D100F03FF8AFF2090EBAE875
:100110000F0013F0010F18BFFB1A43F0010318473B
:10012000B42E0000D42E0000103A24BF78C878C145
:10013000FAD8520724BF30C830C144BF04680C60ED
:10014000704700000023002400250026103A28BF35
:1001500078C1FBD8520728BF30C148BF0B60704739
:10016000642900F0AB80732900F0BE810020704745
:100170001FB59DE8030000F027FC00F019FA1FBD31
:1001800010B500F07EFA10BD00F0E1FA1146FFF75D
:10019000EFFF02F0CDFE00F0E5FB03B4FFF7F0FF48
:1001A00003BC00F0A3FD0000094880470948004750
:1001B000FEE7FEE7FEE7FEE7FEE7FEE7FEE7FEE717
:1001C000FEE7FEE704480549054A064B7047000074
:1001D00081270008ED000008F0030020F00900204E
:1001E000F0050020F00500200FB4044910B503AA63
:1001F000029800F07DF910BC5DF814FBE8020020C5
:100200002DE9F0410E460446002020622046E168B8
:10021000884730B3252805D0D4E901219047206ACA
:10022000401CF2E7E168204600278847050018D007
:10023000A5F14100192802D820354FF40067324655
:10024000294620462760FFF78BFF40B1012804D0E4
:10025000F61D26F007060836D8E7361DD6E72846ED
:10026000DAE7206ABDE8F08170B50C460546012A40
:1002700005D02878800600D5EA69002302E0012332
:1002800005E05B1C934202D2E05C0028F9D1A8692A
:10029000E618C01AA861286A184428622846AFF3F5
:1002A000008004E0D5E9012114F8010B9047B44225
:1002B000F8D32846AFF3008070BD00002DE9F0416F
:1002C0000646002410687529314616A510D0AFF3F4
:1002D0000080002802DA404213A507E031688A074F
:1002E00001D512A502E0490704D511A5012401E0BA
:1002F000AFF3008000210A2206F1240709E0B0FBD9
:10030000F2FCB0FBF2F302FB1C00303078541846CC
:10031000491C0028F3D123462A463046BDE8F04167
:1003200000F077B8000000002D0000002B00000056
:1003300020000000032A40F2308010F0030C00F08F
:10034000158011F8013BBCF1020F624498BF11F80F
:1003500001CB00F8013B38BF11F8013BA2F10402C8
:1003600098BF00F801CB38BF00F8013B11F0030340
:1003700000F0D080083AC0F0088051F8043B083AF9
:1003800051F804CBA0E80810F5E7121D5CBF51F846
:10039000043B40F8043BAFF30080D20724BF11F8C0
:1003A000013B11F801CB48BF11F8012B24BF00F825
:1003B000013B00F801CB48BF00F8012B70474FF01C
:1003C000000200B5134694469646203922BFA0E8A5
:1003D0000C50A0E80C50B1F12001BFF4F7AF0907B1
:1003E00028BFA0E80C5048BF0CC05DF804EB8900A2
:1003F00028BF40F8042B08BF704748BF20F8022BE5
:1004000011F0804F18BF00F8012B704770477047FC
:1004100070472DE9F0470D4699469246044600F193
:1004200024080168880604D5E06921F010012160E4
:1004300000E00120A84201DD471B00E00027A16980
:100440007A1902EB0900081AA0612078C00602D4CC
:100450002046AFF30080002608E0D4E901211AF815
:1004600006009047206A401C761C20624E45F4DB53
:100470002078C0060AD52046AFF3008006E0D4E914
:10048000012130209047206A401C2062381EA7F1CD
:100490000107F4DC07E0D4E9012118F805009047D2
:1004A000206A401C2062281EA5F10105F3DC2046CD
:1004B000AFF300802078000602D50220BDE8F08767
:1004C0000120FBE710B5436913B1AFF3008001E0F1
:1004D000FFF7CAFE012010BD127800F124010A7056
:1004E00000224A700122EDE711684FF0FF32E9E780
:1004F000074B70B50D467B4400F043F80446284690
:1005000000F052F810B14FF0FF3070BD204670BDC2
:100510001F2A000010B5203AC0F00B80B1E8185037
:10052000203AA0E81850B1E81850A0E81850BFF4DD
:10053000F5AF5FEA027C24BFB1E81850A0E818507C
:1005400044BF18C918C0BDE810405FEA827C24BFD0
:1005500051F8043B40F8043B08BF7047D20728BF5E
:1005600031F8023B48BF11F8012B28BF20F8023BAD
:1005700048BF00F8012B704701694A1C02610878E6
:10058000704700B58FB0CDE90131002105910549D3
:100590007944CDE9031011466846FFF731FE0FB0EC
:1005A00000BD0000E5FFFFFF007B00F0800070470A
:1005B00010B542485421FFF702FF41485421FFF78C
:1005C000FEFE40485421FFF7FAFE3F493B483C4AB3
:1005D0003F4B08603D490A603A491960531C036566
:1005E000481C1065012008653B48344A39A178440D
:1005F00000F01CF920B9384878440A3800F0BBF9FB
:1006000037482F4A35A1784400F010F920B9344812
:1006100078440A3800F0AFF932482A4A2FA17844CA
:1006200000F004F920B92F4878440A3800F0A3F903
:1006300040232248DC000021224600F0D4F820B1FB
:1006400025487844543800F096F91D482246402346
:10065000002100F0C8F820B121487844543800F057
:100660008AF9184822461023002100F0BCF800281F
:1006700006D01C487844BDE81040563800F07BB9DD
:1006800010BD104870B5006D20F001040B4800F05B
:1006900043F90B4800F040F90A4800F03DF909E041
:1006A000206D20F00105204600F036F9204600F0CC
:1006B00073F82C46002CF3D170BD0000940200208A
:1006C000E80200203C030020180000201C0000204D
:1006D0002000002072000000D429000077000000F4
:1006E000C0290000AC2900000EB5CDE9000100F0E2
:1006F000DDFA029069460120ABBE0EBD08B5694621
:1007000000900220ABBE08BD1FB58DE8070069460A
:100710000520ABBE04B010BD1FB58DE80F006946C3
:100720000620ABBEF6E708B5694600900920ABBECF
:1007300008BD1CB5CDE9000169460A20ABBE1CBD51
:10074000704708B5694600900C20ABBE08BD7546E1
:1007500000F018F9AE4605006946534620F0070040
:10076000854618B020B5FFF72DFDBDE820404FF0BD
:1007700000064FF000074FF000084FF0000B21F08B
:100780000701AC46ACE8C009ACE8C009ACE8C00958
:10079000ACE8C0098D46704770B50446051F00F0EF
:1007A000F7F80068002C14BF446870BD002C18BF17
:1007B000AC423CBF20466468F8D301680A18AA42DC
:1007C00018BF456003D12A680546114401602868B6
:1007D0004119A1421CBF6C6070BD616869602168ED
:1007E0000844286070BD70B5C468A50713D06502C1
:1007F00011D4B2F5807F09D0B2F5007F06D0B2F5F2
:10080000806F08D1012300F1240106E05D1E6FF026
:100810007F46B54201D3012070BD0161C3614160D3
:1008200024F470611143C160002070BD2DE9F041D6
:100830000C4607461646104600F06EF82078611CFC
:1008400061280AD0722802D077283CD102E0012525
:10085000002405E00225042402E0082448F20205F1
:1008600011F8010B2B2806D0622809D011F8010CD1
:1008700074280AD00BE045F0030544F00204EFE7CA
:1008800045F0040544F00104EAE744F0100438465A
:100890002146FFF729FF411C15D00021316171600D
:1008A0004FF40071F560F1617061200704D53046A6
:1008B0000222002100F0E6F8306D40F001003065C2
:1008C0003046BDE8F0810020FBE72DE9F0410D4600
:1008D0000646104C206DC10704D0410804D020F01A
:1008E0000104F7E722460EE0542000F09CF80700D0
:1008F0000ED0206D47F00101084354212065384691
:10090000FFF75DFD3A4629463046BDE8F0418DE7E8
:100910000020D6E7940200202DE9F04704464FF06E
:1009200000094FF0FF37C568D4E90486A80707D04F
:10093000204600F057F93046FFF7E0FE002802DAC3
:100940003846BDE8F087280502D54046FFF724FF6A
:100950004C212046FFF733FD206D20F0010020657B
:100960004846EEE710B50446AFF300802046BDE8E8
:100970001040FFF712BC10B500F07EF9BDE8104042
:1009800000F074B9004870479003002070470000E1
:1009900000487047980300207047704770477047C1
:1009A00038B504460A4600206946AFF300800028A7
:1009B00008BF38BD02460099204600F0A4F9012086
:1009C00038BD012000F0F3B9F8B5AFF3008005465B
:1009D00000200C46102000BF0646A819A0420DD9E1
:1009E000324669460020AFF30080070008BF00F0E0
:1009F000DEF90098A04218BF0546C419FFF7C8FFEA
:100A000005600746F01D20F007004619284600F053
:100A100073F9B44208BFF8BDA21B31463868BDE87F
:100A2000F84000F070B970B50646FFF7B1FF0568F1
:100A300006F10B0020F00704B4429CBF002070BDFB
:100A40002B466A68BAB11068A04210D304F10801BD
:100A500088423CBF5068586007D351681019416004
:100A60001168091B016058601460101D70BD1346A9
:100A70005268002AE7D121462846FFF791FF002857
:100A8000DED170BD2DE9F041044616460D4647699A
:100A9000007B80072ED03846FFF745FE50BB3EB3A3
:100AA000012E02D0022E25D104E0204600F045F9A7
:100AB00005441DE03846FFF744FEE168002841F098
:100AC0001001E16005DA204600F058F80120BDE889
:100AD000F081C9030BD56268E16A914200D81146E2
:100AE000A26911442269891A814200DD0846054441
:100AF000002D01DA0220EAE7E16A6068E2688142DB
:100B000006D29103E06203D522F4003141F01002D5
:100B1000A6690027AE4213DCE16A814201D90B4687
:100B200000E0034603EB060C2369ACEB030CAC4579
:100B300006DD814201D98C4600E084469C4505D102
:100B4000A760276042F02000A5620DE0AD1BE669BA
:100B5000AE1B8142A66000D90846C01A281A206040
:100B60005819606022F0200003490840E06000202E
:100B700084F84870ABE70000BFCFD7FFC16821F40D
:100B8000001141F08001C160002181600160704767
:100B90002DE9F047814614460E464FF0FF383248A3
:100BA000D5685769054209D03846A169FFF7C1FDEC
:100BB000002811DB2C48C0430540E5602B46324637
:100BC00049463846FFF7A0FDA16920F00042B21A5D
:100BD00011440028A16103D02046FFF7CFFF404613
:100BE000BDE8F08770B504460569C06A616888424F
:100BF00000D80846E16821F42011E160C90312D54C
:100C0000A84208D02246411B2846FFF7C1FF10B179
:100C10004FF0FF3070BD0020E562C4E90150E0688C
:100C200020F48030E060002070BD10B50446C0683C
:100C300020F02000E060A16AA06988420DD0204623
:100C4000FFF7D0FFE06820F4405040F01000E06073
:100C5000A06AA0612069E062606044F24001E0683F
:100C60008843E06010BD000010000200002801D0A1
:100C700000F03CB87047000010B5014602A000F03B
:100C80007DF8012010BD000053494752545245449D
:100C90003A2052656469726563743A2063616E2715
:100CA00074206F70656E3A200000000010B5431C80
:100CB00002E010F8011B71B18107FAD14FF0013247
:100CC00002C88C1A8C4314EAC211F9D0C01A0A0661
:100CD00003D0C01E10BDC01A10BD0A0401D0801E72
:100CE00010BD0902FCD0401E10BD000001491820B3
:100CF000ABBEFEE72600020000210160C0E9011042
:100D0000704710207047034640688C46002818BF83
:100D100088423CBF03464068F8D3186818448842AC
:100D200007D00CF1030020F00700001D411A521AF1
:100D30000146081D0A60FFF72FBD10B50146C268C5
:100D4000900703D0900607D5886A0AE000F03EF8C5
:100D500001210160881E10BD8B69486818440B6929
:100D6000C01A91F848301BB191F84910401A10BDD3
:100D70001103FCD50028FADD401E10BD70B50546F4
:100D80000C460A2000E06D1C00F018F835B12878F8
:100D90000028F8D102E0641C00F010F814B12078AB
:100DA0000028F8D1BDE870400A2000F007B810B55F
:100DB00000F010F8BDE81040FFF758BF08B56946CD
:100DC0008DF800000320ABBE08BD0000004870474E
:100DD0009003002010B5012805D0002103A0FFF7E3
:100DE000CDFF012010BD09A1F8E70000534947528B
:100DF000544D454D3A204F7574206F6620686561EB
:100E000070206D656D6F7279000000003A204865B2
:100E10006170206D656D6F727920636F727275708D
:100E20007465640038B5044601680F48814209D1F1
:100E30000868C043C00605D40868486800900B489D
:100E400001F0CEFF0A49206888420CD10168C943ED
:100E5000C90608D4016840680090BDE838400348DE
:100E6000483001F0BDBF38BD003801407C01002092
:100E700000480040FEE70000014800F0A5B800006F
:100E800050020020014800F09FB800000C02002032
:100E900030B590F840500124AC40C56B6C600468DC
:100EA00063604368102B036803D099600068C260D8
:100EB00030BD9A600068C16030BD704772B6094CA1
:100EC0004FF4FA7640F6B83540F6C417206846630A
:100ED000284600F089F920684763284600F084F925
:100EE000F4E700002400002010B590F82110002243
:100EF000022905D00421816380F82020012010BD43
:100F000001680B6823F00E030B6001680B6823F087
:100F100001030B6090F84030C46B012101FA03F328
:100F2000636080F8211080F82020104610BD00007A
:100F300010B590F821100024022903D00421816308
:100F400001243DE001680A6822F00E020A6001688F
:100F50000A6822F001020A601A4A0168914201D12E
:100F6000012121E0174A1432914201D110211BE0E6
:100F7000144A2832914201D1891515E0114A3C32B8
:100F8000914201D189140FE00E4A5032914202D1B0
:100F90004FF4803108E00B4A6432914202D14FF4A1
:100FA000801101E04FF08071064A083A516001213A
:100FB00080F82110002180F82010416B01B1884792
:100FC000204610BD080002402DE9F05FC16B0C689F
:100FD00001680B68D0F840C0042202FA0CF2494DB7
:100FE000DFF824A1494E4A4FDFF828B1DFF828E1A5
:100FF00022422CD05A072AD50A68920603D40A68DE
:1010000022F004020A600168A94201D1042219E019
:10101000514501D1402215E0B14202D14FF4806226
:1010200010E0B94202D14FF480420BE0594502D1A1
:101030004FF4802206E0714502D14FF4800201E0B6
:101040004FF080622F4908394A60C16A3BE04FF097
:10105000020808FA0CF818EA040F4FF000094FF0E4
:10106000010235D05FEA837832D50B689B0605D440
:101070000B6823F00A030B6080F821200168A94265
:1010800001D1022219E0514501D1202215E0B142DF
:1010900002D14FF4007210E0B94202D14FF4005275
:1010A0000BE0594502D14FF4003206E0714502D100
:1010B0004FF4001201E04FF00072124908394A6003
:1010C00080F82090816A00291AD0BDE8F05F0847B7
:1010D000082505FA0CF5254212D01B0710D50B6820
:1010E00023F00E030B6090F84010C36B02FA01F17D
:1010F0005960826380F8212080F82090016BE2E73C
:10110000BDE8F09F080002401C0002403000024091
:1011100044000240580002406C00024030B528B341
:1011200008C8134914221944B1FBF2F18900C163C4
:1011300010498163022141771A6843F6F0718A43AE
:10114000D0E900142143D0E902452C43214304692E
:1011500021434469214384692143114319600021DB
:101160004163012242770177084630BD012030BD3E
:10117000F8FFFDBF0000024070B5044690F8200063
:10118000002501280CD0012084F8200094F821606B
:101190000020012E06D084F820000225284670BDCC
:1011A000022070BD022684F82160A06320680668D2
:1011B00026F0010606602046FFF76AFEE06A002876
:1011C0002068016802D041F00E0106E021F0040120
:1011D00001602068016841F00A010160206801682F
:1011E00041F001010160D9E770B5044600F004F94F
:1011F0000546601C02D004480078044400F0FCF866
:10120000401BA042FAD370BD080000202DE9F84F22
:10121000DFF8B8910024A9F1040B23460F2709F148
:10122000040AABF1040EC9E00125A5402A40AA42F8
:101230007DD1674ED1F804C0ACEB0608B44532D07E
:1012400014DCBCF1030F3AD009DCBCF1000F2AD04A
:10125000BCF1010F1CD0BCF1020F31D11DE0BCF17B
:10126000110F17D0BCF1120F2AD119E0B8F5881F61
:1012700019D006DCB8F5803F15D0B8F5801F1FD116
:1012800011E0B8F5001F0ED0B8F5041F18D10AE020
:10129000CB6815E0CB681B1D12E0CB6808330FE06C
:1012A000CB680C330CE08B682BB1012B4FF008039B
:1012B00003D0456104E0042302E0056100E000235F
:1012C000FF2A01D8064601E000F104064FEA840532
:1012D00001D9A5F12005D6F8008007FA05FC28EA17
:1012E0000C0803FA05F548EA0508C6F800804D68C1
:1012F000ED0062D5374DAE6946F00106AE61AD69CD
:1013000024F0030605F001050095334D06EB050CAE
:10131000DCF80850A607360F07FA06F825EA080594
:10132000DFF8B880404503D14FF0000817E044E0F3
:10133000DFF8AC80404502D14FF001080FE0DFF844
:10134000A480404502D14FF0020808E0DFF8988001
:10135000404502D14FF0030801E04FF0040808FABD
:1013600006F848EA0508CCF808804D68D9F800600E
:10137000ED024D4601D5164300E096432E604D68C0
:10138000DAF80060AD02554601D5164300E09643F9
:101390002E604D68DBF80060AD035D4601D5164355
:1013A00000E096432E604D68DEF80060ED03754660
:1013B00001D5164300E096432E60641C0D682A4652
:1013C000E5407FF431AFBDE8F88F0000080401402C
:1013D0000000111000100240000001400008014010
:1013E000000C014000100140001401400AB10161ED
:1013F00070470904FBE7000001488068704700005F
:10140000080000200248816802781144816070471A
:1014100008000020074810B5016841F01001016084
:10142000032000F075F80F2000F006F800F024F813
:10143000002010BD0020024070B50D4D04464FF451
:101440007A712878B1FBF0F00A490968B1FBF0F035
:1014500000F0DCFA48B9102C07D200222146501EB9
:1014600000F036F800206C6070BD012070BD0000F7
:1014700008000020140000200C4808B5816941F0E4
:1014800001018161816901F001010091C16941F0AF
:101490008051C161C06900F08050009004484168EB
:1014A00021F0E06141F00071416008BD0010024090
:1014B00000000140002809DB00F01F0201219140DB
:1014C0004009800000F1E020C0F8001170470000E2
:1014D000F0B40E4B1B680C46C3F30223C3F107059F
:1014E000042D00D90425191D072901D2002300E08D
:1014F000DB1E012606FA05F1491E214099409E4057
:10150000761E16403143F0BC01F0D9BC0CED00E072
:10151000064900F0070208684FF6FF03184040EA4A
:101520000220034A10430860704700000CED00E001
:101530000000FA052DE9F0470F46050061D0434E43
:10154000306800F00700B84209D2306820F0070088
:1015500038433060306800F00700B84251D1286845
:101560003B4C810712D5400703D5606840F4E0602A
:1015700060602878000703D5606840F460506060C0
:101580006068A96820F0F000084360602878C00710
:1015900028D06868012810D02168022810D0890757
:1015A00000292EDA616821F0030101436160FFF731
:1015B00023FF804641F288390DE021688903EFE777
:1015C0008901EDE7FFF718FFA0EB0801494502D9B3
:1015D0000320BDE8F0876068696800F00C00B0EB9C
:1015E000810FEFD1306800F00700B8420BD93068A6
:1015F00020F0070038433060306800F00700B84240
:1016000001D00120E5E72878400705D56068E96842
:1016100020F4E060084360602878000706D5606821
:10162000296920F4605040EAC100606000F038F899
:101630006168084AC1F30311515CC840064908605B
:1016400006480068FFF7F8FE0020C2E700200240CD
:1016500000100240AE2F0008140000200C000020F3
:101660000448054900684968044AC1F30221515CF5
:10167000C84070471400002000100240BE2F000830
:101680000448054900684968044AC1F3C221515C15
:10169000C84070471400002000100240BE2F000810
:1016A0000E4A51680E4801F00C03042B11D0082B90
:1016B0000FD10C48C1F38343C903C05C0AD55168FC
:1016C000084AC1F34041921E515C054A5043B0FBA9
:1016D000F1F0704704494843704700000010024091
:1016E00000127A009E2F000800093D002DE9F84FF6
:1016F000040070D02078C04DC00749D06868C0F39E
:101700008100012807D06868C0F38100022809D150
:101710006868C00306D52868800339D5606800284A
:10172000E7D035E06068B0F5803F0BD010B1B0F580
:10173000A02F11D0286820F480302860286820F479
:10174000802002E0286840F480302860606890B112
:10175000FFF752FE06460AE0286840F48020286021
:10176000F0E700BFFFF748FE801B642873D82868A5
:101770008003F7D50CE0FFF73FFE064605E000BF0B
:10178000FFF73AFE801B6428F0D828688003F7D45E
:1017900020789A4E80074FF001094FF0000839D5A4
:1017A000686810F00C0F07D06868C0F38100022849
:1017B00009D16868C00306D42868800714D5206959
:1017C000012808D110E02069B0B1C6F80090FFF7F9
:1017D00013FE074605E00AE1FFF70EFEC01B0228D4
:1017E000C4D828688007F7D52868616920F0F80018
:1017F00040EAC10028600DE0C6F80080FFF7FCFD5C
:10180000074604E0FFF7F8FDC01B022823D828682C
:101810008007F7D4207800072CD57948A169D9B181
:10182000C0F80090FFF7E8FD074604E0FFF7E4FD8D
:10183000C01B02280FD8686A8007F7D571484FF49B
:10184000FA510068B0FBF1F0009000BF0098411E13
:101850000091FAD20EE080E0C0F80080FFF7CCFDE6
:10186000074604E0FFF7C8FDC01B022875D8686A68
:101870008007F7D42078400760D5E8690027C000CA
:1018800008D4E86940F08050E861E869012700F079
:10189000805000905C480168C90513D401688346F4
:1018A00041F480710160FFF7A7FD824606E000BFAA
:1018B000FFF7A2FDA0EB0A0064284ED8DBF8000079
:1018C000C005F5D5E06801280AD008B1052813D075
:1018D000286A20F001002862286A20F0040002E053
:1018E000286A40F001002862E06841F2883B98B124
:1018F000FFF782FD82460BE0286A40F00400286270
:10190000EEE700BFFFF778FDA0EB0A0159455AD872
:10191000286A8007F6D50CE0FFF76EFD824605E0E9
:10192000FFF76AFDA0EB0A0159454CD8286A8007E9
:10193000F6D41FB1E86920F08050E861E06988B30F
:101940006968C1F38101022944D00228C6F8608089
:1019500004D0FFF751FD044638E034E0FFF74CFDBA
:10196000074604E0FFF748FDC01B02282BD8286873
:101970008001F7D4206AB0F5803F05D16868A1687E
:1019800020F4003008436860D4E90801084369681E
:1019900021F4741108436860C6F86090FFF72CFDCD
:1019A000044606E025E000BFFFF726FD001B0228E5
:1019B00009D828688001F7D51BE000BFFFF71CFDA0
:1019C000001B022802D90320BDE8F88F2868800197
:1019D000F4D40EE00128F7D06868226A00F4803160
:1019E000914204D1616A00F47010884201D0012054
:1019F000EAE70020E8E70000001002400000424251
:101A000080044242140000200070004010B5401EC7
:101A1000B0F1807F01D3012010BD4FF0E024606160
:101A20000F21601701F04BFA0020A0610720206110
:101A3000002010BD7047704770B590F83C20012A17
:101A400026D0012480F83C40022280F83D20036823
:101A50005A689D6822F070060A6832435A600D4B3E
:101A600002689A4208D0B2F1804F05D00A4B9A42E0
:101A700002D00A4B9A4204D1496825F080031943E9
:101A8000916080F83D40002180F83C10084670BD10
:101A9000022070BD002C01400004004000080040FE
:101AA00010B5040003D094F83D0010B107E0012008
:101AB00010BD002084F83C00204600F01FF80220F2
:101AC00084F83D00211D206800F062FE012084F8AA
:101AD000460084F83E0084F83F0084F8400084F813
:101AE000410084F8420084F8430084F8440084F8FC
:101AF000450084F83D00002010BD000008B5114AE3
:101B000001681148914208D1C16941F00201C161E7
:101B1000C06900F00200009008BD0C4A9142FBD160
:101B2000C16941F00401C161C069002200F00400F4
:101B3000009011461E20FFF7CBFCBDE808401E2098
:101B4000FFF7B8BC0004004000100240000800404D
:101B500070B5044690F83C000025012817D00126F6
:101B600084F83C60022084F83D002068826822F0FE
:101B7000770222F47F4282600868502838D00DDC5A
:101B800020284FD005DC90B3102811D14AE0022064
:101B900070BD302846D040280AD13BE060282FD0C5
:101BA00070280DD0B0F5805F03D0B0F5005F12D083
:101BB000012584F83D60002084F83C00284670BD73
:101BC000CB68D1E90121206800F025FE20688168FA
:101BD00041F0770109E0CB68D1E90121206800F0EC
:101BE0001AFE2068816841F480418160E1E719E0D4
:101BF000CA684968206800F0C3FE5021206806E0EA
:101C0000CA684968206800F0CCFE6021206800F0B6
:101C10000CFECEE7CA684968206800F0B1FE40219A
:101C20002068F4E7226801461046F0E7704770B577
:101C30000446006801694FF00005C943890715D4BF
:101C4000C168C943890711D4E91E016101202077C9
:101C5000206880698007204602D0FFF7E7FF04E094
:101C600000F0BEF8204600F050F9257720680169A1
:101C7000C943490717D4C168C943490713D46FF052
:101C800004010161022020772068806910F4407F00
:101C9000204602D0FFF7CAFF04E000F0A1F820467A
:101CA00000F033F9257720680169C943090716D484
:101CB000C168C943090712D46FF00801016104200B
:101CC00020772068C0698007204602D0FFF7AEFF6A
:101CD00004E000F085F8204600F017F92577206829
:101CE0000169C943C90617D4C168C943C90613D4D9
:101CF0006FF010010161082020772068C06910F49E
:101D0000407F204602D0FFF791FF04E000F068F822
:101D1000204600F0FAF8257720680169C943C90711
:101D200008D1C168C943C90704D1891E0161204691
:101D300000F03AF920680169C943090609D4C1686D
:101D4000C943090605D46FF0800101612046FFF701
:101D500071FE20680169C943490609D4C168C943B5
:101D6000490605D46FF040010161204600F01DF9DD
:101D700020680169C94389060BD4C168C943890633
:101D800007D46FF0200101612046BDE87040FFF7E5
:101D900052BE70BD00B585B0002100910191029145
:101DA000039100680B49884211D10B48816941F0C9
:101DB000040181618069694600F004000490C0203C
:101DC00000900220019003900448FFF71FFA05B02D
:101DD00000BD000000040040001002400008014067
:101DE000704770B5044690F83C0000260D46012867
:101DF0000FD0012084F83C006AB1042A1DD0082AC3
:101E00002FD00C2A3FD00126002084F83C00304619
:101E100070BD022070BD206800F010FD206881694F
:101E200041F0080181612068816921F0040181612C
:101E3000206881692A69114311E0206800F026FDBD
:101E40002068816941F4006181612068816921F421
:101E500080618161206881692A6941EA022181618A
:101E6000D2E7206800F03EFD2068C16941F008011A
:101E7000C1612068C16921F00401C1612068C169A4
:101E80002A69114311E0206800F058FD2068C169FB
:101E900041F40061C1612068C16921F48061C161C0
:101EA0002068C1692A6941EA0221C161ACE710B525
:101EB000040003D094F83D0010B107E0012010BDEC
:101EC000002084F83C00204600F01EF8022084F830
:101ED0003D00211D206800F05BFC012084F84600D5
:101EE00084F83E0084F83F0084F8400084F8410004
:101EF00084F8420084F8430084F8440084F84500E4
:101F000084F83D00002010BD7047704710B50446AE
:101F1000022249B104290ED0082913D094F84100B7
:101F2000012816D0012010BD94F83E000128F9D1F7
:101F300084F83E200FE094F83F000128F2D184F8A5
:101F40003F2008E094F840000128EBD184F84020BD
:101F500001E084F841200122206800F04FFC0F4985
:101F60002068884203D1426C42F4004242642068F7
:101F7000884208D0B0F1804F05D00949884202D08C
:101F80000849884204D1816801F00701062903D07D
:101F9000016841F001010160002010BD002C0140EA
:101FA000000400400008004070477047704710B5BB
:101FB00004460068406994F84110C0F3C01021291C
:101FC00011D180B12068143050E8001F21F0800149
:101FD00040E80012002AF5D1A06B08B1FEF784FF9B
:101FE000204600F096FD2068406994F84210C0F346
:101FF0008010222911D180B12068143050E8001FD0
:1020000021F0400140E80012002AF5D1E06B08B150
:10201000FEF76AFF204600F055FD002010BD704716
:10202000F8B5016804460868CA684B6910F00F0FDC
:102030004FF0000559D003F0010602F490773743C2
:1020400065D0C10705D0D10503D5616C41F0010110
:102050006164410705D5D90703D0616C41F00201E5
:102060006164810705D5D90703D0616C41F0040193
:102070006164010707D502F02001314303D0616C90
:1020800041F008016164616C00293AD0800604D5F2
:10209000900602D5204600F04AFD20684069616C38
:1020A000C0F38010090700D460B3204600F00AFD99
:1020B00020684069400621D52068143050E8001F90
:1020C00021F0400140E80012002AF5D1E06BA8B1F0
:1020D0006D494163E06BFEF72BFF002811D0E06BE8
:1020E000416B01B0BDE8F040084783060FD5930669
:1020F0000DD52046BDE8F84000F019BD2046FFF799
:102100008EFFF8BD2046FFF78AFF6564F8BD266B99
:102110002023012E7CD1C6067AD5D60678D508684C
:102120004868009048694FF00206400640D5E16BD0
:10213000086840680004000CE8D0A28D8242E5D90E
:10214000E085886920282DD020680C3050E8001FD9
:1021500021F4807140E80012002AF5D12068143083
:1021600050E8001F21F0010140E80012002AF5D1DB
:102170002068143050E8001F21F0400140E80012B0
:10218000002AF5D184F84230256320680C3050E8ED
:10219000001F21F0100140E80012002AF5D1E06B89
:1021A000FEF7A2FE6663A08DE18D401A81B22AE09F
:1021B000A08DE18D401A81B2E08D0028A6D00029C3
:1021C000A4D022680C3252E8000F20F4907042E84C
:1021D0000007002FF5D12068143050E8002F22F0BE
:1021E000010240E80027002FF5D184F84230256332
:1021F00020680C3050E8002F22F0100240E8002345
:10220000002BF5D166632046FFF7D0FEF8BDFFE74F
:1022100005062BD5150629D594F841002128F5D1BE
:10222000A068B0F5805F01D12069B0B1206A411C7F
:102230002162216800784860E08C401E0004000C98
:10224000E084E3D12068C16821F08001C16020688A
:10225000C16841F04001C160D8E7206A0088C0F33E
:1022600008004860206A801C2062E5E74006CDD562
:102270005006CBD5CA68204622F04002CA6084F8D6
:10228000413000F030F9C1E7C729000870B50400FB
:1022900004D094F84100002510B106E0012070BD83
:1022A00084F84050204600F023F8242084F84100B0
:1022B0002068C16821F40051C160204600F098FCFC
:1022C0002068016921F4904101612068416921F091
:1022D0002A0141612068C16841F40051C160656410
:1022E000202084F8410084F842006563002070BD1E
:1022F0002DE9F04186B000240094019402940394E7
:10230000064603684348DFF808C102210322051589
:102310008027634539D1836943F4804383618369AE
:1023200003F480430493836943F004038361806969
:10233000DFF8E48000F0040004900802CDE9000119
:10234000039269464046FEF761FFCDE900546946B5
:1023500040460294FEF75AFF314D3048C5E900046B
:10236000C5E902472C616C61AC612846EC61FEF75F
:10237000D5FE08B1FEF7A2FDF56300221146252027
:102380006E62FFF7A5F825203DE0DFF898C06345B1
:102390003BD1C36943F48023C361C36903F4802341
:1023A0000493836943F0080383618069CDE9005198
:1023B00000F00800CDE903201B4D69462846FEF7D2
:1023C00025FFE814CDE90004694628460294FEF78B
:1023D0001DFF134D114844352838C5E90004C5E9EF
:1023E00002472C616C61AC612846EC61FEF796FEF9
:1023F00008B1FEF763FDF5630022114627206E62E7
:10240000FFF766F82720FFF755F806B0BDE8F08122
:10241000003801400010024000080140580002400E
:102420000C02002000480040000C014090F84230AF
:10243000202B01D00220704721B11AB10023036381
:1024400000F032BC01207047704770472DE9F84317
:10245000044690F841001F4616460D46202802D03B
:102460000220BDE8F8837DB176B1002060642120B0
:1024700084F84100FEF7C0FFA6848046E684A06889
:10248000B0F5805F02D003E00120EAE7206910B1D7
:102490002E4600250EE000260CE08021204600F0AC
:1024A0004BFCA0B9AEB116F8010B21684860E08C76
:1024B000401EE084E08C43464FF000020097002865
:1024C000EBD14FF04001204600F036FC30B1032044
:1024D000C7E735F8020BC0F30800E6E7202084F8D0
:1024E00041000020BDE77047FEE700000D4808B539
:1024F000416941F0010141614069002200F00100A1
:10250000009011460D20FEF7E3FF0D20FEF7D2FFED
:10251000002211460F20FEF7DBFFBDE808400F2028
:10252000FEF7C8BF0010024030B585B0002418483F
:102530000094019402940394816941F02001816127
:10254000816901F020010491816941F004018161F8
:10255000816901F004010491816941F00801816100
:1025600080690C4D00F00800049000221E212846CE
:10257000FEF73CFF1E2000900120CDE9010402205F
:10258000039069462846FEF741FE05B030BD0000C5
:10259000001002400008014010B58EB000240794DE
:1025A000089409940A940B941C2168460C94FDF736
:1025B00006FF2348214901604721C0E9011444F680
:1025C0001F61C0E903148461FFF76AFA08B1FEF7DE
:1025D00075FC4FF48050079007A91948FFF7B8FA27
:1025E00008B1FEF76BFC1648FFF761FC08B1FEF777
:1025F00065FC0B940BA912480C94FFF71DFA08B167
:10260000FEF75CFC602000904FF4FA70CDE9010405
:10261000002269460A480494FFF7E3FB08B1FEF77D
:102620004DFC042269460648FFF7DBFB08B1FEF7C4
:1026300045FC0348FFF7AEFB0EB010BD00040040A0
:102640002400002010B586B000241748009401949F
:1026500002940394049413490594016040F2CF213D
:10266000C0E9011442F21071C0E903148461FFF75C
:1026700017FA08B1FEF722FC4FF48050009069462B
:102680000948FFF765FA08B1FEF718FC049404A99D
:1026900005480594FFF7D0F9002801D0FEF70EFC9D
:1026A00006B010BD000800406C0000200C4810B5BA
:1026B0000A4901604FF461214160002181600C22D0
:1026C000C160C0E904128161C161FFF7DFFD00282C
:1026D00003D0BDE81040FEF7F1BB10BD003801404B
:1026E0007C0100200C4810B50A4901604FF4E1312B
:1026F0004160002181600C22C160C0E90412816147
:10270000C161FFF7C3FD002803D0BDE81040FEF70C
:10271000D5BB10BD00480040C4010020FEE7FEE725
:1027200070477047FEF76EBE30B58FB028216846FF
:10273000FDF745FE14210AA8FDF741FE012108041A
:10274000CDE900100024029402250491CDE9075040
:102750004FF4E01009906846FEF7C8FF60B90F20FB
:10276000CDE90A056802CDE90C4002210AA80E94C1
:10277000FEF7E0FE002801D0FEF7A0FB0FB030BD51
:10278000704700000148FFF752BA00006C000020BB
:10279000F0B50268164B174C174D4FF08047984222
:1027A00005D0B84203D0A04201D0A84203D122F004
:1027B00070064A683243984205D0B84203D0A0421E
:1027C00001D0A84203D122F44074CA6822434C6964
:1027D00022F08002224302608A68C2620A68826232
:1027E000984201D10969016301214161F0BD0000F6
:1027F000002C0140000400400008004010B501F02A
:102800001F030121046A99408C430462016A9A40C3
:102810001143016210BD10B5846842EA032224F41A
:102820007F440A432243826010BD826822F0700216
:102830000A4342F0070181607047000030B5036A27
:10284000026A22F0010202624268846924F0730580
:102850000C682C4323F002058B682B430A4DA842D9
:102860000BD123F00805CB6822F440722B434D694D
:1028700023F0040315438A692A434260846149684E
:102880004163036230BD0000002C014030B5026A94
:10289000036A23F010030362436884690D6824F41B
:1028A000E64444EA05248D6822F0200242EA05123B
:1028B0000B4DA8420ED1CD6822F0800242EA0512EB
:1028C0004D6923F4406343EA85038D6922F0400299
:1028D00043EA85034360846149688163026230BDD5
:1028E000002C014030B5036A026A22F48072026251
:1028F0004268C46923F4007324F073050C682C4308
:102900008D6843EA05230C4DA8420ED1CD6823F40F
:10291000006343EA05234D6922F4405242EA05125E
:102920008D6923F4806342EA05124260C4614968FC
:10293000C163036230BD0000002C014030B5046A61
:10294000026A22F4805202624268C3690D6823F46D
:10295000E64343EA05238D6824F4005444EA053431
:10296000064DA84204D14D6922F4804242EA851204
:102970004260C36149680164046230BD002C0140BB
:1029800010B5036A046A24F001040462846924F027
:10299000F00444EA021423F00A020A43846102624A
:1029A00010BD10B5036A046A24F01004046284693F
:1029B00023F0A00324F4704444EA023243EA0111F4
:1029C0008261016210BD10B5406A0021C185C184D9
:1029D000FFF725FB10BD70B5446A2068406994F884
:1029E0004110C0F3C0100025212904D118B1E5849D
:1029F000204600F08EF82068406994F84210C0F339
:102A00008010222904D118B1E585204600F05AF83B
:102A1000606C40F0100060642046FFF700FB70BD62
:102A200010B50146406A096809684FF0000289063E
:102A30002ED4C28501680C3151E8003F23F4807325
:102A400041E80034002CF5D10168143151E8003F11
:102A500023F0010341E80034002CF5D10168143162
:102A600051E8003F23F0400341E80034002CF5D149
:102A7000202180F84210016B012909D101680C3135
:102A800051E8003F23F0100341E80034002CF5D159
:102A90004263016B012902D0FFF7D6FC10BD818D86
:102AA000FFF784FA10BD10B5406A01214163016B44
:102AB000012902D0FFF7C9FC10BD818D4908FFF73D
:102AC00075FA10BD01680C3151E8002F22F49072A4
:102AD00041E80023002BF5D10168143151E8002FA3
:102AE00022F0010241E80023002BF5D1016B0129FE
:102AF00009D101680C3151E8002F22F0100241E8A1
:102B00000023002BF5D1202180F842100021016321
:102B1000704701680C3151E8002F22F0C00241E8F3
:102B20000023002BF5D1202180F84110704708B513
:102B300090F84210222901D0022008BD82684FF48B
:102B400080539A4201D1016921B1816A9A421BD016
:102B50004AB10AE00268816A5268C2F308020A8038
:102B6000816A891C08E0026972B10268526802F049
:102B70007F020A70816A491C8162C18D491E090465
:102B8000090CC18503D01BE002685268F1E70168B7
:102B9000CA6822F02002CA600168CA6822F4807202
:102BA000CA6001684A6922F001024A61202180F866
:102BB000421000214163026B012A03D0FFF744FC5D
:102BC000002008BD016301680C3151E8002F22F09C
:102BD000100241E80023002BF5D101680A68D206F3
:102BE00002D50A6849680091818DFFF7DFF9E7E7B0
:102BF00070B5044600680169E26821F44051114350
:102C000001612169A0680843616908432168CA68B5
:102C100041F20C639A430243CA6020684169A26989
:102C200021F44071114341611E492068884202D15C
:102C3000FEF726FD01E0FEF713FD00EBC00101EBFE
:102C40000012606864218000B2FBF0F3B3FBF1F383
:102C50006FF018067343B2FBF0F5B2FBF0F605EB2C
:102C60008305322303EB0515B5FBF1F5B6FBF1F651
:102C700005F0F00505EB0615B2FBF0F6B2FBF0F03F
:102C8000B0FBF1F06FF01802504306EB800003EB4D
:102C90000010B0FBF1F0216800F00F0028448860BC
:102CA00070BD00000038014038B58162044682855D
:102CB000002013466064222284F84220E56B1B4A00
:102CC000AA62E56B1A4AEA62E56B1A4A2A63E26B6A
:102CD00050630A462168E06B091DFEF74DFA206833
:102CE000016840680090206948B120680C3050E8C5
:102CF000001F41F4807140E80012002AF5D12068DD
:102D0000143050E8001F41F0010140E80012002A91
:102D1000F5D12068143050E8001F41F0400140E830
:102D20000012002AF5D1002038BD0000212A000839
:102D3000A72A0008D72900082DE9F0419846174630
:102D40000E460446069D27E0681C25D02DB1FEF7EF
:102D500053FBA0EB0800A8421ED920680C3050E8B5
:102D6000001F21F4D07140E80012002AF5D120683C
:102D7000143050E8001F21F0010140E80012002A41
:102D8000F5D1202084F8410084F84200002084F826
:102D900040000320BDE8F0812068006836EA0000AA
:102DA00004D00020B842CFD00020F3E70120F9E79B
:102DB00010B50448FFF734F9BDE810400148FEF7AC
:102DC00031B800007C01002010B50448FFF728F955
:102DD000BDE810400148FEF725B80000C4010020FE
:102DE00070B5044600682A49884226D12046FFF77C
:102DF000DEF8284800684068C0F13200C5B22946B4
:102E000025A0FDF7F1F94FF400732A462949204621
:102E1000FFF71CFB2749322201F13200FDF78AFA45
:102E20002448323000F05CF829462248FDF7C7FA02
:102E3000322220492046FFF7F9FA1F4920688842CC
:102E400024D12046FFF7B3F81248443000684068A8
:102E5000C0F13200C5B229460FA0FDF7C5F91549EA
:102E60003222643101F13200FDF764FA11489630E4
:102E700000F044F80F4829466430FDF7A0FA2046D8
:102E8000BDE8704032220B49FFF7D0BA70BD000098
:102E9000003801400C0200205265636569766520A8
:102EA00044617461286C656E677468203D202564F8
:102EB000293A2000B400002000480040FEE709073E
:102EC000090E002804DB00F1E02080F800147047B0
:102ED00000F00F0000F1E02080F8141D70470000A2
:102EE000014601A0FDF780B95553415254312042AB
:102EF00075666665723A2025730D0A00014601A0C9
:102F0000FDF772B9555341525433204275666665D8
:102F1000723A2025730D0A0013B54FF6FF73012294
:102F200069460248FFF792FA00981CBD7C01002018
:102F3000FEF770FAFFF7F8FBFFF7F6FAFFF7D6FA9D
:102F4000FFF780FBFFF7B2FBFFF7CCFBFFF724FB9B
:102F500000210D48FEF7DAFF04210B48FEF7D6FFEB
:102F600000F014F8084C4FF4FA7640F6B83540F605
:102F7000C417206846632846FEF736F92068476381
:102F80002846FEF731F9F4E724000020024800212A
:102F90000160416070470000000000200102020350
:102FA0000405060708090A0B0C0D0E0F101000008F
:102FB00000000000000001020304060708090000E9
:102FC0000000010203043A7474003A7474003A7405
:102FD00074000000F42F000800000020240000000E
:102FE000280100081830000824000020CC09000047
:102FF0004401000800000000000000000100000083
:1030000010000000000000000024F4000000000098
:083010000000000000000000B8
:04000005080000ED02
:00000001FF
