:020000040800F2
:100000009808002001010008E529000809250008DA
:1000100051290008CD09000809330008000000003C
:10002000000000000000000000000000732A00082B
:10003000610A000800000000712A0008A92B0008CE
:100040001B0100081B0100081B0100081B01000820
:100050001B0100081B0100081B0100081B01000810
:100060001B0100081B0100081B0100081B01000800
:100070001B010008D10900081B010008DD09000868
:100080001B0100081B0100081B0100081B010008E0
:100090001B0100081B0100081B0100081B010008D0
:1000A0001B0100081B0100081B0100081B010008C0
:1000B0000D2C00081B010008192C00081B0100086A
:1000C0001B0100081B0100081B0100081B010008A0
:1000D0001B010008453200081B0100085D320008C2
:1000E0001B0100081B0100081B010008DFF80CD0F1
:1000F00000F00EFC00480047B940000898080020B6
:100100000648804706480047FEE7FEE7FEE7FEE7B1
:10011000FEE7FEE7FEE7FEE7FEE7FEE70B2C000842
:10012000ED000008202A04DB203A21FA02F0002129
:10013000704721FA02F3D040C2F1200291400843F7
:100140001946704740EA01039B0703D009E008C93C
:10015000121F08C0042AFAD203E011F8013B00F88C
:10016000013B521EF9D27047D2B201E000F8012BD8
:10017000491EFBD270470022F6E710B513460A4627
:1001800004461946FFF7F0FF204610BDF0B480EAA0
:100190000102D40F4200B2EB410F02D202460846E0
:1001A00011464A0042D0C30DDDB2C1F3C752AD1AA9
:1001B000202D35DAC1F3160141F4000204B1524298
:1001C000C5F1200602FA06F12A411044B3EBD05FD4
:1001D00023D0C4B1012DA0EBC35009DCF0BC4FF01B
:1001E000004202EAC352DBB200F5000000F0BEB9E3
:1001F000400000F1807000EBC350A0F1807040EA35
:10020000D170490009E0490841EAC071A0EBC35030
:1002100000F50000400800EBC350F0BC00F09DB9B1
:100220006142012202EB4101001BF6E7F0BC70477E
:1002300081F00041AAE780F00040A7E780EA0102D0
:1002400010B502F00043400022D04A001FD0010E3A
:1002500001EB1261C0F35600C2F3560240F40000F5
:1002600042F40002A0FB022000047F39140400D0F5
:10027000401C50EA124001D44000491EC2B20C0694
:1002800004EBD010401C4008802A02D003E000207C
:1002900010BD20F00100002900DA0020184310BD35
:1002A00030B480EA010202F0004530F0004221F053
:1002B000004013D090B1C30DD40DC2F31601C0F3AA
:1002C0001600E41A41F4000140F400027D3491422A
:1002D00001D3641C00E04900002C02DA30BC00208D
:1002E00070474FF400000023914201D3891A034361
:1002F00040084FEA4101F7D151B1914202D14FF08C
:10030000004105E002D24FF0010101E06FF0010170
:1003100003EBC450284430BC00F01FB92DE9FE4F58
:1003200081EA030404F0004421F0004100944FF0FE
:10033000000B23F0004350EA01045ED052EA0304AC
:100340005BD0C3F30A54C1F30A552C44A4F2F3342E
:100350000194A0FB0254C1F3130141F48011C3F3D3
:10036000130343F4801301FB024400FB034E840A91
:10037000970A44EA815447EA8357A4FB0768029529
:100380008D0A05FB07854FEA932C04FB0C542705C7
:10039000029D4FEA065847EA1637B5EB08056EEBA3
:1003A000070C870E920E47EA811742EA8312A7FBD9
:1003B0000201B6EB0B0164EB00042B0D43EA0C3396
:1003C0005E1844EB1C50DA465146E7FB0201C5F3C8
:1003D00013044FEA0B3343EA14534FEA0432019CEF
:1003E00043EA0603A4F10C040294009CCDE900B496
:1003F00000F0F9F803B0BDE8F08F00200146F9E7FE
:10040000C10F80EAE0700844CA079623002100F07B
:10041000ADB896230022114600F0A8B820F00040A5
:10042000C10DC0F3160040F400007F2901DA00205E
:100430007047962903DCC1F19601C8407047963990
:100440008840704700F0004230F000400AD0C10DF3
:1004500001F56071C0F3160042EA0151C20840077D
:100460001143704700200146704701F0004330B44B
:1004700021F0004150EA010206D00A0DA2F5607297
:10048000C1F31301002A02DC30BC00207047440F86
:1004900044EAC104C100E01830BC00EBC25000F0D7
:1004A0005CB80000002801DBC0F10040002901DB3E
:1004B000C1F1004181427047002801DBC0F10040DA
:1004C000002901DBC1F100418842704730B50B467D
:1004D000014600202022012409E021FA02F59D4274
:1004E00005D303FA02F5491B04FA02F52844151E48
:1004F000A2F10102F1DC30BD2DE9F05F05460020DC
:1005000092469B4688460646814640241BE0284684
:10051000414647462246FFF705FE53465A46C01A53
:10052000914110D311461846224600F003FA2D1AC5
:1005300067EB01084F4622460120002100F0FAF93E
:1005400017EB00094E41201EA4F10104DFDC4846F0
:1005500031462A464346BDE8F09F0029A8BF7047B0
:10056000401C490008BF20F00100704710B4B0FAE9
:1005700080FC00FA0CF050EA010404BF10BC704784
:1005800049B1CCF1200421FA04F411FA0CF118BF9E
:10059000012121430843A3EB0C01CB1D4FEA00616D
:1005A0004FEA102042BF002010BC704700EBC35040
:1005B00010440029A4BF10BC7047401C490008BF6C
:1005C00020F0010010BC704710B5141E73F1000438
:1005D00008DA401C41F1000192185B411A4301D135
:1005E00020F0010010BD2DE9F04D92469B4611B15F
:1005F000B1FA81F202E0B0FA80F22032904600F0C7
:1006000099F904460F4640EA0A0041EA0B015346B5
:100610005A46084313D0114653EA010019D0C8F1D5
:1006200040025046FFF77EFD05460E4650465946AD
:10063000424600F07FF9084305D0012004E020463F
:100640003946BDE8F08D0020054346EAE0762C43AC
:1006500037430A986305E40AA0EB08000022FD0A6C
:1006600044EA47540A3002D500200146E9E7010573
:1006700010196941DDE9084500196941BDE8F04DEF
:10068000A2E72DE9FE4F804681EA0300C00F0C4629
:10069000009021F0004123F00045B8EB0200A94191
:1006A00005D24046214690461C460B46024623F0A2
:1006B0000040104347D0270DC7F30A00C3F30A5187
:1006C0000290401A019040286BDAC3F3130040F403
:1006D000801B0098924620B10023D2EB030A63EB03
:1006E0000B0B01985946C0F14002504600F022F928
:1006F00006460D4650465946019A00F02AF910EB7D
:1007000008006141002487EA115284EAE7731A4322
:1007100040D0009A62B3019A012A4FEA075215DCD1
:10072000001B61EB02014FF0004202EA0752CDE9E3
:100730000042001C41F5801132462B46FFF753FF63
:1007400003B0BDE8F08F40462146F9E7001B61EB9E
:100750000201001C41F5801300185B412018A2F52E
:10076000001747EB030140EAD570B6196D4111E05F
:100770006D084FEA360645EAC0754FEA0752001B7E
:1007800061EB0201001C41F5801149084FEA30007D
:100790000019514132462B4603B0BDE8F04FFFF738
:1007A00013BF0098012240000023D0EB020263EB4C
:1007B000E073009821464FEAE074B8EB000061EB6B
:1007C0000401E9E783F000435BE781F0004158E76B
:1007D0002DE9F04D81EA030404F0004B21F00045BF
:1007E00014464FF0000A23F0004150EA050220D0E1
:1007F00054EA01021DD0C5F30A570246C5F313039C
:10080000C1F31300C1F30A5640F4801543F480137A
:10081000A7EB0608101BD64608F2FD3873EB05005F
:1008200002D308F1010801E092185B41B8F1000F12
:1008300003DA00200146BDE8F08D00204FF480115E
:10084000064684460EE0171B73EB050705D3121B03
:1008500063EB050306434CEA010C49084FEA3000FC
:1008600092185B4150EA0107EDD152EA030012D021
:1008700082EA040083EA0501084305D0101BAB415E
:1008800006D20122002306E000224FF0004302E0DE
:100890006FF0010253101AEB06004CEB085110EBFD
:1008A0000A0041EB0B01BDE8F04DFFF78DBEC1F32F
:1008B0000A52C1F3130140F2FF3341F480119A420E
:1008C00002DA00200146704740F233439A42A2F216
:1008D000334202DC5242FFF725BC00F02BB8000087
:1008E00030B5041E71F1000404DB4FF000444042B7
:1008F00064EB0101141E73F1000405DB1C464FF08C
:100900000043524263EB0403994208BF904230BD5A
:10091000064C074D06E0E06840F0010394E807004C
:1009200098471034AC42F6D3FFF7E4FBA04100082F
:10093000C0410008202A04DB203A00FA02F100201E
:1009400070479140C2F1200320FA03F3194390400D
:100950007047202A06DBCB17203A41FA02F043EA1F
:10096000E07306E041FA02F3D040C2F12002914068
:10097000084319467047000038B5044601680F481F
:10098000814209D10868C043C00605D40868486898
:1009900000900B4802F06EFC0A49206888420BD197
:1009A0000168C943C90607D4016840680090BDE8E2
:1009B0003840054802F05EBC38BD000000380140F8
:1009C0008003002000480040C8030020FEE700002C
:1009D000014800F0B7B8000054040020014800F0BE
:1009E000B1B800001004002030B590F84050012448
:1009F000AC40C56B6C60046863604368102B03688F
:100A000003D099600068C26030BD9A600068C16020
:100A100030BD000010B5044600680E49884208D178
:100A2000C16841F01001C16032220B49204601F03B
:100A30000DFD0A49206888420BD1C16841F01001C0
:100A4000C160054920463222BDE81040643101F002
:100A5000FDBC10BD00380140980100200048004056
:100A6000704772B6FEE710B590F8211000220229F7
:100A700005D00421816380F82020012010BD016889
:100A80000B6823F00E030B6001680B6823F0010371
:100A90000B6090F84030C46B012101FA03F36360EE
:100AA00080F8211080F82020104610BD10B590F875
:100AB00021100024022903D00421816301243DE098
:100AC00001680A6822F00E020A6001680A6822F0D2
:100AD00001020A601A4A0168914201D1012121E014
:100AE000174A1432914201D110211BE0144A2832D6
:100AF000914201D1891515E0114A3C32914201D150
:100B000089140FE00E4A5032914202D14FF48031E5
:100B100008E00B4A6432914202D14FF4801101E0A7
:100B20004FF08071064A083A5160012180F8211087
:100B3000002180F82010416B01B18847204610BD8C
:100B4000080002402DE9F05FC16B0C6801680B687A
:100B5000D0F840C0042202FA0CF2494DDFF824A17B
:100B6000494E4A4FDFF828B1DFF828E122422CD065
:100B70005A072AD50A68920603D40A6822F00402AA
:100B80000A600168A94201D1042219E0514501D14E
:100B9000402215E0B14202D14FF4806210E0B94228
:100BA00002D14FF480420BE0594502D14FF480222C
:100BB00006E0714502D14FF4800201E04FF08062FF
:100BC0002F4908394A60C16A3BE04FF0020808FA31
:100BD0000CF818EA040F4FF000094FF0010235D06D
:100BE0005FEA837832D50B689B0605D40B6823F047
:100BF0000A030B6080F821200168A94201D102227A
:100C000019E0514501D1202215E0B14202D14FF443
:100C1000007210E0B94202D14FF400520BE0594586
:100C200002D14FF4003206E0714502D14FF40012B8
:100C300001E04FF00072124908394A6080F82090B4
:100C4000816A00291AD0BDE8F05F0847082505FA37
:100C50000CF5254212D01B0710D50B6823F00E03AC
:100C60000B6090F84010C36B02FA01F15960826387
:100C700080F8212080F82090016BE2E7BDE8F09F2A
:100C8000080002401C0002403000024044000240C4
:100C9000580002406C00024030B528B308C8134920
:100CA00014221944B1FBF2F18900C1631049816338
:100CB000022141771A6843F6F0718A43D0E90014A3
:100CC0002143D0E902452C4321430469214344696F
:100CD00021438469214311431960002141630122AA
:100CE00042770177084630BD012030BDF8FFFDBFD7
:100CF0000000024070B5044690F82000002501284D
:100D00000CD0012084F8200094F821600020012EEE
:100D100006D084F820000225284670BD022070BD50
:100D2000022684F82160A0632068066826F0010688
:100D300006602046FFF758FEE06A00282068016838
:100D400002D041F00E0106E021F0040101602068AC
:100D5000016841F00A0101602068016841F0010169
:100D60000160D9E770B5044600F008F90546601C3B
:100D700002D004480078044400F000F9401BA0426F
:100D8000FAD370BD500000202DE9F84FDFF8B8917C
:100D90000024A9F1040B23460F2709F1040AABF143
:100DA000040EC9E00125A5402A40AA427DD1674E24
:100DB000D1F804C0ACEB0608B44532D014DCBCF169
:100DC000030F3AD009DCBCF1000F2AD0BCF1010FAF
:100DD0001CD0BCF1020F31D11DE0BCF1110F17D0B6
:100DE000BCF1120F2AD119E0B8F5881F19D006DC22
:100DF000B8F5803F15D0B8F5801F1FD111E0B8F5C8
:100E0000001F0ED0B8F5041F18D10AE0CB6815E01A
:100E1000CB681B1D12E0CB6808330FE0CB680C33A6
:100E20000CE08B682BB1012B4FF0080303D0456118
:100E300004E0042302E0056100E00023FF2A01D85A
:100E4000064601E000F104064FEA840501D9A5F148
:100E50002005D6F8008007FA05FC28EA0C0803FAFA
:100E600005F548EA0508C6F800804D68ED0062D532
:100E7000374DAE6946F00106AE61AD6924F0030658
:100E800005F001050095334D06EB050CDCF8085024
:100E9000A607360F07FA06F825EA0805DFF8B88036
:100EA000404503D14FF0000817E044E0DFF8AC8084
:100EB000404502D14FF001080FE0DFF8A480404523
:100EC00002D14FF0020808E0DFF89880404502D1D7
:100ED0004FF0030801E04FF0040808FA06F848EA6A
:100EE0000508CCF808804D68D9F80060ED024D4641
:100EF00001D5164300E096432E604D68DAF8006095
:100F0000AD02554601D5164300E096432E604D686C
:100F1000DBF80060AD035D4601D5164300E0964363
:100F20002E604D68DEF80060ED03754601D516436E
:100F300000E096432E60641C0D682A46E5407FF46D
:100F400031AFBDE8F88F0000080401400000111027
:100F5000001002400000014000080140000C014068
:100F600000100140001401408068084000D00120BA
:100F700070470AB1016170470904FBE701488068C6
:100F80007047000050000020024881680278114438
:100F90008160704750000020074810B5016841F09B
:100FA00010010160032000F075F80F2000F006F832
:100FB00000F024F8002010BD0020024070B50D4D57
:100FC00004464FF47A712878B1FBF0F00A490968B9
:100FD000B1FBF0F000F0DCFA48B9102C07D2002287
:100FE0002146501E00F036F800206C6070BD0120D4
:100FF00070BD0000500000205C0000200C4808B5C7
:10100000816941F001018161816901F00101009173
:10101000C16941F08051C161C06900F08050009009
:101020000448416821F0E06141F00071416008BD71
:101030000010024000000140002809DB00F01F0200
:10104000012191404009800000F1E020C0F800112A
:1010500070470000F0B40E4B1B680C46C3F302232C
:10106000C3F10705042D00D90425191D072901D254
:10107000002300E0DB1E012606FA05F1491E21408F
:1010800099409E40761E16403143F0BC02F04EB9A6
:101090000CED00E0064900F0070208684FF6FF0378
:1010A000184040EA0220034A1043086070470000DD
:1010B0000CED00E00000FA052DE9F0470F460500B1
:1010C00061D0434E306800F00700B84209D2306862
:1010D00020F0070038433060306800F00700B84265
:1010E00051D128683B4C810712D5400703D5606871
:1010F00040F4E06060602878000703D5606840F441
:10110000605060606068A96820F0F000084360608B
:101110002878C00728D06868012810D021680228E4
:1011200010D0890700292EDA616821F003010143FC
:101130006160FFF723FF804641F288390DE02168A6
:101140008903EFE78901EDE7FFF718FFA0EB08013E
:10115000494502D90320BDE8F0876068696800F05E
:101160000C00B0EB810FEFD1306800F00700B842FF
:101170000BD9306820F0070038433060306800F049
:101180000700B84201D00120E5E72878400705D5DF
:101190006068E96820F4E060084360602878000730
:1011A00006D56068296920F4605040EAC10060609B
:1011B00000F038F86168084AC1F30311515CC84077
:1011C0000649086006480068FFF7F8FE0020C2E7FD
:1011D0000020024000100240864100085C00002010
:1011E000540000200448054900684968044AC1F3D6
:1011F0000221515CC84070475C0000200010024092
:10120000964100080448054900684968044AC1F34A
:10121000C221515CC84070475C00002000100240B1
:10122000964100080E4A51680E4801F00C03042B49
:1012300011D0082B0FD10C48C1F38343C903C05C04
:101240000AD55168084AC1F34041921E515C054AD3
:101250005043B0FBF1F07047044948437047000029
:101260000010024000127A007641000800093D009B
:101270002DE9F84F040070D02078C04DC00749D048
:101280006868C0F38100012807D06868C0F3810056
:10129000022809D16868C00306D52868800339D5BB
:1012A00060680028E7D035E06068B0F5803F0BD07B
:1012B00010B1B0F5A02F11D0286820F4803028603C
:1012C000286820F4802002E0286840F480302860FC
:1012D000606890B1FFF752FE06460AE0286840F4C5
:1012E00080202860F0E700BFFFF748FE801B6428DD
:1012F00073D828688003F7D50CE0FFF73FFE064659
:1013000005E000BFFFF73AFE801B6428F0D828688C
:101310008003F7D420789A4E80074FF001094FF0F0
:10132000000839D5686810F00C0F07D06868C0F362
:101330008100022809D16868C00306D428688007A4
:1013400014D52069012808D110E02069B0B1C6F891
:101350000090FFF713FE074605E00AE1FFF70EFED7
:10136000C01B0228C4D828688007F7D5286861699F
:1013700020F0F80040EAC10028600DE0C6F80080C7
:10138000FFF7FCFD074604E0FFF7F8FDC01B02284D
:1013900023D828688007F7D4207800072CD579480F
:1013A000A169D9B1C0F80090FFF7E8FD074604E055
:1013B000FFF7E4FDC01B02280FD8686A8007F7D545
:1013C00071484FF4FA510068B0FBF1F0009000BF93
:1013D0000098411E0091FAD20EE080E0C0F8008033
:1013E000FFF7CCFD074604E0FFF7C8FDC01B02284D
:1013F00075D8686A8007F7D42078400760D5E86917
:101400000027C00008D4E86940F08050E861E8692E
:10141000012700F0805000905C480168C90513D492
:101420000168834641F480710160FFF7A7FD8246A1
:1014300006E000BFFFF7A2FDA0EB0A0064284ED82B
:10144000DBF80000C005F5D5E06801280AD008B136
:10145000052813D0286A20F001002862286A20F0AD
:10146000040002E0286A40F001002862E06841F2CE
:10147000883B98B1FFF782FD82460BE0286A40F076
:1014800004002862EEE700BFFFF778FDA0EB0A0139
:1014900059455AD8286A8007F6D50CE0FFF76EFD4B
:1014A000824605E0FFF76AFDA0EB0A0159454CD8DA
:1014B000286A8007F6D41FB1E86920F08050E861FF
:1014C000E06988B36968C1F38101022944D0022828
:1014D000C6F8608004D0FFF751FD044638E034E0E0
:1014E000FFF74CFD074604E0FFF748FDC01B02284C
:1014F0002BD828688001F7D4206AB0F5803F05D149
:101500006868A16820F4003008436860D4E90801E5
:101510000843696821F4741108436860C6F8609054
:10152000FFF72CFD044606E025E000BFFFF726FD8F
:10153000001B022809D828688001F7D51BE000BFEE
:10154000FFF71CFD001B022802D90320BDE8F88F1D
:1015500028688001F4D40EE00128F7D06868226A78
:1015600000F48031914204D1616A00F47010884225
:1015700001D00120EAE70020E8E700000010024067
:1015800000004242800442425C00002000700040A3
:1015900010B5401EB0F1807F01D3012010BD4FF087
:1015A000E02460610F21601701F0C0FE0020A061FF
:1015B00007202061002010BD7047704770B590F87B
:1015C0003C20012A26D0012480F83C40022280F8E9
:1015D0003D2003685A689D6822F070060A6832430D
:1015E0005A600D4B02689A4208D0B2F1804F05D084
:1015F0000A4B9A4202D00A4B9A4204D1496825F01C
:1016000080031943916080F83D40002180F83C1030
:10161000084670BD022070BD002C0140000400404F
:101620000008004010B5040003D094F83D0010B14C
:1016300007E0012010BD002084F83C00204600F0A7
:101640001FF8022084F83D00211D206801F0EAFA0D
:10165000012084F8460084F83E0084F83F0084F8B6
:10166000400084F8410084F8420084F8430084F884
:10167000440084F8450084F83D00002010BD0000BF
:1016800008B5114A01681148914208D1C16941F079
:101690000201C161C06900F00200009008BD0C4A5F
:1016A0009142FBD1C16941F00401C161C0690022CE
:1016B00000F00400009001211E20FFF7CBFCBDE8E4
:1016C00008401E20FFF7B8BC000400400010024094
:1016D0000008004090F83D10012901D0012070471A
:1016E000022180F83D100168CA6842F00102CA6018
:1016F00000680B49884208D0B0F1804F05D00949F5
:10170000884202D00849884204D1816801F007016B
:10171000062903D0016841F00101016000207047F3
:10172000002C0140000400400008004070B5044651
:1017300090F83C000025012817D0012684F83C6071
:10174000022084F83D002068826822F0770222F4AB
:101750007F4282600868502838D00DDC20284FD0A6
:1017600005DC90B3102811D14AE0022070BD30286A
:1017700046D040280AD13BE060282FD070280DD0F9
:10178000B0F5805F03D0B0F5005F12D0012584F87A
:101790003D60002084F83C00284670BDCB68D1E94C
:1017A0000121206801F081FA2068816841F0770109
:1017B00009E0CB68D1E90121206801F076FA2068C0
:1017C000816841F480418160E1E719E0CA684968B5
:1017D000206801F01FFB5021206806E0CA684968B4
:1017E000206801F028FB6021206801F068FACEE74C
:1017F000CA684968206801F00DFB40212068F4E7C1
:10180000226801461046F0E72DE9F0410D4604003C
:1018100003D094F83D0018B108E00120BDE8F08144
:10182000002084F83C00204600F040F8022084F8B4
:101830003D002068816844F2070291438160211DC8
:10184000206801F0EFF9226890689169166A2B68A8
:10185000AF69034340F20330814341EA0721A8689E
:10186000EF6908434FF6FC418843E96840EA0720E6
:10187000014328692F6A000140EA0730084369687C
:101880006D6926F0220646EA051529439360226811
:10189000906154F8460B0162012004F81F09E075BD
:1018A0002076E0762077A0750020B7E710B586B0E7
:1018B00000210091019102910391214C036821497B
:1018C00001222148A34218D18B6943F400638B6144
:1018D0008B6903F4006304938B6943F004038B6109
:1018E0008969029201F0040104914FF44071009162
:1018F0006946FFF749FA06B010BDB3F1804FFAD13F
:10190000CB6943F00103CB61CB6903F0010304937E
:101910008B6943F004038B618969029201F0040131
:101920000491032100916946FFF72EFA0022114627
:101930001C20FFF78FFB1C20FFF77EFBDBE700007E
:10194000002C0140001002400008014070B590F8E2
:101950003E60044690F83F5090F8423090F84320A3
:10196000022021B104290ED0012E1BD114E0012E3A
:1019700018D1012B16D184F83E0084F842000122D0
:101980000021206820E0012D0CD1012A0AD184F821
:101990003F0084F8430014E0012D03D1012B01D155
:1019A000012A01D0012070BD84F83E0084F83F0078
:1019B00084F8420084F8430001220021206801F0ED
:1019C00067F901220421206801F062F920680168AA
:1019D00041F001010160002070BD704770B5044600
:1019E000006801694FF00005C943890715D4C16833
:1019F000C943890711D4E91E0161012020772068BD
:101A000080698007204602D0FFF7E7FF04E000F07E
:101A1000D1F8204600F063F9257720680169C943B1
:101A2000490717D4C168C943490713D46FF00401AB
:101A30000161022020772068806910F4407F2046F1
:101A400002D0FFF7CAFF04E000F0B4F8204600F02F
:101A500046F9257720680169C943090716D4C1688A
:101A6000C943090712D46FF00801016104202077EF
:101A70002068C0698007204602D0FFF7AEFF04E06F
:101A800000F098F8204600F02AF9257720680169CF
:101A9000C943C90617D4C168C943C90613D46FF036
:101AA00010010161082020772068C06910F4407F90
:101AB000204602D0FFF791FF04E000F07BF82046BB
:101AC00000F00DF9257720680169C943C90708D1DD
:101AD000C168C943C90704D1891E0161204600F0CD
:101AE0004DF920680169C943090609D4C168C94391
:101AF000090605D46FF0800101612046FFF75CFD07
:101B000020680169C943490609D4C168C943490627
:101B100005D46FF040010161204600F04FFA2068C3
:101B20000169C94389060BD4C168C943890607D432
:101B30006FF0200101612046BDE87040FFF73DBD18
:101B400070BD000010B586B0002100910191029196
:101B5000039100681349884221D11348816941F0FB
:101B600004018161816901F004010491816941F0FE
:101B7000080181618069022400F008000490C020FF
:101B8000CDE90004694609480394FFF7FDF80320F6
:101B9000CDE90004694606480394FFF7F5F806B05E
:101BA00010BD000000040040001002400008014089
:101BB000000C0140704770B5044690F83C000026C8
:101BC0000D4601280FD0012084F83C006AB1042A98
:101BD0001DD0082A2FD00C2A3FD00126002084F8DF
:101BE0003C00304670BD022070BD206801F070F8E6
:101BF0002068816941F0080181612068816921F0D4
:101C000004018161206881692A69114311E020681B
:101C100001F086F82068816941F4006181612068E3
:101C2000816921F480618161206881692A6941EAC2
:101C300002218161D2E7206801F09EF82068C16925
:101C400041F00801C1612068C16921F00401C1614E
:101C50002068C1692A69114311E0206801F0B8F8D1
:101C60002068C16941F40061C1612068C16921F443
:101C70008061C1612068C1692A6941EA0221C161AC
:101C8000ACE710B5040003D094F83D0010B107E0B4
:101C9000012010BD002084F83C00204600F01EF812
:101CA000022084F83D00211D206800F0BBFF0120C8
:101CB00084F8460084F83E0084F83F0084F8400031
:101CC00084F8410084F8420084F8430084F844001A
:101CD00084F8450084F83D00002010BD704770472F
:101CE00010B50446022249B104290ED0082913D0A8
:101CF00094F84100012816D0012010BD94F83E0050
:101D00000128F9D184F83E200FE094F83F00012823
:101D1000F2D184F83F2008E094F840000128EBD18C
:101D200084F8402001E084F841200122206800F07E
:101D3000AFFF0F492068884203D1426C42F4004251
:101D400042642068884208D0B0F1804F05D009492C
:101D5000884202D00849884204D1816801F0070115
:101D6000062903D0016841F001010160002010BD87
:101D7000002C014000040040000800402DE9FC5FF9
:101D800078490068096888427DD177480168086809
:101D9000C0F30012754802744B6AB0F90820CC6A8F
:101DA00044F6382802FB043343600568EC1A4445C6
:101DB00001DD521C03E05B1B434507DD521E12B2DE
:101DC00002814B6AC96A02FB0131416081460446C7
:101DD0004068401BFEF714FB6549FEF761FA654950
:101DE000FEF72CFA6449E06000F044FEFEF72AFB9F
:101DF0004FF06632614BFEF791FAFEF736FBE0607A
:101E00006068DFF87CA120605E48DAF8001000F01E
:101E10007DFB5D4D01462861A868FEF7B7F90146D4
:101E20005A48E26800F044FE04462969A868FEF7B3
:101E3000ADF92146FEF7AAF9564EDFF854B12860F5
:101E4000316842F21077584509D28F6301465248F3
:101E5000FEF7EEF9FEF7E2FA3168486307E04F63F8
:101E60004D49FEF793F9FEF7D9FA316888634B487C
:101E7000006801684A4CC1F300112174426AB4F948
:101E80000810C36A00E06AE001FB03226260236875
:101E9000A3EB020CC44501DD491C05E0D21A424502
:101EA00001DC606807E0491E09B22181426AC06A0C
:101EB00001FB00206060C01AFEF7A2FA2C49FEF771
:101EC000EFF92C49FEF7BAF92B49E060503100F0E8
:101ED000D1FD3449FEF7B2F9E0606068206029481E
:101EE000DAF8001000F012FB01466861E868FEF7BE
:101EF0004DF901462548E26800F0DAFD04466969BB
:101F0000E868FEF743F92146FEF740F9686031685A
:101F1000584509D2CF6301461F48FEF789F9FEF7FD
:101F20007DFA3168086407E00F641B49FEF72EF95B
:101F3000FEF774FA3168C8632969A868FEF726F9C4
:101F4000FEF780FA04460D46D9F80C00FEF77AFA3F
:101F500002460B4614A0CDE9004501F0D7F9BDE8D3
:101F6000FC9F000038030020A80200207001002020
:101F70000000DC4300803B45640000206666F63FBD
:101F8000340000204C01002000000020040100204B
:101F900000008080F002002000401C46600200200B
:101FA00084010020000010406368616E6E656C73F0
:101FB0003A2025662C25660A00000000704770470D
:101FC00010B504460068406994F84110C0F3C01091
:101FD000212911D180B12068143050E8001F21F070
:101FE000800140E80012002AF5D1A06B08B1FEF78D
:101FF0003AFD204600F0D7FF2068406994F842106F
:10200000C0F38010222911D180B12068143050E82B
:10201000001F21F0400140E80012002AF5D1E06BDA
:1020200008B1FEF720FD204600F096FF002010BD0D
:1020300070470000F8B5016804460868CA684B6933
:1020400010F00F0F4FF0000559D003F0010602F415
:102050009077374365D0C10705D0D10503D5616CB2
:1020600041F001016164410705D5D90703D0616CD6
:1020700041F002016164810705D5D90703D0616C85
:1020800041F004016164010707D502F020013143EA
:1020900003D0616C41F008016164616C00293AD0A1
:1020A000800604D5900602D5204600F08AFF2068FD
:1020B0004069616CC0F38010090700D460B320460A
:1020C00000F04AFF20684069400621D5206814309E
:1020D00050E8001F21F0400140E80012002AF5D12D
:1020E000E06BA8B16D494163E06BFEF7DFFC0028AF
:1020F00011D0E06B416B01B0BDE8F04008478306AA
:102100000FD593060DD52046BDE8F84000F059BF25
:102110002046FFF78DFFF8BD2046FFF789FF656475
:10212000F8BD266B2023012E7CD1C6067AD5D606B3
:1021300078D508684868009048694FF00206400664
:1021400040D5E16B086840680004000CE8D0A28D1F
:102150008242E5D9E085886920282DD020680C309E
:1021600050E8001F21F4807140E80012002AF5D1E8
:102170002068143050E8001F21F0010140E80012EF
:10218000002AF5D12068143050E8001F21F04001EA
:1021900040E80012002AF5D184F842302563206817
:1021A0000C3050E8001F21F0100140E80012002A16
:1021B000F5D1E06BFEF757FC6663A08DE18D401A08
:1021C00081B22AE0A08DE18D401A81B2E08D002815
:1021D000A6D00029A4D022680C3252E8000F20F4C7
:1021E000907042E80007002FF5D12068143050E8C5
:1021F000002F22F0010240E80027002FF5D184F8DB
:102200004230256320680C3050E8002F22F0100285
:1022100040E80023002BF5D166632046FFF7CFFE90
:10222000F8BDFFE705062BD5150629D594F8410022
:102230002128F5D1A068B0F5805F01D12069B0B147
:10224000206A411C2162216800784860E08C401EB1
:102250000004000CE084E3D12068C16821F0800113
:10226000C1602068C16841F04001C160D8E7206AC0
:102270000088C0F308004860206A801C2062E5E7FF
:102280004006CDD55006CBD5CA68204622F0400284
:10229000CA6084F8413000F036F9C1E75B2E0008CF
:1022A00070B5040004D094F84100002510B106E098
:1022B000012070BD84F84050204600F023F824200F
:1022C00084F841002068C16821F40051C1602046B3
:1022D00000F0D8FE2068016921F490410161206876
:1022E000416921F02A0141612068C16841F400512F
:1022F000C1606564202084F8410084F84200656371
:10230000002070BDF0B585B00024009401940294C3
:1023100003940646DFF818C10368464802210322E9
:10232000454D802763453ED1836943F480438361F3
:10233000836903F480430493836943F00803836152
:102340008069039200F0080004904020CDE900016C
:1023500069462846FEF718FDCDE90074694628460F
:102360000294FEF711FD3548416841F0E06141F00B
:1023700004014160334D3248C5E90004C5E9024714
:102380002C616C61AC612846EC61FEF785FC08B1FC
:10239000FEF767FBF5630022114625206E62FEF70B
:1023A00059FE25203FE0DFF8A0C063453DD1C36959
:1023B00043F48023C361C36903F4802304938369D6
:1023C00043F0080383618069039200F008000490E1
:1023D0004FF48060CDE9000169462846FEF7D4FC41
:1023E0004FF40060CDE90004694628460294FEF7E8
:1023F000CBFC144D124844352838C5E90004C5E922
:1024000002472C616C61AC612846EC61FEF744FC2C
:1024100008B1FEF726FBF5630022114627206E6205
:10242000FEF718FE2720FEF707FE05B0F0BD0000FE
:102430000038014000100240000C01400000014043
:1024400058000240100400200048004090F842303C
:10245000202B01D00220704721B11AB10023036361
:1024600000F06CBE01207047704770472DE9F843BB
:10247000044690F841001F4616460D46202802D01B
:102480000220BDE8F8837DB176B100206064212090
:1024900084F84100FEF772FDA6848046E684A068B9
:1024A000B0F5805F02D003E00120EAE7206910B1B7
:1024B0002E4600250EE000260CE08021204600F08C
:1024C00085FEA0B9AEB116F8010B21684860E08C1A
:1024D000401EE084E08C43464FF000020097002845
:1024E000EBD14FF04001204600F070FE30B10320E8
:1024F000C7E735F8020BC0F30800E6E7202084F8B0
:1025000041000020BDE77047FEE700002DE9F047DD
:102510000446C160364800260D46814203DA35493B
:102520008D4200D8E660E1686069FDF72FFE014644
:102530006061A06980F000476068FDF77FFE394662
:10254000FDF7B0FF04D2A069616880F0004009E0A7
:1025500061696068FDF772FEA169FDF7ADFF04D205
:102560006168A069FDF79CFE606115F0FF4F00D126
:102570006661D4E903713846FDF75AFEA168FDF79C
:102580005DFE804661696068FDF758FE8146394608
:102590002068FDF753FE4946FDF7F8FD4146FDF77B
:1025A000F5FD1549E0618D4207D2884216D2216AB5
:1025B000FDF782FF13D2206A0AE0216A81F000420F
:1025C00001461046FDF778FF04D2206A80F00040F3
:1025D000E06104E0E069B0F5000F00DBE661E0686F
:1025E00015F0FF4F206100D1E661E069BDE8F0879A
:1025F0009A99993E9A9999BE000080800D4808B535
:10260000416941F0010141614069002200F001008F
:10261000009011460D20FEF71DFD0D20FEF70CFD6C
:10262000002211460F20FEF715FDBDE808400F20DF
:10263000FEF702BD0010024070B586B000242448A9
:102640000094019402940394816941F02001816116
:10265000816901F020010491816941F004018161E7
:10266000816901F004010491816941F008018161EF
:102670008069184E00F008000490002218213046AE
:10268000FEF777FC2420CDE9000469463046029429
:10269000FEF77AFB18200125CDE900050220CDE9DF
:1026A000024069463046FEF76FFB4FF47040CDE9BB
:1026B0000004694608480294FEF766FB28038DE88B
:1026C000310069463046FEF75FFB06B070BD000082
:1026D0000010024000080140000C014010B58CB011
:1026E00024216846FDF747FD002416480994144943
:1026F0000A94C0E9001444F62061C0E90241046173
:10270000446184610320CDE900040120CDE9020485
:102710000494CDE90540079469460A480894FFF7F8
:1027200073F808B1FEF79DF9099409A905480A94C0
:10273000FEF744FF002801D0FEF793F90CB010BD5E
:10274000002C01406002002010B58CB024216846A6
:10275000FDF711FD0024154809944FF080410A94BB
:10276000C0E9001444F62061C0E9024104618461BB
:102770000320CDE900040120CDE902040494CDE951
:1027800005400794694609480894FFF73DF808B1E9
:10279000FEF767F9099409A904480A94FEF70EFFA9
:1027A000002801D0FEF75DF90CB010BDA802002092
:1027B00010B58EB000240794089409940A940B94E1
:1027C0001C2168460C94FDF7D6FC2A482849016074
:1027D0004721C0E9011442F20F71C0E9031484617A
:1027E000FEF720FF08B1FEF73CF94FF48050079048
:1027F00007A92048FEF79AFF08B1FEF732F91D48F5
:10280000FFF73FFA08B1FEF72CF90B940BA9194812
:102810000C94FEF7D3FE08B1FEF723F96020CDE952
:10282000000402940022694612480494FFF7C3F999
:1028300008B1FEF716F9042269460E48FFF7BBF906
:1028400008B1FEF70EF9082269460A48FFF7B3F906
:1028500008B1FEF706F90C2269460648FFF7ABF906
:1028600008B1FEF7FEF80348FFF76CF90EB010BD93
:1028700000040040F002002010B586B00024174884
:102880000094019402940394049413490594016004
:1028900040F2CF21C0E9011442F21071C0E90314E3
:1028A0008461FEF7BFFE08B1FEF7DBF84FF48050FD
:1028B000009069460948FEF739FF08B1FEF7D1F8E4
:1028C000049404A905480594FEF778FE002801D079
:1028D000FEF7C7F806B010BD00080040380300201E
:1028E0000C4810B50A4901604FF461214160002194
:1028F00081600C22C160C0E904128161C161FFF7EF
:10290000CFFC002803D0BDE81040FEF7AAB810BDE8
:1029100000380140800300200C4810B50A490160CE
:102920004FF4E1314160002181600C22C160C0E9B7
:1029300004128161C161FFF7B3FC002803D0BDE838
:102940001040FEF78EB810BD00480040C8030020BC
:10295000FEE7000070B53C211C48FEF7F7FF1B4C5A
:102960002068C16841F00101C1603C211848FEF7B0
:10297000EDFF174D2868C16841F00101C16015489D
:10298000FEF7A8FE04211448FFF7AAF90021124817
:10299000FFF7A6F908211048FFF7A2F90C210E480D
:1029A000FFF79EF9216842F2107048622968486278
:1029B0000A490020086048600881C8600874084916
:1029C000086048600881C860087470BDA8020020D3
:1029D0006002002038030020F00200207001002077
:1029E00084010020FEE700002DE9F041194D00248C
:1029F000194FEC601948C5E905470668F06AFDF70C
:102A000008FD2C61C5E907401548C5E90004AC6024
:102A100024351448EC60C5E90540F06AFDF7F9FC7F
:102A20002C61C5E907401048C5E900044FF07E500D
:102A3000A8602435EC60C5E90547F06AFDF7E9FCBC
:102A40002C61C5E907400948C5E90004AC60BDE850
:102A5000F08100000401002000007A44F002002010
:102A6000CDCCCC3E0000A042000040400000A04180
:102A70007047704770B5064600200D465FF013049E
:102A800005EB840151F8041C45F82410FDF77EFB8A
:102A9000641E14F0FF04F3D1014630462E60FDF7AA
:102AA00075FBBDE870400149FDF7FABB0000A0418D
:102AB0002DE9F0470E46044611463046FDF7B8FBB7
:102AC00036490025E060884203DA3549884200D85B
:102AD000E560E1686069FDF759FB01466061A06946
:102AE00080F000476068FDF7A9FB3946FDF7DAFC86
:102AF00004D2A069616880F0004009E06169606803
:102B0000FDF79CFBA169FDF7D7FC04D26168A069C1
:102B1000FDF7C6FB606116F0FF4F00D16561D4E997
:102B200003713846FDF784FBA168FDF787FB8046FB
:102B300061696068FDF782FB814639462068FDF7D0
:102B40007DFB4946FDF722FB4146FDF71FFB15497A
:102B5000E0618E4207D2884216D2216AFDF7ACFCB2
:102B600013D2206A0AE0216A81F000420146104631
:102B7000FDF7A2FC04D2206A80F00040E06104E08E
:102B8000E069B0F5000F00DBE561E06816F0FF4F8B
:102B9000206100D1E561E069BDE8F0879A99993E2E
:102BA0009A9999BE00008080FEF7EEB930B58FB0DB
:102BB00028216846FDF7DFFA14210AA8FDF7DBFAA1
:102BC00001210804CDE9001000240294022504919B
:102BD000CDE907504FF4E01009906846FEF748FB36
:102BE00008B172B6FEE70F20CDE90A054FF4806008
:102BF000CDE90C4002210AA80E94FEF75DFA0028E8
:102C000001D072B6FEE70FB030BD70470148FEF745
:102C1000E5BE0000A80200200148FEF7DFBE00006C
:102C200038030020F0B50268164B174C174D4FF0D3
:102C30008047984205D0B84203D0A04201D0A842B4
:102C400003D122F070064A683243984205D0B84258
:102C500003D0A04201D0A84203D122F44074CA6834
:102C600022434C6922F08002224302608A68C262D9
:102C70000A688262984201D10969016301214161B8
:102C8000F0BD0000002C014000040040000800409E
:102C900010B501F01F030121046A99408C430462BE
:102CA000016A9A401143016210BD10B5846842EA7E
:102CB000032224F47F440A432243826010BD8268C9
:102CC00022F070020A4342F0070181607047000061
:102CD00030B5036A026A22F0010202624268846926
:102CE00024F073050C682C4323F002058B682B43FA
:102CF0000A4DA8420BD123F00805CB6822F440729C
:102D00002B434D6923F0040315438A692A4342602B
:102D1000846149684163036230BD0000002C0140BA
:102D200030B5026A036A23F01003036243688469C2
:102D30000D6824F4E64444EA05248D6822F020025C
:102D400042EA05120B4DA8420ED1CD6822F0800256
:102D500042EA05124D6923F4406343EA85038D6915
:102D600022F0400243EA850343608461496881633D
:102D7000026230BD002C014030B5036A026A22F4C1
:102D8000807202624268C46923F4007324F0730500
:102D90000C682C438D6843EA05230C4DA8420ED1E4
:102DA000CD6823F4006343EA05234D6922F44052C1
:102DB00042EA05128D6923F4806342EA05124260FB
:102DC000C4614968C163036230BD0000002C01404A
:102DD00030B5046A026A22F4805202624268C36912
:102DE0000D6823F4E64343EA05238D6824F4005478
:102DF00044EA0534064DA84204D14D6922F48042CC
:102E000042EA85124260C36149680164046230BDD0
:102E1000002C014010B5036A046A24F00104046226
:102E2000846924F0F00444EA021423F00A020A43FD
:102E30008461026210BD10B5036A046A24F01004B4
:102E40000462846923F0A00324F4704444EA02324B
:102E500043EA01118261016210BD10B5406A002190
:102E6000C185C184FFF7E4F810BD70B5446A2068DD
:102E7000406994F84110C0F3C0100025212904D105
:102E800018B1E584204600F08EF82068406994F877
:102E90004210C0F38010222904D118B1E5852046E4
:102EA00000F05AF8606C40F0100060642046FFF7B4
:102EB000BFF870BD10B50146406A096809684FF057
:102EC000000289062ED4C28501680C3151E8003F0A
:102ED00023F4807341E80034002CF5D101681431EB
:102EE00051E8003F23F0010341E80034002CF5D104
:102EF0000168143151E8003F23F0400341E80034F9
:102F0000002CF5D1202180F84210016B012909D154
:102F100001680C3151E8003F23F0100341E8003410
:102F2000002CF5D14263016B012902D0FFF79CFA16
:102F300010BD818DFFF743F810BD10B5406A012127
:102F40004163016B012902D0FFF78FFA10BD818D1B
:102F50004908FFF734F810BD01680C3151E8002F23
:102F600022F4907241E80023002BF5D1016814315E
:102F700051E8002F22F0010241E80023002BF5D197
:102F8000016B012909D101680C3151E8002F22F0B1
:102F9000100241E80023002BF5D1202180F84210D7
:102FA00000210163704701680C3151E8002F22F0C5
:102FB000C00241E80023002BF5D1202180F8411008
:102FC000704708B590F84210222901D0022008BDB0
:102FD00082684FF480539A4201D1016921B1816A1C
:102FE0009A421BD04AB10AE00268816A5268C2F371
:102FF00008020A80816A891C08E0026972B10268CD
:10300000526802F07F020A70816A491C8162C18D98
:10301000491E0904090CC18503D01BE002685268EF
:10302000F1E70168CA6822F02002CA600168CA6834
:1030300022F48072CA6001684A6922F001024A6182
:10304000202180F8421000214163026B012A03D045
:10305000FFF70AFA002008BD016301680C3151E84E
:10306000002F22F0100241E80023002BF5D1016867
:103070000A68D20602D50A6849680091818DFEF778
:103080009EFFE7E770B5044600680169E26821F435
:103090004051114301612169A068084361690843F7
:1030A0002168CA6841F20C639A430243CA602068EF
:1030B0004169A26921F44071114341611E492068B0
:1030C000884202D1FEF79EF801E0FEF78BF800EB94
:1030D000C00101EB0012606864218000B2FBF0F3D4
:1030E000B3FBF1F36FF018067343B2FBF0F5B2FBDC
:1030F000F0F605EB8305322303EB0515B5FBF1F57F
:10310000B6FBF1F605F0F00505EB0615B2FBF0F69F
:10311000B2FBF0F0B0FBF1F06FF01802504306EB99
:10312000800003EB0010B0FBF1F0216800F00F000D
:103130002844886070BD00000038014038B58162C5
:1031400004468285002013466064222284F84220CF
:10315000E56B1B4AAA62E56B1A4AEA62E56B1A4AFA
:103160002A63E26B50630A462168E06B091DFDF794
:10317000C1FD2068016840680090206948B120685E
:103180000C3050E8001F41F4807140E80012002A22
:10319000F5D12068143050E8001F41F0010140E8EB
:1031A0000012002AF5D12068143050E8001F41F0C9
:1031B000400140E80012002AF5D1002038BD00008F
:1031C000B52E00083B2F00086B2E00082DE9F041BA
:1031D000984617460E460446069D27E0681C25D0F3
:1031E0002DB1FDF7CBFEA0EB0800A8421ED9206848
:1031F0000C3050E8001F21F4D07140E80012002A82
:10320000F5D12068143050E8001F21F0010140E89A
:103210000012002AF5D1202084F8410084F84200F1
:10322000002084F840000320BDE8F0812068006899
:1032300036EA000004D00020B842CFD00020F3E7E7
:103240000120F9E710B50448FEF7F4FEBDE8104090
:103250000148FDF791BB00008003002010B5044831
:10326000FEF7E8FEBDE810400148FDF785BB000011
:10327000C803002070B5044600681E49884217D173
:103280002046FEF79DFE1C48006840681B49C0F1BF
:103290003200C5B2322201F13200FCF753FF294659
:1032A0001648FCF768FF322214492046FFF7CEF893
:1032B0001349206888421CD12046FEF781FE114840
:1032C000006840680D49C0F13200C5B26431322255
:1032D00001F13200FCF736FF084829466430FCF75C
:1032E0004AFF2046BDE87040044932226431FFF7AE
:1032F000ADB870BD003801401004002098010020D6
:103300000048004054040020FEE700000FB4054BC5
:1033100010B503A9044A029800F0EAF810BC5DF861
:1033200014FB00004D400008600000200907090E52
:10333000002804DB00F1E02080F80014704700F062
:103340000F0000F1E02080F8141D704702E008C86B
:10335000121F08C1002AFAD170477047002001E00F
:1033600001C1121F002AFBD1704700002DE9FF5F49
:1033700082B00021DDE90430020DDDF840B00343E6
:1033800018D044F61050A2F2FF324243151411989F
:1033900001281FD0A5EB0B00401C5FEA000A4FF08C
:1033A00000064E4FDFF83891B046504615D5CAF1A9
:1033B000000413E0119801244AA3012801D16FEA07
:1033C0000B010298119AC0E90031C0E9024206B02F
:1033D000BDE8F09FCBF10000DFE704460021404A42
:1033E000491842EB0450CDE9001012E0E00707D085
:1033F00032463B4640464946FCF790FF80468946A8
:1034000032463B4610461946FCF788FF06460F46F3
:103410006410002CEAD1DDE90401DDE90023BAF1F2
:10342000000F06DAFCF77AFF42464B46FCF776FFC0
:1034300005E0FDF7CDF942464B46FDF7C9F90446D4
:103440000E460022284BFDF74BFA03D84FF0FF3011
:10345000014607E00022254B20463146FDF711F9D1
:10346000FDF725FA102409E0002C0ADB0A220023CC
:10347000FDF742F8039B30321A55641E50EA0102F0
:10348000F2D1641C039AC4F111031444119A012A65
:1034900003D0012208430DD10AE0084304D00020E4
:1034A0004FF0110B119072E7A3EB0B056D1E0DE0B1
:1034B0005B4504DD4FF0000205F1010504E003DA8D
:1034C0004FF00002A5F10105002AECD002981199F5
:1034D000C0E90231C0E9004579E70000000014406E
:1034E0000000F03F300000000000F0430000E03F2B
:1034F0002DE9FF4F95B09B468946064600250FE211
:10350000252877D100242746F84A0121059400E0B8
:10351000044316F8013F203B01FA03F01042F7D1B3
:1035200030782A2811D06FF02F033078A0F13002C4
:10353000092A16D8059A44F0020402EB820203EB32
:1035400042021044761C0590EFE759F8042B0592CF
:10355000002A03DA504244F40054059044F0020477
:10356000761C30782E2816D116F8010F44F004048A
:103570002A280DD06FF02F023078A0F13003092BEC
:1035800009D807EB870302EB4303C718761CF3E760
:1035900059F8047B761C30786C280FD006DC4C2858
:1035A00017D068280DD06A2814D104E0742810D0F0
:1035B0007A280FD10DE044F400140AE044F480149A
:1035C00001E044F440147278824202D104F5801480
:1035D000761C761C307866280BD013DC582877D000
:1035E00009DC002875D04528F6D04628F4D04728B5
:1035F0001AD19DE118E0632835D0642879D0652878
:1036000012D195E1702873D008DC6728F1D06928C1
:103610006FD06E280DD06F2806D1B5E073282CD05E
:10362000752875D0782874D05A46179990476D1C24
:1036300075E1C4F30250022809D003280DD0D9F84F
:10364000001004280DD00D6009F1040967E1D9F8D4
:103650000010EA17C1E90052F6E7D9F800100D8012
:10366000F2E70D70F0E719F8041B8DF80010002048
:103670008DF80100EA46012003E059F804AB4FF051
:10368000FF3061074FF0000102D40DE008F10101A5
:103690008846B9420FDA8045F8DB1AF8081000298D
:1036A000F4D108E008F1010188468142FADB1AF8FA
:1036B00008100029F6D105985B46A0EB08072146C3
:1036C0003846179A00F094FA284400EB080507E002
:1036D0004DE029E10DE01AF8010B5A461799904781
:1036E000B8F10108F7D25B4621463846179A13E134
:1036F00042E00A220092C4F302524FF0000A022A6A
:1037000008D059F804CB032A4FEAEC710AD00DE037
:1037100029E02AE009F1070121F00702F2E802C1DD
:10372000914609E00FFA8CFC4FEAEC71042A03D1B0
:103730004FFA8CFC4FEAEC71002907DA0A460021A7
:10374000DCF1000C61EB02012D2202E0220504D520
:103750002B228DF80420012203E0E20701D0202271
:10376000F7E7904659E00A2102E010220DE010210F
:103770004FF0000A00910BE010224FF0000A44F0D5
:1037800004040827009203E008224FF0000A009288
:10379000C4F30252022A05D059F804CB0021032AAF
:1037A00008D009E009F1070121F00702F2E802C19F
:1037B000914605E01FFA8CFC042A01D10CF0FF0CA5
:1037C0004FF00008220728D5702806D0009B83F010
:1037D000100353EA0A0305D00EE040228DF80420BE
:1037E000012208E05CEA010206D030228DF80420B4
:1037F0008DF8050002229046009B83F0080353EAEF
:103800000A030AD15CEA010201D1620705D5302220
:103810008DF804204FF001087F1E582804D034A0F2
:1038200003900EA802900DE036A0F9E753466046DB
:10383000009AFCF761FE84460398825C0298401E61
:10384000029002705CEA0100F0D1029806A9081A01
:1038500000F1200A600702D524F4803400E001273B
:10386000574502DDA7EB0A0000E0002000EB0A014B
:10387000009005984144401A0590E00306D45B4649
:103880002146179A059800F0B3F90544002706E091
:1038900001A85A46C05D179990476D1C7F1C47458B
:1038A000F6DBE0030CD55B462146179A059800F03D
:1038B0009FF9054404E030205A46179990476D1C43
:1038C0000099481E00900029F5DC08E00298029952
:1038D0005A460078491C0291179990476D1CBAF11D
:1038E0000001AAF1010AF1DC65E1000009280100EC
:1038F0003031323334353637383961626364656666
:103900000000000030313233343536373839414227
:10391000434445460000000000F058F90544761C79
:10392000307800287FF4ECAD19B02846BDE8F08F60
:10393000620700D4062709F1070222F0070CFCE811
:103940000223E14603F000485FEA080C02D00FF2C0
:10395000702C0DE05FEA045C02D50FF2682C07E0E2
:103960005FEAC47C02D00FF2602C01E0AFF2700C71
:103970004FF0FF3823F00043CDF850C065280CD03D
:1039800006DC452809D046281DD047283DD13DE01A
:10399000662818D067287ED138E00021112F01DB7E
:1039A000112000E0781CCDE9000106A90EA8FFF760
:1039B000DDFCDDE90F010E9A03910021009207F171
:1039C000010A04914DE04FF000400097CDE901104D
:1039D00006A90EA8FFF7CAFCDDE90F0203920E9BB1
:1039E00011990022DDF80CA00093049211B9791C02
:1039F00000EB010AB7EB0A0004D4C0F1FF3007F175
:103A0000010A0490AAEB0700019044E0012F00DABC
:103A100001270021112F01DD112000E03846CDE9FA
:103A2000000106A90EA8FFF7A1FCDDE90F010E9A1F
:103A30000391002104910092BA4621070CD4039906
:103A4000514500DA8A46BAF1010F05DD009AAAF164
:103A50000101515C302908D0B84202DA10F1040F9C
:103A600006DA0121CDE9011015E0AAF10101E9E72B
:103A7000002805DC049901440491AAEB000102E04E
:103A8000411C514500DD8A460499401A401C0190B2
:103A90004FF000400290200704D40198504501DB0C
:103AA000CDF8048000208DF84F0002980DF14F07EB
:103AB000B0F1004F25D02B200E9002984FF0020855
:103AC00000280CDA404202902D200E9007E00A21D7
:103AD0000298FCF7FBFC3031029007F8011DB8F1A9
:103AE0000001A8F10108F2DC02980028EFD1791E4C
:103AF0000E980870307800F0200040F0450007F87C
:103B0000020D12A8C01B00F107081498007800B13C
:103B1000012000EB0A01019801EBE0710598414496
:103B2000401A401E0590E00306D45B462146179AD2
:103B3000059800F05DF805441498007818B15A46CD
:103B4000179990476D1CE00324D55B462146179AD0
:103B5000059800F04DF805441CE00498002807DBA8
:103B6000DDE90301884203DD0098405C179901E01C
:103B7000179930205A469047049805F10105401CDA
:103B800004900198401E019004D12E205A461799A6
:103B900090476D1CBAF10001AAF1010ADDDC05E0D5
:103BA00017F8010B5A46179990476D1CB8F10001A0
:103BB000A8F10108F4DC5B462146179A0598ABE6AC
:103BC0002D0000002B000000200000002DE9F04136
:103BD000044600251E461746880404D405E03946ED
:103BE0002020B0476D1C641EF9D52846BDE8F08141
:103BF0002DE9F041044600251E469046C80301D534
:103C0000302700E02027880404D505E041463846E7
:103C1000B0476D1C641EF9D52846BDE8F081000050
:103C20002DE9F04701780025B74EB84FDFF8E08264
:103C3000DFF8E0924E290AD0522915D0392929D02F
:103C40004F2952D047296AD0532975D07DE0427858
:103C50004F2A7AD182784E2A77D1C2784F2A74D1EE
:103C6000BDE8F04700F00EBA4278532A6DD1827851
:103C7000452A6AD1C278542A67D1BFF34F8FA6482C
:103C80000168A64A01F4E06111430160BFF34F8F60
:103C900000BFFDE74278302A57D18278312A54D1CB
:103CA000C278532A51D14FF6FF74234605229C490E
:103CB0009C48FEF7DBFBC820FDF754F898492346E3
:103CC0000522491D9748FEF7D1FB40F6B830FDF7B5
:103CD00049F89349234605220A319248FEF7C6FB6C
:103CE000BDE8F04790A0FFF711BB42784B2A02D005
:103CF000462A0AD029E082784F2A26D1C2784B2A58
:103D000023D1BDE8F04700F0B5B98278462A1CD12E
:103D1000C278462A19D1BDE8F04700F0A3B942782D
:103D20004F2A12D182784F2A0FD1C278442A0CD15F
:103D3000BDE8F04700F0AEB94278542A05D1827848
:103D40004F2A02D1C278502A13D0754C774A203CB2
:103D5000452976D023464C29D3F810A011D05229FA
:103D60003ED056290BD141782B2968D02D2967D018
:103D7000C7E035603D60C8F80050C9F80050BDE8A4
:103D8000F08741782B2904D0694949782D2910D032
:103D90001FE0817803793039C07801EBC10505EB6C
:103DA000011100EB800003EB810102EB40000844AD
:103DB0000CE08178642230395143C278007902EBFB
:103DC000820201EB42010844C0F50470FCF718FBC5
:103DD000A0605046A168FCF7D9F920614C202BE087
:103DE00041782B2902D02D2910D01FE0817803794A
:103DF0003039C07801EBC10505EB011100EB800003
:103E000003EB810102EB400008440CE0817864225E
:103E100030395143C278007902EB820201EB420152
:103E20000844C0F50470FCF7EBFAE0605046E16826
:103E3000FCF7FEF9206152202070A0E701E031E09C
:103E400044E041782B2902D02D2914D028E0817834
:103E500003793039C07801EBC10505EB011100EBA6
:103E6000800003EB810102EB40000844FCF7C8FA34
:103E70003049606112E0817803793039C07801EB14
:103E8000C10505EB011100EB800003EB810102EBA2
:103E900040000844FCF7B4FA2749606100F0B8F824
:103EA0004520C9E7817803793039C07801EBC10C2E
:103EB0000CEB011100EB800003EB810102EB4000F1
:103EC0000844FCF79DFA1D49606012E0817803798F
:103ED0003039C07801EBC10C0CEB011100EB800014
:103EE00003EB810102EB40000844FCF789FA144916
:103EF0006060FCF7A3F930603860C8F80050C9F87A
:103F00000050562098E70000080000200C00002018
:103F100014000020100000200CED00E00400FA0561
:103F200040000020C803002039000000F0FDFFFF22
:103F30009801002000009643000096C3000048420C
:103F4000000048C210B50446007831280BD16078D3
:103F500031284CD1A078312849D1E078312846D198
:103F600023A0FFF7D3F9207832280BD160783228CC
:103F70003DD1A07832283AD1E078322837D11DA03F
:103F8000FFF7C4F9207833280BD1607833282ED17D
:103F9000A07833282BD1E078332828D116A0FFF75A
:103FA000B5F9207834280BD1607834281FD1A07857
:103FB00034281CD1E078342819D110A0FFF7A6F9D5
:103FC0002078542813D16078452810D1A078532840
:103FD0000DD1E07854280AD109484069FCF732FA3B
:103FE0000246BDE810400B4606A0FFF78FB910BD92
:103FF00031000000320000003300000034000000F7
:10400000200000204552524F523A252E32660000C1
:104010002DE9F04100260B4F0B4C0D468046B1F5C3
:10402000000F04DB3946FCF709F9C4E9040615F171
:10403000FF4F05D339464046FCF700F9C4E9046058
:10404000BDE8F0810000A0C10000002013B54FF6CC
:10405000FF73012269460248FEF708FA00981CBD6A
:1040600080030020002208210148FCF782BF0000E5
:1040700000080140012208210148FCF77ABF000036
:1040800000080140002210210148FCF772BF000027
:104090000008014010B505A0FFF738F90122BDE87E
:1040A000104010210348FCF764BF000068656C6C89
:1040B0006F00000000080140FCF76EFFFEF776FD80
:1040C000FEF7BAFAFEF740FBFEF772FBFEF7D4FBF1
:1040D000FEF794FAFEF704FCFEF71EFCFEF7FEFA6C
:1040E000FEF738FCFEF780FC4FF4FA742046FCF72C
:1040F00039FE1A48FCF78EFC1948FCF78BFC204669
:10410000FCF730FE194DDFF85C80174C4FF48057F8
:10411000A5F16406A069E06139464046FCF724FF3A
:10412000A06120B9E06910B111A0FFF7EFF828787D
:1041300030B10E48FFF706FF32210C48FCF71BF8A0
:1041400030780028E6D009486438FFF769FD074851
:1041500032216438FCF70FF8DCE700008003002010
:10416000C803002000080140200000202E0200208B
:1041700053000000010202030405060708090A0BA8
:104180000C0D0E0F101000000000000000000102D6
:1041900003040607080900000000010203040000F0
:1041A000C041000800000020640000004C330008FB
:1041B0002442000864000020340800005C3300083A
:1041C00000000000000000000000000000000000EF
:1041D00000000000000000000000000000000000DF
:1041E000300000000080BB44000000000000000020
:1041F00000000000000000000000000000000000BF
:10420000FFAA6988B5FFAA010400FFAA0000000008
:104210000100000010000000000000000024F40075
:04422000000000009A
:04000005080000ED02
:00000001FF
