:020000040800F2
:100000007007002001010008C7160008B914000895
:10001000C51600085D020008111F0008000000005E
:10002000000000000000000000000000CB160008E7
:100030003903000800000000C9160008E91800088C
:100040001B0100081B0100081B0100081B01000820
:100050001B0100081B0100081B0100081B01000810
:100060001B0100081B0100081B0100081B01000800
:100070001B0100087D0200081B010008890200081E
:10008000950200081B0100081B0100081B01000865
:100090001B0100081B0100081B0100081B010008D0
:1000A0001B0100081B0100081B0100081B010008C0
:1000B0001B0100081B0100081B0100081B010008B0
:1000C0001B0100081B0100081B0100081B010008A0
:1000D0001B010008D91D0008F11D0008091E0008B9
:1000E0001B0100081B0100081B010008DFF80CD0F1
:1000F00000F052F800480047A128000870070020CF
:100100000648804706480047FEE7FEE7FEE7FEE7B1
:10011000FEE7FEE7FEE7FEE7FEE7FEE74B19000815
:10012000ED00000840EA01039B0703D009E008C97D
:10013000121F08C0042AFAD203E011F8013B00F8AC
:10014000013B521EF9D27047D2B201E000F8012BF8
:10015000491EFBD270470022F6E710B513460A4647
:1001600004461946FFF7F0FF204610BD30B50B4698
:10017000014600202022012409E021FA02F59D42D7
:1001800005D303FA02F5491B04FA02F52844151EAB
:10019000A2F10102F1DC30BD064C074D06E0E0683B
:1001A00040F0010394E8070098471034AC42F6D3BE
:1001B000FFF7A0FF282900084829000870B5094D5D
:1001C0004FF4804400222146284600F069FB4FF49A
:1001D0007A7000F063FA21462846BDE8704001229B
:1001E00000F05EBB000C014038B5044600681749BA
:1001F000884209D10168C943C90605D4016840682D
:100200000090134801F00CFE1249206888420AD180
:100210000168C943C90606D40168406800900C48CB
:10022000483001F0FDFD0C49206888420CD101687E
:10023000C943C90608D4016840680090BDE8384049
:100240000348903001F0ECBD38BD0000003801409B
:10025000C80100200044004000480040FEE710B5FF
:100260000446084600F07AF8002C06D001F0A8FBFE
:100270002046BDE8104000F071B810BD014800F004
:10028000FDB8000028030020014800F0F7B8000086
:10029000A0020020014800F0F1B80000E4020020B4
:1002A00030B590F840500124AC40C56B6C600468D8
:1002B00063604368102B036803D099600068C260D4
:1002C00030BD9A600068C16030BD000010B50446C2
:1002D00000681549884208D1C16841F01001C16029
:1002E00032221249204601F089F8114920688842DB
:1002F00009D1C16841F01001C1600C49322264315A
:10030000204601F07BF80B49206888420BD1C16878
:1003100041F01001C160054920463222BDE810407D
:10032000C83101F06BB810BD003801409C000020BE
:10033000004400400048004070470000054A6C2817
:10034000116904D0722801D15A39116170475A31AC
:10035000FBE700008400002072B6FEE72DE9F041C3
:10036000054600244FF400764FF47A770AE03346CE
:1003700004220849084801F051F8384600F08EF987
:10038000641CE4B2AC42F2D3BDE8F04140F6B830B0
:1003900000F084B9090000201002002010B590F888
:1003A00021100022022905D00421816380F8202039
:1003B000012010BD01680B6823F00E030B6001687B
:1003C0000B6823F001030B6090F84030C46B0121EF
:1003D00001FA03F3636080F8211080F820201046B2
:1003E00010BD000010B590F821100024022903D0A0
:1003F0000421816301243DE001680A6822F00E02B5
:100400000A6001680A6822F001020A601A4A01685B
:10041000914201D1012121E0174A1432914201D1C8
:1004200010211BE0144A2832914201D1891515E0B0
:10043000114A3C32914201D189140FE00E4A5032E8
:10044000914202D14FF4803108E00B4A643291426C
:1004500002D14FF4801101E04FF08071064A083A52
:100460005160012180F82110002180F82010416B9B
:1004700001B18847204610BD080002402DE9F05F19
:10048000C16B0C6801680B68D0F840C0042202FA06
:100490000CF2494DDFF824A1494E4A4FDFF828B14C
:1004A000DFF828E122422CD05A072AD50A689206A2
:1004B00003D40A6822F004020A600168A94201D14B
:1004C000042219E0514501D1402215E0B14202D188
:1004D0004FF4806210E0B94202D14FF480420BE049
:1004E000594502D14FF4802206E0714502D14FF404
:1004F000800201E04FF080622F4908394A60C16AEA
:100500003BE04FF0020808FA0CF818EA040F4FF02D
:1005100000094FF0010235D05FEA837832D50B68CD
:100520009B0605D40B6823F00A030B6080F821209A
:100530000168A94201D1022219E0514501D12022CE
:1005400015E0B14202D14FF4007210E0B94202D17D
:100550004FF400520BE0594502D14FF4003206E04F
:10056000714502D14FF4001201E04FF000721249C0
:1005700008394A6080F82090816A00291AD0BDE8C5
:10058000F05F0847082505FA0CF5254212D01B0735
:1005900010D50B6823F00E030B6090F84010C36B6E
:1005A00002FA01F15960826380F8212080F82090DE
:1005B000016BE2E7BDE8F09F080002401C0002402A
:1005C0003000024044000240580002406C000240EB
:1005D00030B528B308C8134914221944B1FBF2F10D
:1005E0008900C16310498163022141771A6843F68B
:1005F000F0718A43D0E900142143D0E902452C432D
:1006000021430469214344692143846921431143FF
:10061000196000214163012242770177084630BD0D
:10062000012030BDF8FFFDBF0000024070B5044658
:1006300090F82000002501280CD0012084F820002B
:1006400094F821600020012E06D084F820000225B5
:10065000284670BD022070BD022684F82160A06388
:100660002068066826F0010606602046FFF718FE9F
:10067000E06A00282068016802D041F00E0106E01F
:1006800021F0040101602068016841F00A01016065
:100690002068016841F001010160D9E770B50446A6
:1006A00000F004F90546601C02D0044800780444B8
:1006B00000F0FCF8401BA042FAD370BD1C000020E3
:1006C0002DE9F84FDFF8B8910024A9F1040B234677
:1006D0000F2709F1040AABF1040EC9E00125A5407A
:1006E0002A40AA427DD1674ED1F804C0ACEB06087F
:1006F000B44532D014DCBCF1030F3AD009DCBCF1B4
:10070000000F2AD0BCF1010F1CD0BCF1020F31D177
:100710001DE0BCF1110F17D0BCF1120F2AD119E066
:10072000B8F5881F19D006DCB8F5803F15D0B8F5AC
:10073000801F1FD111E0B8F5001F0ED0B8F5041FBF
:1007400018D10AE0CB6815E0CB681B1D12E0CB681E
:1007500008330FE0CB680C330CE08B682BB1012B16
:100760004FF0080303D0456104E0042302E0056173
:1007700000E00023FF2A01D8064601E000F104064C
:100780004FEA840501D9A5F12005D6F8008007FAC3
:1007900005FC28EA0C0803FA05F548EA0508C6F83E
:1007A00000804D68ED0062D5374DAE6946F0010618
:1007B000AE61AD6924F0030605F001050095334DE7
:1007C00006EB050CDCF80850A607360F07FA06F80A
:1007D00025EA0805DFF8B880404503D14FF000084E
:1007E00017E044E0DFF8AC80404502D14FF001084B
:1007F0000FE0DFF8A480404502D14FF0020808E086
:10080000DFF89880404502D14FF0030801E04FF037
:10081000040808FA06F848EA0508CCF808804D688C
:10082000D9F80060ED024D4601D5164300E096432D
:100830002E604D68DAF80060AD02554601D51643CA
:1008400000E096432E604D68DBF80060AD035D4626
:1008500001D5164300E096432E604D68DEF8006037
:10086000ED03754601D5164300E096432E60641CE7
:100870000D682A46E5407FF431AFBDE8F88F0000EF
:100880000804014000001110001002400000014067
:1008900000080140000C014000100140001401401C
:1008A0000AB1016170470904FBE700000148806854
:1008B000704700001C000020024881680278114443
:1008C000816070471C000020074810B5016841F0A6
:1008D00010010160032000F075F80F2000F006F809
:1008E00000F024F8002010BD0020024070B50D4D2E
:1008F00004464FF47A712878B1FBF0F00A49096890
:10090000B1FBF0F000F0DCFA48B9102C07D200225D
:100910002146501E00F036F800206C6070BD0120AA
:1009200070BD00001C000020280000200C4808B505
:10093000816941F001018161816901F0010100914A
:10094000C16941F08051C161C06900F080500090E0
:100950000448416821F0E06141F00071416008BD48
:100960000010024000000140002809DB00F01F02D7
:10097000012191404009800000F1E020C0F8001101
:1009800070470000F0B40E4B1B680C46C3F3022303
:10099000C3F10705042D00D90425191D072901D22B
:1009A000002300E0DB1E012606FA05F1491E214066
:1009B00099409E40761E16403143F0BC01F0BABA11
:1009C0000CED00E0064900F0070208684FF6FF034F
:1009D000184040EA0220034A1043086070470000B4
:1009E0000CED00E00000FA052DE9F0470F46050088
:1009F00061D0434E306800F00700B84209D2306839
:100A000020F0070038433060306800F00700B8423B
:100A100051D128683B4C810712D5400703D5606847
:100A200040F4E06060602878000703D5606840F417
:100A3000605060606068A96820F0F0000843606062
:100A40002878C00728D06868012810D021680228BB
:100A500010D0890700292EDA616821F003010143D3
:100A60006160FFF723FF804641F288390DE021687D
:100A70008903EFE78901EDE7FFF718FFA0EB080115
:100A8000494502D90320BDE8F0876068696800F035
:100A90000C00B0EB810FEFD1306800F00700B842D6
:100AA0000BD9306820F0070038433060306800F020
:100AB0000700B84201D00120E5E72878400705D5B6
:100AC0006068E96820F4E060084360602878000707
:100AD00006D56068296920F4605040EAC100606072
:100AE00000F038F86168084AC1F30311515CC8404E
:100AF0000649086006480068FFF7F8FE0020C2E7D4
:100B000000200240001002400E29000828000020AA
:100B1000200000200448054900684968044AC1F3E0
:100B20000221515CC840704728000020001002409C
:100B30001E2900080448054900684968044AC1F3B1
:100B4000C221515CC84070472800002000100240BC
:100B50001E2900080E4A51680E4801F00C03042BB0
:100B600011D0082B0FD10C48C1F38343C903C05CDB
:100B70000AD55168084AC1F34041921E515C054AAA
:100B80005043B0FBF1F07047044948437047000000
:100B90000010024000127A00FE28000800093D0003
:100BA0002DE9F84F040070D02078C04DC00749D01F
:100BB0006868C0F38100012807D06868C0F381002D
:100BC000022809D16868C00306D52868800339D592
:100BD00060680028E7D035E06068B0F5803F0BD052
:100BE00010B1B0F5A02F11D0286820F48030286013
:100BF000286820F4802002E0286840F480302860D3
:100C0000606890B1FFF752FE06460AE0286840F49B
:100C100080202860F0E700BFFFF748FE801B6428B3
:100C200073D828688003F7D50CE0FFF73FFE06462F
:100C300005E000BFFFF73AFE801B6428F0D8286863
:100C40008003F7D420789A4E80074FF001094FF0C7
:100C5000000839D5686810F00C0F07D06868C0F339
:100C60008100022809D16868C00306D4286880077B
:100C700014D52069012808D110E02069B0B1C6F868
:100C80000090FFF713FE074605E00AE1FFF70EFEAE
:100C9000C01B0228C4D828688007F7D52868616976
:100CA00020F0F80040EAC10028600DE0C6F800809E
:100CB000FFF7FCFD074604E0FFF7F8FDC01B022824
:100CC00023D828688007F7D4207800072CD57948E6
:100CD000A169D9B1C0F80090FFF7E8FD074604E02C
:100CE000FFF7E4FDC01B02280FD8686A8007F7D51C
:100CF00071484FF4FA510068B0FBF1F0009000BF6A
:100D00000098411E0091FAD20EE080E0C0F8008009
:100D1000FFF7CCFD074604E0FFF7C8FDC01B022823
:100D200075D8686A8007F7D42078400760D5E869ED
:100D30000027C00008D4E86940F08050E861E86905
:100D4000012700F0805000905C480168C90513D469
:100D50000168834641F480710160FFF7A7FD824678
:100D600006E000BFFFF7A2FDA0EB0A0064284ED802
:100D7000DBF80000C005F5D5E06801280AD008B10D
:100D8000052813D0286A20F001002862286A20F084
:100D9000040002E0286A40F001002862E06841F2A5
:100DA000883B98B1FFF782FD82460BE0286A40F04D
:100DB00004002862EEE700BFFFF778FDA0EB0A0110
:100DC00059455AD8286A8007F6D50CE0FFF76EFD22
:100DD000824605E0FFF76AFDA0EB0A0159454CD8B1
:100DE000286A8007F6D41FB1E86920F08050E861D6
:100DF000E06988B36968C1F38101022944D00228FF
:100E0000C6F8608004D0FFF751FD044638E034E0B6
:100E1000FFF74CFD074604E0FFF748FDC01B022822
:100E20002BD828688001F7D4206AB0F5803F05D11F
:100E30006868A16820F4003008436860D4E90801BC
:100E40000843696821F4741108436860C6F860902B
:100E5000FFF72CFD044606E025E000BFFFF726FD66
:100E6000001B022809D828688001F7D51BE000BFC5
:100E7000FFF71CFD001B022802D90320BDE8F88FF4
:100E800028688001F4D40EE00128F7D06868226A4F
:100E900000F48031914204D1616A00F470108842FC
:100EA00001D00120EAE70020E8E70000001002403E
:100EB00000004242800442422800002000700040AE
:100EC00010B5401EB0F1807F01D3012010BD4FF05E
:100ED000E02460610F21601701F02CF80020A06170
:100EE00007202061002010BD704710B5044600683F
:100EF000406994F84110C0F3C010212911D180B18C
:100F00002068143050E8001F21F0800140E80012F2
:100F1000002AF5D1A06B08B1FFF740FA204600F097
:100F20000BFE2068406994F84210C0F3801022291B
:100F300011D180B12068143050E8001F21F0400129
:100F400040E80012002AF5D1E06B08B1FFF726FA5D
:100F5000204600F0CAFD002010BD7047F8B50168BA
:100F600004460868CA684B6910F00F0F4FF000057F
:100F700059D003F0010602F49077374365D0C107DA
:100F800005D0D10503D5616C41F0010161644107D1
:100F900005D5D90703D0616C41F002016164810776
:100FA00005D5D90703D0616C41F0040161640107E4
:100FB00007D502F02001314303D0616C41F00801F4
:100FC0006164616C00293AD0800604D5900602D590
:100FD000204600F0BFFD20684069616CC0F38010BE
:100FE000090700D460B3204600F07FFD2068406907
:100FF000400621D52068143050E8001F21F0400140
:1010000040E80012002AF5D1E06BA8B16D494163B8
:10101000E06BFFF7E7F9002811D0E06B416B01B0FE
:10102000BDE8F040084783060FD593060DD520464E
:10103000BDE8F84000F08EBD2046FFF78EFFF8BDFA
:101040002046FFF78AFF6564F8BD266B2023012E3A
:101050007CD1C6067AD5D60678D50868486800904F
:1010600048694FF00206400640D5E16B08684068C9
:101070000004000CE8D0A28D8242E5D9E0858869A1
:1010800020282DD020680C3050E8001F21F48071FA
:1010900040E80012002AF5D12068143050E8001F03
:1010A00021F0010140E80012002AF5D12068143037
:1010B00050E8001F21F0400140E80012002AF5D15D
:1010C00084F84230256320680C3050E8001F21F07E
:1010D000100140E80012002AF5D1E06BFFF75EF93D
:1010E0006663A08DE18D401A81B22AE0A08DE18D6A
:1010F000401A81B2E08D0028A6D00029A4D0226831
:101100000C3252E8000F20F4907042E80007002FE4
:10111000F5D12068143050E8002F22F0010240E899
:101120000027002FF5D184F84230256320680C3069
:1011300050E8002F22F0100240E80023002BF5D1E8
:1011400066632046FFF7D0FEF8BDFFE705062BD506
:10115000150629D594F841002128F5D1A068B0F5ED
:10116000805F01D12069B0B1206A411C21622168F1
:1011700000784860E08C401E0004000CE084E3D15D
:101180002068C16821F08001C1602068C16841F019
:101190004001C160D8E7206A0088C0F308004860B9
:1011A000206A801C2062E5E74006CDD55006CBD5ED
:1011B000CA68204622F04002CA6084F8413000F03C
:1011C0007AF9C1E7ED19000870B5040004D094F86D
:1011D0004100002510B106E0012070BD84F84050A8
:1011E000204600F023F8242084F841002068C168DC
:1011F00021F40051C160204600F00EFD2068016915
:1012000021F4904101612068416921F02A01416186
:101210002068C16841F40051C1606564202084F8F1
:10122000410084F842006563002070BDF0B585B0D0
:10123000002400940194029403940546DFF898C1B9
:101240000268664802230321654F802662453ED12D
:10125000826942F480428261826902F4804204928F
:10126000826942F0080282618069039100F00800FF
:1012700004904020CDE9000369463846FFF720FA84
:10128000CDE90064694638460294FFF719FA5548DB
:10129000416841F0E06141F004014160534F524820
:1012A000C7E90004C7E902463C617C61BC6138467D
:1012B000FC61FFF78DF908B1FFF74EF8EF630022EC
:1012C000114625207D62FFF75DFB25203EE0DFF81B
:1012D00020C162453ED1C26942F40032C261C26996
:1012E00002F400320492826942F004028261806951
:1012F000404F00F0040004900420CDE90003039166
:1013000069463846FFF7DCF90820CDE90004694654
:1013100038460294FFF7D4F9344F33484437143039
:10132000C7E90004C7E902463C617C61BC613846FC
:10133000FC61FFF74DF908B1FFF70EF8EF630022EB
:10134000114626207D62FFF71DFB2620FFF70CFBD0
:1013500005B0F0BDDFF8A0C06245F9D1C26942F422
:101360008022C261C26902F480220492826942F042
:10137000080282618069039100F0080004904FF434
:101380008060CDE9000369463846FFF799F94FF4CC
:101390000060CDE90004694638460294FFF790F9F1
:1013A000124F114888372838C7E90004C7E90246B8
:1013B0003C617C61BC613846FC61FFF709F908B10A
:1013C000FEF7CAFFEF630022114627207D62FFF778
:1013D000D9FA2720BAE70000003801400010024087
:1013E000000C01400000014058000240A002002013
:1013F00000440040000801400048004090F842309E
:10140000202B01D00220704721B11AB100230363C1
:1014100000F05EBC01207047704770472DE9F8432B
:10142000044690F841001F4616460D46202802D07B
:101430000220BDE8F8837DB176B1002060642120F0
:1014400084F84100FFF732FAA6848046E684A0685B
:10145000B0F5805F02D003E00120EAE7206910B117
:101460002E4600250EE000260CE08021204600F0EC
:1014700077FCA0B9AEB116F8010B21684860E08C8A
:10148000401EE084E08C43464FF0000200970028A5
:10149000EBD14FF04001204600F062FC30B1032058
:1014A000C7E735F8020BC0F30800E6E7202084F810
:1014B00041000020BDE77047FEE700000E49002014
:1014C00002460870487001F115039854521C042A12
:1014D000FBDB8870C87188710872C8704871074A50
:1014E00000215054491C1029FBDB04495431086188
:1014F0004FF0FF308860704700000020300000206F
:10150000114808B5416941F001014161406900227B
:1015100000F00100009011460D20FFF733FA0D2076
:10152000FFF722FA002211460F20FFF72BFA0F20B7
:10153000FFF71AFA002211461020FFF723FABDE840
:1015400008401020FFF710BA001002402DE9F047C4
:1015500086B000242D48009401940294039481697C
:1015600041F010018161816901F0100104918169EC
:1015700041F020018161816901F0200104918169BC
:1015800041F004018161816901F0040104918169E4
:1015900041F0080181618069DFF8748000F0080083
:1015A0004FF400550490002229464046FFF778F991
:1015B000DFF86090002230214846FFF771F90122E0
:1015C000DFF854A0970339465046FFF769F90095B4
:1015D000022601250396CDE9015469464046FFF7EE
:1015E0006FF83020CDE90005CDE90246694648464E
:1015F000FFF766F800970396CDE901546946504617
:10160000FFF75EF806B0BDE8F0870000001002406A
:101610000010014000080140000C01400C4810B5CA
:101620000A4901604FF461214160002181600C2270
:10163000C160C0E904128161C161FFF7C5FD0028E6
:1016400003D0BDE81040FEF787BE10BD0038014052
:10165000C80100200C4810B50A4901604FF4E1317F
:101660004160002181600C22C160C0E904128161E7
:10167000C161FFF7A9FD002803D0BDE81040FEF7C7
:101680006BBE10BD00440040100200200C4810B595
:101690000A4901604FF4E1314160002181600C2270
:1016A000C160C0E904128161C161FFF78DFD0028AE
:1016B00003D0BDE81040FEF74FBE10BD004800400B
:1016C00058020020FEE7FEE77047704730B5324809
:1016D0003021312281700121017041704271C1704D
:1016E000022202713223037281710323C3713324F6
:1016F000C472417204248472342585730273417369
:1017000035254574C2730274362505758274C37419
:101710003725C575427584753825857603764176FB
:1017200039254577C3760277412580F820508377A5
:10173000C377422580F8235080F8213080F822407A
:10174000432580F8265080F8244080F82510442551
:1017500080F8295080F8274080F82820452280F81A
:101760002C2080F82A4080F82B30462280F82F2049
:1017700080F82D4080F82E40532280F8322080F8E7
:101780003010002280F83120343001704270891E00
:10179000C0E90212026130BD5000002010B5991A54
:1017A000DDE90240012900D100204A1C00D1B4200B
:1017B0000A1D00D15A204FF48772042900D1104627
:1017C000001B01D500F5B47068B1B42804D0904274
:1017D00005D100F0F5F806E000F0B8F803E05A286B
:1017E00001D100F0D7F80120FEF7B8FD0148C1682B
:1017F000816010BD840000202DE9FC473748364C3D
:1018000000F13401002627784B780A784FF6FF7AEA
:10181000A0F12005072F5DD2DFE807F05C04091076
:1018200029343400817A407AC91AC9B201E061785A
:101830001EE0801AC0B2FEF712FD3EE026481530C9
:10184000C278002A46D000278146884619F807301A
:10185000C8F80C30D5E91901CDE9000105F15400B3
:1018600007C8FFF79BFF7F1C042FEFDB25E0A17863
:1018700000292FD001EB41052918405D4978C91A8C
:10188000C9B2D6E7A079002824D0DFF8509000270D
:101890008846A9F120090DE019F80730C8F80C3086
:1018A000D5E91901CDE9000105F1540007C8FFF79A
:1018B00075FF7F1C60798742EEDB5346032208A147
:1018C0000848FFF7ABFDFEF779FC2670BDE8FC4742
:1018D000FFF7F4BDBDE8FC870000002050000020A9
:1018E00030303000C8010020FEF7E6BF30B58FB0C1
:1018F00028216846FEF72FFC14210AA8FEF72BFCCE
:1019000001210804CDE9001000240294022504916D
:10191000CDE907504FF4E01009906846FFF740F911
:1019200008B172B6FEE70F20CDE90A054FF48060DA
:10193000CDE90C4002210AA80E94FFF755F80028C3
:1019400001D072B6FEE70FB030BD704710B54FF44E
:101950000074234604220D490D48FFF75FFD6C20FB
:10196000FEF7ECFC4FF47A70FEF798FE2346042253
:1019700006490748FFF752FD6C20FEF7DFFCBDE883
:1019800010404FF47A60FEF789BE0000110000207D
:101990001002002010B54FF40073042206490748D6
:1019A000FFF73CFD6C20FEF7C9FCBDE8104040F697
:1019B000B830FEF773BE00001100002010020020B6
:1019C00010B54FF40073042206490748FFF726FDBF
:1019D0007220FEF7B3FCBDE8104040F6B830FEF7C9
:1019E0005DBE00000D0000201002002010B5406A0E
:1019F0000021C185C184FFF7B0FA10BD70B5446AFB
:101A00002068406994F84110C0F3C01000252129D6
:101A100004D118B1E584204600F08EF820684069B2
:101A200094F84210C0F38010222904D118B1E58542
:101A3000204600F05AF8606C40F0100060642046C8
:101A4000FFF78BFA70BD10B50146406A0968096856
:101A50004FF0000289062ED4C28501680C3151E88E
:101A6000003F23F4807341E80034002CF5D1016875
:101A7000143151E8003F23F0010341E80034002C09
:101A8000F5D10168143151E8003F23F0400341E8EB
:101A90000034002CF5D1202180F84210016B01297F
:101AA00009D101680C3151E8003F23F0100341E8EF
:101AB0000034002CF5D14263016B012902D0FFF7FD
:101AC000ABFC10BD818DFFF70FFA10BD10B5406A59
:101AD00001214163016B012902D0FFF79EFC10BD7B
:101AE000818D4908FFF700FA10BD01680C3151E8FB
:101AF000002F22F4907241E80023002BF5D10168F9
:101B0000143151E8002F22F0010241E80023002B9C
:101B1000F5D1016B012909D101680C3151E8002F81
:101B200022F0100241E80023002BF5D1202180F89B
:101B3000421000210163704701680C3151E8002F09
:101B400022F0C00241E80023002BF5D1202180F8CB
:101B50004110704708B590F84210222901D00220A8
:101B600008BD82684FF480539A4201D1016921B1C6
:101B7000816A9A421BD04AB10AE00268816A5268BF
:101B8000C2F308020A80816A891C08E0026972B106
:101B90000268526802F07F020A70816A491C816201
:101BA000C18D491E0904090CC18503D01BE00268E0
:101BB0005268F1E70168CA6822F02002CA60016831
:101BC000CA6822F48072CA6001684A6922F0010280
:101BD0004A61202180F8421000214163026B012AF2
:101BE00003D0FFF719FC002008BD016301680C3128
:101BF00051E8002F22F0100241E80023002BF5D11C
:101C000001680A68D20602D50A6849680091818D88
:101C1000FFF76AF9E7E7000070B50446006801695C
:101C2000E26821F44051114301612169A068084331
:101C3000616908432168CA6841F20C639A43024310
:101C4000CA6020684169A26921F440711143416171
:101C50001E492068884202D1FEF76CFF01E0FEF7C2
:101C600059FF00EBC00101EB0012606864218000A5
:101C7000B2FBF0F3B3FBF1F36FF018067343B2FB62
:101C8000F0F5B2FBF0F605EB8305322303EB051507
:101C9000B5FBF1F5B6FBF1F605F0F00505EB061521
:101CA000B2FBF0F6B2FBF0F0B0FBF1F06FF018020F
:101CB000504306EB800003EB0010B0FBF1F021680D
:101CC00000F00F002844886070BD0000003801401B
:101CD00038B5816204468285002013466064222262
:101CE00084F84220E56B1B4AAA62E56B1A4AEA6255
:101CF000E56B1A4A2A63E26B50630A462168E06B7F
:101D0000091DFEF793FC2068016840680090206977
:101D100048B120680C3050E8001F41F4807140E861
:101D20000012002AF5D12068143050E8001F41F05D
:101D3000010140E80012002AF5D12068143050E873
:101D4000001F41F0400140E80012002AF5D10020B8
:101D500038BD0000471A0008CD1A0008FD19000818
:101D60002DE9F041984617460E460446069D27E0A9
:101D7000681C25D02DB1FEF799FDA0EB0800A84204
:101D80001ED920680C3050E8001F21F4D07140E8C3
:101D90000012002AF5D12068143050E8001F21F00D
:101DA000010140E80012002AF5D1202084F841000A
:101DB00084F84200002084F840000320BDE8F08150
:101DC0002068006836EA000004D00020B842CFD076
:101DD0000020F3E70120F9E710B50448FFF7BEF84B
:101DE000BDE810400148FEF7FFB90000C80100201F
:101DF00010B50448FFF7B2F8BDE810400148FEF7FF
:101E0000F3B900001002002010B50448FFF7A6F84F
:101E1000BDE810400148FEF7E7B900005802002075
:101E200070B504460068354988421BD12046FFF74B
:101E30005CF83348006840683249C0F13200C5B2EE
:101E4000322201F13200FEF76DF92E48323000F0F7
:101E50006DF929462B48FEF77EF9322229492046A2
:101E6000FFF7CCFA2849206888421FD12046FFF7A7
:101E70003CF823484430006840682249C0F13200F1
:101E8000C5B26431322201F13200FEF74BF91D4830
:101E9000963000F03DFA1B4829466430FEF75BF9A6
:101EA0001849322264312046FFF7A8FA1749206802
:101EB000884221D12046FFF718F811488830006881
:101EC00040681049C0F13200C5B2C831322201F178
:101ED0003200FEF727F90B48FA3000F01BFA0948E8
:101EE0002946C830FEF737F92046BDE8704005495D
:101EF0003222C831FFF782BA70BD000000380140BD
:101F0000A00200209C000020004400400048004047
:101F1000FEE700000FB4054B10B503A9044A029870
:101F200000F028F810BC5DF814FB000089280008B8
:101F30002C0000200907090E002804DB00F1E02036
:101F400080F80014704700F00F0000F1E02080F8E6
:101F5000141D704702E008C8121F08C1002AFAD1F8
:101F600070477047002001E001C1121F002AFBD119
:101F7000704700002DE9FF4F8BB09A460F4605468B
:101F8000002606E025280BD052460D9990476D1C7F
:101F9000761C28780028F5D10FB03046BDE8F08FC8
:101FA0000024A0460122604900E0044315F8013FE7
:101FB000203B02FA03F00842F7D128782E2817D1E7
:101FC00015F8010F44F004042A280ED06FF02F02F8
:101FD0002878A0F1300109290AD808EB880102EB22
:101FE000410100EB01086D1CF2E757F8048B6D1CF2
:101FF000287869283ED006DC0028CDD063280BD095
:10200000642804D136E0732810D075284BD052468E
:102010000D999047761C85E017F8040B8DF80000A9
:1020200000208DF80100E946012003E057F8049BE9
:102030004FF0FF3061074FF0000401D40AE0641C48
:1020400044450DDA8442FADB19F804100029F6D170
:1020500006E0641C8442FCDB19F804100029F8D166
:10206000264404E019F8010B52460D999047641E6E
:10207000F8D257E001CF4FF00A0B002802DA4042B5
:102080002D2102E0210504D52B218DF824100121FA
:1020900003E0E10705D02021F7E70DF120090891C1
:1020A0000CE00021F9E701CF4FF00A0BF9E75946A0
:1020B000FEF75CF801F1300209F8012D0028F6D195
:1020C000ADEB090000F1200B600701D44FF00108CF
:1020D000D84502DDA8EB0B0000E00020804600247C
:1020E00006E009A85246005D0D999047641C761CD5
:1020F00008988442F5DB04E0302052460D99904761
:10210000761CB8F10001A8F10108F5DC05E019F82A
:10211000010B52460D999047761CBBF10001ABF1C3
:10212000010BF4DC6D1C34E7092801002DE9F041B6
:10213000044600780126534DDFF84C816FF02F07DD
:1021400050280AD16078A178303800EB800007EB86
:1021500040000144C8F80C10EE702078472828D1C0
:10216000494A0020543A211849785A2920D0412957
:102170000BD042290BD043290BD044290BD0452941
:102180000BD046290BD030390AE00A2108E00B2198
:1021900006E00C2104E00D2102E00E2100E00F21F9
:1021A00011546979401C491C69711028DBDB00E07F
:1021B000AE712078462803D0522801D04C2806D191
:1021C0004FF6FF73042221463048FFF727F92078A5
:1021D000432832D16078A178303800EB800007EBDB
:1021E000400001444746C8F804100A2903DA28A031
:1021F000FFF790FE21E002D129A0FFF78BFE78685F
:102200000B2802D12AA0FFF785FE78680C2802D19E
:102210002BA0FFF77FFE78680D2802D12CA0FFF7D6
:1022200079FE78680E2802D12DA0FFF773FE78683A
:102230000F2802D12EA0FFF76DFE207853280AD177
:10224000607854281CD1A0784F2819D1E078502804
:1022500016D1EE712E7220784D2811D10A4D002032
:10226000443D211849782954401C1028F9DB0024EA
:10227000A11C2A5D22A0FFF74DFE641C102CF7DB89
:10228000BDE8F08100000020840000201002002042
:1022900074312E7478743D22256422FFFFFF000004
:1022A00074312E7478743D224122FFFFFF0000003C
:1022B00074312E7478743D224222FFFFFF0000002B
:1022C00074312E7478743D224322FFFFFF0000001A
:1022D00074312E7478743D224422FFFFFF00000009
:1022E00074312E7478743D224522FFFFFF000000F8
:1022F00074312E7478743D224622FFFFFF000000E7
:102300007425642E7478743D22256322FFFFFF003C
:10231000704700002DE9F05F04460078FF4E4FF64D
:10232000FF77A6F1150552281FD10020287068708C
:1023300001467054491C0429FBDBA870E871A871A0
:102340002872E870F64A687100215054491C10291F
:10235000FBDBF3493B465431042208614FF0FF3068
:102360008860F0A1F148FFF759F82078312810D1A2
:10237000607831287ED1A07831287BD1E07831286F
:1023800078D1012028703B460322E9A1E948FFF7F4
:1023900045F82078322810D1607832286AD1A078A8
:1023A000322867D1E078322864D1022028703B4679
:1023B0000322E1A1DF48FFF731F82078332810D15C
:1023C0006078332856D1A078332853D1E078332869
:1023D00050D10320287002463B46D8A1D548FFF7CC
:1023E0001DF82078342810D16078342842D1A078A4
:1023F00034283FD1E07834283CD1042028703B4673
:102400000322CFA1CB48FFF709F82078352810D157
:10241000607835282ED1A07835282BD1E078352862
:1024200028D1052028703B460322C6A1C148FEF7EB
:10243000F5FF2078362810D1607836281AD1A07898
:10244000362817D1E078362814D1062028703B466C
:102450000322BDA1B748FEF7E1FF2078372812D14B
:102460006078372806D1A078372803D1E07837285C
:1024700000D100E088E0072028703B460122B3A18C
:10248000AC48FEF7CBFF20784D287DD161784FF026
:102490000C084FF00D094FF00E0A4FF00F0B3229C8
:1024A00022D1A078432806D185F8018022784D2AD0
:1024B0006AD1322918D1442806D185F801902278B2
:1024C0004D2A61D132290FD1452806D185F801A0C6
:1024D00022784D2A58D1322906D1462854D185F880
:1024E00001B020784D284FD10A2733293CD1A0785C
:1024F00041280CD1E078432802D03038307000E019
:10250000377020784D283FD1607833282CD1A078BF
:1025100042280CD1E078432802D03038707000E0B7
:10252000377020784D282FD1607833281CD1A078BF
:1025300043280CD1E078432802D03038B07000E056
:10254000377020784D281FD1607833280CD1A078BF
:10255000442819D1E078432802D03038F07000E0E8
:10256000377020784D280FD16178342949D1A0786F
:10257000412815D042281BD0432822D0442829D0F6
:10258000452830D0462800E084E035D0A0F1300264
:10259000AA7022784D2A7DD1342932D1412805D123
:1025A000AF7022784D2A75D134292AD1422806D11C
:1025B0000B22AA7022784D2A6CD1342921D14328CC
:1025C00006D185F8028022784D2A63D1342918D1AA
:1025D000442806D185F8029022784D2A5AD1342910
:1025E0000FD1452806D185F802A022784D2A51D175
:1025F000342906D146284DD185F802B020784D28DF
:1026000048D135297ED1A078422641281CD04228C5
:102610002CD043283DD0442850D0452861D04628AE
:1026200075D03038287126706670FF23032221464A
:102630004048FEF7F3FE20784D282BD160783528EE
:1026400060D1A07841280ED12F7126706670FF23CB
:10265000032221463748FEF7E1FE20784D2819D1A4
:10266000607835287BD1A07842280FD10B202871C3
:1026700026706670FF23032221462E48FEF7CEFE09
:1026800020784D2806D16078352868D1A078432875
:1026900011D100E08AE085F8048026706670FF237F
:1026A000032221462348FEF7B9FE20784D287DD12C
:1026B0006078352853D1A07844280FD185F804904C
:1026C00026706670FF23032221461A48FEF7A6FEF5
:1026D00020784D286AD16078352840D1A0784528E7
:1026E0000FD185F804A026706670FF2303222146CF
:1026F0001048FEF793FE20784D2857D16078352892
:102700002DD101E02BE002E0A07846284ED185F8DB
:1027100004B02670FF236670032219E01500002024
:1027200030000020525345540000000010020020E9
:1027300050313100C8010020503132005031330097
:102740005032310050323200503233003700000036
:1027500021464C48FEF762FE20784D2826D160784D
:10276000362823D1A078432641281CD042282ED0D9
:1027700043283FD0442850D0452861D0462872D005
:102780003038287126706670FF23032221463D48A9
:10279000FEF744FE20784D2871D1607836286ED13E
:1027A000A078412810D12F71267000E067E0667094
:1027B000FF23032221463348FEF730FE20784D28C0
:1027C0005DD1607836285AD1A07842280FD10B20ED
:1027D000287126706670FF23032221462948FEF7E0
:1027E0001DFE20784D284AD16078362847D1A07840
:1027F00043280FD185F8048026706670FF230322DA
:1028000021462048FEF70AFE20784D2837D160780F
:10281000362834D1A07844280FD185F8049026704A
:102820006670FF23032221461648FEF7F7FD207845
:102830004D2824D16078362821D1A07845280FD1A1
:1028400085F804A026706670FF23032221460D48F8
:10285000FEF7E4FD20784D2811D1607836280ED19E
:10286000A07846280BD185F804B026706670214602
:10287000BDE8F05FFF2303220248FEF7CFBDBDE8AD
:10288000F09F0000C801002013B54FF6FF7301222E
:1028900069460248FEF7C2FD00981CBD58020020A0
:1028A000FEF712F8FFF722F8FEF750FEFEF728FEBB
:1028B000FEF7B4FEFEF7EAFEFEF7CCFEFEF706FFDB
:1028C0004FF4FA742046FDF7E9FE0848FDF7FEFCD8
:1028D0000748FDF7FBFC0748FDF7F8FC2046FDF72D
:1028E000DDFE00BF00F008F8FCE70000C801002092
:1028F0001002002058020020FEF77EBF01020203F2
:102900000405060708090A0B0C0D0E0F1010000035
:10291000000000000000010203040607080900008F
:102920000000010203040000482900080000002004
:1029300030000000541F00087829000830000020F3
:1029400040070000641F00080000000000000000B5
:1029500000462B3330522B39304C2B3930000000DD
:102960000000000001000000100000000000000056
:082970000024F4000000000047
:04000005080000ED02
:00000001FF
